{
  "_format": "hh-sol-artifact-1",
  "contractName": "testNFT",
  "sourceName": "contracts/testNFT.sol",
  "abi": [
    {
      "inputs": [
        {
          "internalType": "string",
          "name": "_name",
          "type": "string"
        },
        {
          "internalType": "string",
          "name": "_symbol",
          "type": "string"
        },
        {
          "internalType": "string",
          "name": "_initBaseURI",
          "type": "string"
        },
        {
          "internalType": "string",
          "name": "_initNotRevealedUri",
          "type": "string"
        }
      ],
      "stateMutability": "payable",
      "type": "constructor"
    },
    {
      "anonymous": false,
      "inputs": [
        {
          "indexed": true,
          "internalType": "address",
          "name": "owner",
          "type": "address"
        },
        {
          "indexed": true,
          "internalType": "address",
          "name": "approved",
          "type": "address"
        },
        {
          "indexed": true,
          "internalType": "uint256",
          "name": "tokenId",
          "type": "uint256"
        }
      ],
      "name": "Approval",
      "type": "event"
    },
    {
      "anonymous": false,
      "inputs": [
        {
          "indexed": true,
          "internalType": "address",
          "name": "owner",
          "type": "address"
        },
        {
          "indexed": true,
          "internalType": "address",
          "name": "operator",
          "type": "address"
        },
        {
          "indexed": false,
          "internalType": "bool",
          "name": "approved",
          "type": "bool"
        }
      ],
      "name": "ApprovalForAll",
      "type": "event"
    },
    {
      "anonymous": false,
      "inputs": [
        {
          "indexed": true,
          "internalType": "address",
          "name": "previousOwner",
          "type": "address"
        },
        {
          "indexed": true,
          "internalType": "address",
          "name": "newOwner",
          "type": "address"
        }
      ],
      "name": "OwnershipTransferred",
      "type": "event"
    },
    {
      "anonymous": false,
      "inputs": [
        {
          "indexed": false,
          "internalType": "address",
          "name": "account",
          "type": "address"
        },
        {
          "indexed": false,
          "internalType": "uint256",
          "name": "shares",
          "type": "uint256"
        }
      ],
      "name": "PayeeAdded",
      "type": "event"
    },
    {
      "anonymous": false,
      "inputs": [
        {
          "indexed": false,
          "internalType": "address",
          "name": "from",
          "type": "address"
        },
        {
          "indexed": false,
          "internalType": "uint256",
          "name": "amount",
          "type": "uint256"
        }
      ],
      "name": "PaymentReceived",
      "type": "event"
    },
    {
      "anonymous": false,
      "inputs": [
        {
          "indexed": false,
          "internalType": "address",
          "name": "to",
          "type": "address"
        },
        {
          "indexed": false,
          "internalType": "uint256",
          "name": "amount",
          "type": "uint256"
        }
      ],
      "name": "PaymentReleased",
      "type": "event"
    },
    {
      "anonymous": false,
      "inputs": [
        {
          "indexed": true,
          "internalType": "address",
          "name": "from",
          "type": "address"
        },
        {
          "indexed": true,
          "internalType": "address",
          "name": "to",
          "type": "address"
        },
        {
          "indexed": true,
          "internalType": "uint256",
          "name": "tokenId",
          "type": "uint256"
        }
      ],
      "name": "Transfer",
      "type": "event"
    },
    {
      "anonymous": false,
      "inputs": [
        {
          "indexed": false,
          "internalType": "address",
          "name": "sender",
          "type": "address"
        },
        {
          "indexed": false,
          "internalType": "uint256",
          "name": "prize",
          "type": "uint256"
        }
      ],
      "name": "WinningMint",
      "type": "event"
    },
    {
      "inputs": [
        {
          "internalType": "address",
          "name": "",
          "type": "address"
        }
      ],
      "name": "addressMintedBalance",
      "outputs": [
        {
          "internalType": "uint256",
          "name": "",
          "type": "uint256"
        }
      ],
      "stateMutability": "view",
      "type": "function"
    },
    {
      "inputs": [
        {
          "internalType": "address",
          "name": "to",
          "type": "address"
        },
        {
          "internalType": "uint256",
          "name": "tokenId",
          "type": "uint256"
        }
      ],
      "name": "approve",
      "outputs": [],
      "stateMutability": "nonpayable",
      "type": "function"
    },
    {
      "inputs": [
        {
          "internalType": "address",
          "name": "owner",
          "type": "address"
        }
      ],
      "name": "balanceOf",
      "outputs": [
        {
          "internalType": "uint256",
          "name": "",
          "type": "uint256"
        }
      ],
      "stateMutability": "view",
      "type": "function"
    },
    {
      "inputs": [],
      "name": "baseExtension",
      "outputs": [
        {
          "internalType": "string",
          "name": "",
          "type": "string"
        }
      ],
      "stateMutability": "view",
      "type": "function"
    },
    {
      "inputs": [],
      "name": "baseURI",
      "outputs": [
        {
          "internalType": "string",
          "name": "",
          "type": "string"
        }
      ],
      "stateMutability": "view",
      "type": "function"
    },
    {
      "inputs": [],
      "name": "cost",
      "outputs": [
        {
          "internalType": "uint256",
          "name": "",
          "type": "uint256"
        }
      ],
      "stateMutability": "view",
      "type": "function"
    },
    {
      "inputs": [
        {
          "internalType": "uint256",
          "name": "tokenId",
          "type": "uint256"
        }
      ],
      "name": "getApproved",
      "outputs": [
        {
          "internalType": "address",
          "name": "",
          "type": "address"
        }
      ],
      "stateMutability": "view",
      "type": "function"
    },
    {
      "inputs": [
        {
          "internalType": "address",
          "name": "owner",
          "type": "address"
        },
        {
          "internalType": "address",
          "name": "operator",
          "type": "address"
        }
      ],
      "name": "isApprovedForAll",
      "outputs": [
        {
          "internalType": "bool",
          "name": "",
          "type": "bool"
        }
      ],
      "stateMutability": "view",
      "type": "function"
    },
    {
      "inputs": [
        {
          "internalType": "address",
          "name": "_user",
          "type": "address"
        }
      ],
      "name": "isWhitelisted",
      "outputs": [
        {
          "internalType": "bool",
          "name": "",
          "type": "bool"
        }
      ],
      "stateMutability": "view",
      "type": "function"
    },
    {
      "inputs": [],
      "name": "maxMintAmount",
      "outputs": [
        {
          "internalType": "uint256",
          "name": "",
          "type": "uint256"
        }
      ],
      "stateMutability": "view",
      "type": "function"
    },
    {
      "inputs": [],
      "name": "maxSupply",
      "outputs": [
        {
          "internalType": "uint256",
          "name": "",
          "type": "uint256"
        }
      ],
      "stateMutability": "view",
      "type": "function"
    },
    {
      "inputs": [
        {
          "internalType": "uint256",
          "name": "_mintAmount",
          "type": "uint256"
        }
      ],
      "name": "mint",
      "outputs": [],
      "stateMutability": "payable",
      "type": "function"
    },
    {
      "inputs": [],
      "name": "name",
      "outputs": [
        {
          "internalType": "string",
          "name": "",
          "type": "string"
        }
      ],
      "stateMutability": "view",
      "type": "function"
    },
    {
      "inputs": [],
      "name": "nftPerAddressLimit",
      "outputs": [
        {
          "internalType": "uint256",
          "name": "",
          "type": "uint256"
        }
      ],
      "stateMutability": "view",
      "type": "function"
    },
    {
      "inputs": [],
      "name": "notRevealedUri",
      "outputs": [
        {
          "internalType": "string",
          "name": "",
          "type": "string"
        }
      ],
      "stateMutability": "view",
      "type": "function"
    },
    {
      "inputs": [],
      "name": "onlyWhitelisted",
      "outputs": [
        {
          "internalType": "bool",
          "name": "",
          "type": "bool"
        }
      ],
      "stateMutability": "view",
      "type": "function"
    },
    {
      "inputs": [],
      "name": "owner",
      "outputs": [
        {
          "internalType": "address",
          "name": "",
          "type": "address"
        }
      ],
      "stateMutability": "view",
      "type": "function"
    },
    {
      "inputs": [
        {
          "internalType": "uint256",
          "name": "tokenId",
          "type": "uint256"
        }
      ],
      "name": "ownerOf",
      "outputs": [
        {
          "internalType": "address",
          "name": "",
          "type": "address"
        }
      ],
      "stateMutability": "view",
      "type": "function"
    },
    {
      "inputs": [
        {
          "internalType": "bool",
          "name": "_state",
          "type": "bool"
        }
      ],
      "name": "pause",
      "outputs": [],
      "stateMutability": "nonpayable",
      "type": "function"
    },
    {
      "inputs": [],
      "name": "paused",
      "outputs": [
        {
          "internalType": "bool",
          "name": "",
          "type": "bool"
        }
      ],
      "stateMutability": "view",
      "type": "function"
    },
    {
      "inputs": [
        {
          "internalType": "uint256",
          "name": "index",
          "type": "uint256"
        }
      ],
      "name": "payee",
      "outputs": [
        {
          "internalType": "address",
          "name": "",
          "type": "address"
        }
      ],
      "stateMutability": "view",
      "type": "function"
    },
    {
      "inputs": [
        {
          "internalType": "address payable",
          "name": "account",
          "type": "address"
        }
      ],
      "name": "release",
      "outputs": [],
      "stateMutability": "nonpayable",
      "type": "function"
    },
    {
      "inputs": [
        {
          "internalType": "address",
          "name": "account",
          "type": "address"
        }
      ],
      "name": "released",
      "outputs": [
        {
          "internalType": "uint256",
          "name": "",
          "type": "uint256"
        }
      ],
      "stateMutability": "view",
      "type": "function"
    },
    {
      "inputs": [],
      "name": "renounceOwnership",
      "outputs": [],
      "stateMutability": "nonpayable",
      "type": "function"
    },
    {
      "inputs": [],
      "name": "reveal",
      "outputs": [],
      "stateMutability": "nonpayable",
      "type": "function"
    },
    {
      "inputs": [],
      "name": "revealed",
      "outputs": [
        {
          "internalType": "bool",
          "name": "",
          "type": "bool"
        }
      ],
      "stateMutability": "view",
      "type": "function"
    },
    {
      "inputs": [
        {
          "internalType": "address",
          "name": "from",
          "type": "address"
        },
        {
          "internalType": "address",
          "name": "to",
          "type": "address"
        },
        {
          "internalType": "uint256",
          "name": "tokenId",
          "type": "uint256"
        }
      ],
      "name": "safeTransferFrom",
      "outputs": [],
      "stateMutability": "nonpayable",
      "type": "function"
    },
    {
      "inputs": [
        {
          "internalType": "address",
          "name": "from",
          "type": "address"
        },
        {
          "internalType": "address",
          "name": "to",
          "type": "address"
        },
        {
          "internalType": "uint256",
          "name": "tokenId",
          "type": "uint256"
        },
        {
          "internalType": "bytes",
          "name": "_data",
          "type": "bytes"
        }
      ],
      "name": "safeTransferFrom",
      "outputs": [],
      "stateMutability": "nonpayable",
      "type": "function"
    },
    {
      "inputs": [
        {
          "internalType": "address",
          "name": "operator",
          "type": "address"
        },
        {
          "internalType": "bool",
          "name": "approved",
          "type": "bool"
        }
      ],
      "name": "setApprovalForAll",
      "outputs": [],
      "stateMutability": "nonpayable",
      "type": "function"
    },
    {
      "inputs": [
        {
          "internalType": "string",
          "name": "_newBaseExtension",
          "type": "string"
        }
      ],
      "name": "setBaseExtension",
      "outputs": [],
      "stateMutability": "nonpayable",
      "type": "function"
    },
    {
      "inputs": [
        {
          "internalType": "string",
          "name": "_newBaseURI",
          "type": "string"
        }
      ],
      "name": "setBaseURI",
      "outputs": [],
      "stateMutability": "nonpayable",
      "type": "function"
    },
    {
      "inputs": [
        {
          "internalType": "uint256",
          "name": "_newCost",
          "type": "uint256"
        }
      ],
      "name": "setCost",
      "outputs": [],
      "stateMutability": "nonpayable",
      "type": "function"
    },
    {
      "inputs": [
        {
          "internalType": "uint256",
          "name": "_limit",
          "type": "uint256"
        }
      ],
      "name": "setNftPerAddressLimit",
      "outputs": [],
      "stateMutability": "nonpayable",
      "type": "function"
    },
    {
      "inputs": [
        {
          "internalType": "string",
          "name": "_notRevealedURI",
          "type": "string"
        }
      ],
      "name": "setNotRevealedURI",
      "outputs": [],
      "stateMutability": "nonpayable",
      "type": "function"
    },
    {
      "inputs": [
        {
          "internalType": "bool",
          "name": "_state",
          "type": "bool"
        }
      ],
      "name": "setOnlyWhitelisted",
      "outputs": [],
      "stateMutability": "nonpayable",
      "type": "function"
    },
    {
      "inputs": [
        {
          "internalType": "uint256",
          "name": "_newmaxMintAmount",
          "type": "uint256"
        }
      ],
      "name": "setmaxMintAmount",
      "outputs": [],
      "stateMutability": "nonpayable",
      "type": "function"
    },
    {
      "inputs": [
        {
          "internalType": "address",
          "name": "account",
          "type": "address"
        }
      ],
      "name": "shares",
      "outputs": [
        {
          "internalType": "uint256",
          "name": "",
          "type": "uint256"
        }
      ],
      "stateMutability": "view",
      "type": "function"
    },
    {
      "inputs": [
        {
          "internalType": "bytes4",
          "name": "interfaceId",
          "type": "bytes4"
        }
      ],
      "name": "supportsInterface",
      "outputs": [
        {
          "internalType": "bool",
          "name": "",
          "type": "bool"
        }
      ],
      "stateMutability": "view",
      "type": "function"
    },
    {
      "inputs": [],
      "name": "symbol",
      "outputs": [
        {
          "internalType": "string",
          "name": "",
          "type": "string"
        }
      ],
      "stateMutability": "view",
      "type": "function"
    },
    {
      "inputs": [
        {
          "internalType": "uint256",
          "name": "index",
          "type": "uint256"
        }
      ],
      "name": "tokenByIndex",
      "outputs": [
        {
          "internalType": "uint256",
          "name": "",
          "type": "uint256"
        }
      ],
      "stateMutability": "view",
      "type": "function"
    },
    {
      "inputs": [
        {
          "internalType": "address",
          "name": "owner",
          "type": "address"
        },
        {
          "internalType": "uint256",
          "name": "index",
          "type": "uint256"
        }
      ],
      "name": "tokenOfOwnerByIndex",
      "outputs": [
        {
          "internalType": "uint256",
          "name": "",
          "type": "uint256"
        }
      ],
      "stateMutability": "view",
      "type": "function"
    },
    {
      "inputs": [
        {
          "internalType": "uint256",
          "name": "tokenId",
          "type": "uint256"
        }
      ],
      "name": "tokenURI",
      "outputs": [
        {
          "internalType": "string",
          "name": "",
          "type": "string"
        }
      ],
      "stateMutability": "view",
      "type": "function"
    },
    {
      "inputs": [],
      "name": "totalReleased",
      "outputs": [
        {
          "internalType": "uint256",
          "name": "",
          "type": "uint256"
        }
      ],
      "stateMutability": "view",
      "type": "function"
    },
    {
      "inputs": [],
      "name": "totalShares",
      "outputs": [
        {
          "internalType": "uint256",
          "name": "",
          "type": "uint256"
        }
      ],
      "stateMutability": "view",
      "type": "function"
    },
    {
      "inputs": [],
      "name": "totalSupply",
      "outputs": [
        {
          "internalType": "uint256",
          "name": "",
          "type": "uint256"
        }
      ],
      "stateMutability": "view",
      "type": "function"
    },
    {
      "inputs": [
        {
          "internalType": "address",
          "name": "from",
          "type": "address"
        },
        {
          "internalType": "address",
          "name": "to",
          "type": "address"
        },
        {
          "internalType": "uint256",
          "name": "tokenId",
          "type": "uint256"
        }
      ],
      "name": "transferFrom",
      "outputs": [],
      "stateMutability": "nonpayable",
      "type": "function"
    },
    {
      "inputs": [
        {
          "internalType": "address",
          "name": "newOwner",
          "type": "address"
        }
      ],
      "name": "transferOwnership",
      "outputs": [],
      "stateMutability": "nonpayable",
      "type": "function"
    },
    {
      "inputs": [
        {
          "internalType": "address",
          "name": "_owner",
          "type": "address"
        }
      ],
      "name": "walletOfOwner",
      "outputs": [
        {
          "internalType": "uint256[]",
          "name": "",
          "type": "uint256[]"
        }
      ],
      "stateMutability": "view",
      "type": "function"
    },
    {
      "inputs": [
        {
          "internalType": "address[]",
          "name": "_users",
          "type": "address[]"
        }
      ],
      "name": "whitelistUsers",
      "outputs": [],
      "stateMutability": "nonpayable",
      "type": "function"
    },
    {
      "inputs": [
        {
          "internalType": "uint256",
          "name": "",
          "type": "uint256"
        }
      ],
      "name": "whitelistedAddresses",
      "outputs": [
        {
          "internalType": "address",
          "name": "",
          "type": "address"
        }
      ],
      "stateMutability": "view",
      "type": "function"
    },
    {
      "inputs": [],
      "name": "withdraw",
      "outputs": [],
      "stateMutability": "payable",
      "type": "function"
    },
    {
      "stateMutability": "payable",
      "type": "receive"
    }
  ],
  "bytecode": "0x60806040526040518060400160405280600581526020017f2e6a736f6e0000000000000000000000000000000000000000000000000000008152506011908051906020019062000051929190620008e8565b5066038d7ea4c680006013556096601455601460155560146016556040518060400160405280603260ff168152602001603260ff1681525060189060026200009b92919062000979565b506000601960006101000a81548160ff0219169083151502179055506000601960016101000a81548160ff0219169083151502179055506001601960026101000a81548160ff021916908315150217905550604051806040016040528073e2b8651bf50913057ff47fc4f02a8e12146083b873ffffffffffffffffffffffffffffffffffffffff1673ffffffffffffffffffffffffffffffffffffffff168152602001736961367ef8b92c1a306a68c87add9eafd09f778773ffffffffffffffffffffffffffffffffffffffff1673ffffffffffffffffffffffffffffffffffffffff16815250601b90600262000194929190620009d0565b5060405162006db538038062006db58339818101604052810190620001ba919062000af0565b601b8054806020026020016040519081016040528092919081815260200182805480156200023e57602002820191906000526020600020905b8160009054906101000a900473ffffffffffffffffffffffffffffffffffffffff1673ffffffffffffffffffffffffffffffffffffffff1681526020019060010190808311620001f3575b505050505060188054806020026020016040519081016040528092919081815260200182805480156200029157602002820191906000526020600020905b8154815260200190600101908083116200027c575b505050505085858160009080519060200190620002b0929190620008e8565b508060019080519060200190620002c9929190620008e8565b505050620002ec620002e06200046060201b60201c565b6200046860201b60201c565b805182511462000333576040517f08c379a00000000000000000000000000000000000000000000000000000000081526004016200032a9062000e51565b60405180910390fd5b60008251116200037a576040517f08c379a0000000000000000000000000000000000000000000000000000000008152600401620003719062000e95565b60405180910390fd5b60005b825181101562000431576200041b838281518110620003c5577f4e487b7100000000000000000000000000000000000000000000000000000000600052603260045260246000fd5b602002602001015183838151811062000407577f4e487b7100000000000000000000000000000000000000000000000000000000600052603260045260246000fd5b60200260200101516200052e60201b60201c565b8080620004289062001058565b9150506200037d565b50505062000445826200076860201b60201c565b62000456816200081360201b60201c565b5050505062001133565b600033905090565b6000600a60009054906101000a900473ffffffffffffffffffffffffffffffffffffffff16905081600a60006101000a81548173ffffffffffffffffffffffffffffffffffffffff021916908373ffffffffffffffffffffffffffffffffffffffff1602179055508173ffffffffffffffffffffffffffffffffffffffff168173ffffffffffffffffffffffffffffffffffffffff167f8be0079c531659141344cd1fd0a4f28419497f9722a3daafe3b4186f6b6457e060405160405180910390a35050565b600073ffffffffffffffffffffffffffffffffffffffff168273ffffffffffffffffffffffffffffffffffffffff161415620005a1576040517f08c379a0000000000000000000000000000000000000000000000000000000008152600401620005989062000e0d565b60405180910390fd5b60008111620005e7576040517f08c379a0000000000000000000000000000000000000000000000000000000008152600401620005de9062000eb7565b60405180910390fd5b6000600d60008473ffffffffffffffffffffffffffffffffffffffff1673ffffffffffffffffffffffffffffffffffffffff16815260200190815260200160002054146200066c576040517f08c379a0000000000000000000000000000000000000000000000000000000008152600401620006639062000e73565b60405180910390fd5b600f829080600181540180825580915050600190039060005260206000200160009091909190916101000a81548173ffffffffffffffffffffffffffffffffffffffff021916908373ffffffffffffffffffffffffffffffffffffffff16021790555080600d60008473ffffffffffffffffffffffffffffffffffffffff1673ffffffffffffffffffffffffffffffffffffffff1681526020019081526020016000208190555080600b5462000723919062000f51565b600b819055507f40c340f65e17194d14ddddb073d3c9f888e3cb52b5aae0c6c7706b4fbc905fac82826040516200075c92919062000de0565b60405180910390a15050565b620007786200046060201b60201c565b73ffffffffffffffffffffffffffffffffffffffff166200079e620008be60201b60201c565b73ffffffffffffffffffffffffffffffffffffffff1614620007f7576040517f08c379a0000000000000000000000000000000000000000000000000000000008152600401620007ee9062000e2f565b60405180910390fd5b80601090805190602001906200080f929190620008e8565b5050565b620008236200046060201b60201c565b73ffffffffffffffffffffffffffffffffffffffff1662000849620008be60201b60201c565b73ffffffffffffffffffffffffffffffffffffffff1614620008a2576040517f08c379a0000000000000000000000000000000000000000000000000000000008152600401620008999062000e2f565b60405180910390fd5b8060129080519060200190620008ba929190620008e8565b5050565b6000600a60009054906101000a900473ffffffffffffffffffffffffffffffffffffffff16905090565b828054620008f69062001022565b90600052602060002090601f0160209004810192826200091a576000855562000966565b82601f106200093557805160ff191683800117855562000966565b8280016001018555821562000966579182015b828111156200096557825182559160200191906001019062000948565b5b50905062000975919062000a5f565b5090565b828054828255906000526020600020908101928215620009bd579160200282015b82811115620009bc578251829060ff169055916020019190600101906200099a565b5b509050620009cc919062000a5f565b5090565b82805482825590600052602060002090810192821562000a4c579160200282015b8281111562000a4b5782518260006101000a81548173ffffffffffffffffffffffffffffffffffffffff021916908373ffffffffffffffffffffffffffffffffffffffff16021790555091602001919060010190620009f1565b5b50905062000a5b919062000a5f565b5090565b5b8082111562000a7a57600081600090555060010162000a60565b5090565b600062000a9562000a8f8462000f0d565b62000ed9565b90508281526020810184848401111562000aae57600080fd5b62000abb84828562000fec565b509392505050565b600082601f83011262000ad557600080fd5b815162000ae784826020860162000a7e565b91505092915050565b6000806000806080858703121562000b0757600080fd5b600085015167ffffffffffffffff81111562000b2257600080fd5b62000b308782880162000ac3565b945050602085015167ffffffffffffffff81111562000b4e57600080fd5b62000b5c8782880162000ac3565b935050604085015167ffffffffffffffff81111562000b7a57600080fd5b62000b888782880162000ac3565b925050606085015167ffffffffffffffff81111562000ba657600080fd5b62000bb48782880162000ac3565b91505092959194509250565b62000bcb8162000fae565b82525050565b600062000be0602c8362000f40565b91507f5061796d656e7453706c69747465723a206163636f756e74206973207468652060008301527f7a65726f206164647265737300000000000000000000000000000000000000006020830152604082019050919050565b600062000c4860208362000f40565b91507f4f776e61626c653a2063616c6c6572206973206e6f7420746865206f776e65726000830152602082019050919050565b600062000c8a60328362000f40565b91507f5061796d656e7453706c69747465723a2070617965657320616e64207368617260008301527f6573206c656e677468206d69736d6174636800000000000000000000000000006020830152604082019050919050565b600062000cf2602b8362000f40565b91507f5061796d656e7453706c69747465723a206163636f756e7420616c726561647960008301527f20686173207368617265730000000000000000000000000000000000000000006020830152604082019050919050565b600062000d5a601a8362000f40565b91507f5061796d656e7453706c69747465723a206e6f207061796565730000000000006000830152602082019050919050565b600062000d9c601d8362000f40565b91507f5061796d656e7453706c69747465723a207368617265732061726520300000006000830152602082019050919050565b62000dda8162000fe2565b82525050565b600060408201905062000df7600083018562000bc0565b62000e06602083018462000dcf565b9392505050565b6000602082019050818103600083015262000e288162000bd1565b9050919050565b6000602082019050818103600083015262000e4a8162000c39565b9050919050565b6000602082019050818103600083015262000e6c8162000c7b565b9050919050565b6000602082019050818103600083015262000e8e8162000ce3565b9050919050565b6000602082019050818103600083015262000eb08162000d4b565b9050919050565b6000602082019050818103600083015262000ed28162000d8d565b9050919050565b6000604051905081810181811067ffffffffffffffff8211171562000f035762000f0262001104565b5b8060405250919050565b600067ffffffffffffffff82111562000f2b5762000f2a62001104565b5b601f19601f8301169050602081019050919050565b600082825260208201905092915050565b600062000f5e8262000fe2565b915062000f6b8362000fe2565b9250827fffffffffffffffffffffffffffffffffffffffffffffffffffffffffffffffff0382111562000fa35762000fa2620010a6565b5b828201905092915050565b600062000fbb8262000fc2565b9050919050565b600073ffffffffffffffffffffffffffffffffffffffff82169050919050565b6000819050919050565b60005b838110156200100c57808201518184015260208101905062000fef565b838111156200101c576000848401525b50505050565b600060028204905060018216806200103b57607f821691505b60208210811415620010525762001051620010d5565b5b50919050565b6000620010658262000fe2565b91507fffffffffffffffffffffffffffffffffffffffffffffffffffffffffffffffff8214156200109b576200109a620010a6565b5b600182019050919050565b7f4e487b7100000000000000000000000000000000000000000000000000000000600052601160045260246000fd5b7f4e487b7100000000000000000000000000000000000000000000000000000000600052602260045260246000fd5b7f4e487b7100000000000000000000000000000000000000000000000000000000600052604160045260246000fd5b615c7280620011436000396000f3fe6080604052600436106102e85760003560e01c80636c0360eb11610190578063ba4e5c49116100dc578063d5abeb0111610095578063e985e9c51161006f578063e985e9c514610ba3578063edec5f2714610be0578063f2c4ce1e14610c09578063f2fde38b14610c325761032f565b8063d5abeb0114610b24578063da3ef23f14610b4f578063e33b7de314610b785761032f565b8063ba4e5c49146109ee578063ba7d2c7614610a2b578063c668286214610a56578063c87b56dd14610a81578063ce7c2ac214610abe578063d0eb26b014610afb5761032f565b806395d89b4111610149578063a0712d6811610123578063a0712d6814610969578063a22cb46514610985578063a475b5dd146109ae578063b88d4fde146109c55761032f565b806395d89b41146108d65780639852595c146109015780639c70b5121461093e5761032f565b80636c0360eb146107c657806370a08231146107f1578063715018a61461082e5780637f00c7a6146108455780638b83209b1461086e5780638da5cb5b146108ab5761032f565b80632f745c591161024f578063438b63001161020857806351830227116101e2578063518302271461070a57806355f804b3146107355780635c975abb1461075e5780636352211e146107895761032f565b8063438b63001461066757806344a0d68a146106a45780634f6ccce7146106cd5761032f565b80632f745c59146105665780633a98ef39146105a35780633af32abf146105ce5780633c9527641461060b5780633ccfd60b1461063457806342842e0e1461063e5761032f565b806313faede6116102a157806313faede61461045657806318160ddd1461048157806318cae269146104ac57806319165587146104e9578063239c70ae1461051257806323b872dd1461053d5761032f565b806301ffc9a71461033457806302329a291461037157806306fdde031461039a578063081812fc146103c5578063081c8c4414610402578063095ea7b31461042d5761032f565b3661032f577f6ef95f06320e7a25a04a175ca677b7052bdd97131872c2192525a629f51be770610316610c5b565b3460405161032592919061525d565b60405180910390a1005b600080fd5b34801561034057600080fd5b5061035b60048036038101906103569190614416565b610c63565b60405161036891906152a8565b60405180910390f35b34801561037d57600080fd5b50610398600480360381019061039391906143ed565b610cdd565b005b3480156103a657600080fd5b506103af610d76565b6040516103bc91906152c3565b60405180910390f35b3480156103d157600080fd5b506103ec60048036038101906103e791906144a9565b610e08565b6040516103f991906151cd565b60405180910390f35b34801561040e57600080fd5b50610417610e8d565b60405161042491906152c3565b60405180910390f35b34801561043957600080fd5b50610454600480360381019061044f919061436c565b610f1b565b005b34801561046257600080fd5b5061046b611033565b60405161047891906156f5565b60405180910390f35b34801561048d57600080fd5b50610496611039565b6040516104a391906156f5565b60405180910390f35b3480156104b857600080fd5b506104d360048036038101906104ce91906141d8565b611046565b6040516104e091906156f5565b60405180910390f35b3480156104f557600080fd5b50610510600480360381019061050b9190614201565b61105e565b005b34801561051e57600080fd5b506105276112c6565b60405161053491906156f5565b60405180910390f35b34801561054957600080fd5b50610564600480360381019061055f9190614266565b6112cc565b005b34801561057257600080fd5b5061058d6004803603810190610588919061436c565b61132c565b60405161059a91906156f5565b60405180910390f35b3480156105af57600080fd5b506105b86113d1565b6040516105c591906156f5565b60405180910390f35b3480156105da57600080fd5b506105f560048036038101906105f091906141d8565b6113db565b60405161060291906152a8565b60405180910390f35b34801561061757600080fd5b50610632600480360381019061062d91906143ed565b6114b0565b005b61063c611549565b005b34801561064a57600080fd5b5061066560048036038101906106609190614266565b61163e565b005b34801561067357600080fd5b5061068e600480360381019061068991906141d8565b61165e565b60405161069b9190615286565b60405180910390f35b3480156106b057600080fd5b506106cb60048036038101906106c691906144a9565b611758565b005b3480156106d957600080fd5b506106f460048036038101906106ef91906144a9565b6117de565b60405161070191906156f5565b60405180910390f35b34801561071657600080fd5b5061071f611875565b60405161072c91906152a8565b60405180910390f35b34801561074157600080fd5b5061075c60048036038101906107579190614468565b611888565b005b34801561076a57600080fd5b5061077361191e565b60405161078091906152a8565b60405180910390f35b34801561079557600080fd5b506107b060048036038101906107ab91906144a9565b611931565b6040516107bd91906151cd565b60405180910390f35b3480156107d257600080fd5b506107db6119e3565b6040516107e891906152c3565b60405180910390f35b3480156107fd57600080fd5b50610818600480360381019061081391906141d8565b611a71565b60405161082591906156f5565b60405180910390f35b34801561083a57600080fd5b50610843611b29565b005b34801561085157600080fd5b5061086c600480360381019061086791906144a9565b611bb1565b005b34801561087a57600080fd5b50610895600480360381019061089091906144a9565b611c37565b6040516108a291906151cd565b60405180910390f35b3480156108b757600080fd5b506108c0611ca5565b6040516108cd91906151cd565b60405180910390f35b3480156108e257600080fd5b506108eb611ccf565b6040516108f891906152c3565b60405180910390f35b34801561090d57600080fd5b50610928600480360381019061092391906141d8565b611d61565b60405161093591906156f5565b60405180910390f35b34801561094a57600080fd5b50610953611daa565b60405161096091906152a8565b60405180910390f35b610983600480360381019061097e91906144a9565b611dbd565b005b34801561099157600080fd5b506109ac60048036038101906109a79190614330565b6122b6565b005b3480156109ba57600080fd5b506109c3612437565b005b3480156109d157600080fd5b506109ec60048036038101906109e791906142b5565b6124d0565b005b3480156109fa57600080fd5b50610a156004803603810190610a1091906144a9565b612532565b604051610a2291906151cd565b60405180910390f35b348015610a3757600080fd5b50610a40612571565b604051610a4d91906156f5565b60405180910390f35b348015610a6257600080fd5b50610a6b612577565b604051610a7891906152c3565b60405180910390f35b348015610a8d57600080fd5b50610aa86004803603810190610aa391906144a9565b612605565b604051610ab591906152c3565b60405180910390f35b348015610aca57600080fd5b50610ae56004803603810190610ae091906141d8565b61275e565b604051610af291906156f5565b60405180910390f35b348015610b0757600080fd5b50610b226004803603810190610b1d91906144a9565b6127a7565b005b348015610b3057600080fd5b50610b3961282d565b604051610b4691906156f5565b60405180910390f35b348015610b5b57600080fd5b50610b766004803603810190610b719190614468565b612833565b005b348015610b8457600080fd5b50610b8d6128c9565b604051610b9a91906156f5565b60405180910390f35b348015610baf57600080fd5b50610bca6004803603810190610bc5919061422a565b6128d3565b604051610bd791906152a8565b60405180910390f35b348015610bec57600080fd5b50610c076004803603810190610c0291906143a8565b612967565b005b348015610c1557600080fd5b50610c306004803603810190610c2b9190614468565b612a07565b005b348015610c3e57600080fd5b50610c596004803603810190610c5491906141d8565b612a9d565b005b600033905090565b60007f780e9d63000000000000000000000000000000000000000000000000000000007bffffffffffffffffffffffffffffffffffffffffffffffffffffffff1916827bffffffffffffffffffffffffffffffffffffffffffffffffffffffff19161480610cd65750610cd582612b95565b5b9050919050565b610ce5610c5b565b73ffffffffffffffffffffffffffffffffffffffff16610d03611ca5565b73ffffffffffffffffffffffffffffffffffffffff1614610d59576040517f08c379a0000000000000000000000000000000000000000000000000000000008152600401610d5090615595565b60405180910390fd5b80601960006101000a81548160ff02191690831515021790555050565b606060008054610d8590615a50565b80601f0160208091040260200160405190810160405280929190818152602001828054610db190615a50565b8015610dfe5780601f10610dd357610100808354040283529160200191610dfe565b820191906000526020600020905b815481529060010190602001808311610de157829003601f168201915b5050505050905090565b6000610e1382612c77565b610e52576040517f08c379a0000000000000000000000000000000000000000000000000000000008152600401610e4990615575565b60405180910390fd5b6004600083815260200190815260200160002060009054906101000a900473ffffffffffffffffffffffffffffffffffffffff169050919050565b60128054610e9a90615a50565b80601f0160208091040260200160405190810160405280929190818152602001828054610ec690615a50565b8015610f135780601f10610ee857610100808354040283529160200191610f13565b820191906000526020600020905b815481529060010190602001808311610ef657829003601f168201915b505050505081565b6000610f2682611931565b90508073ffffffffffffffffffffffffffffffffffffffff168373ffffffffffffffffffffffffffffffffffffffff161415610f97576040517f08c379a0000000000000000000000000000000000000000000000000000000008152600401610f8e90615615565b60405180910390fd5b8073ffffffffffffffffffffffffffffffffffffffff16610fb6610c5b565b73ffffffffffffffffffffffffffffffffffffffff161480610fe55750610fe481610fdf610c5b565b6128d3565b5b611024576040517f08c379a000000000000000000000000000000000000000000000000000000000815260040161101b906154b5565b60405180910390fd5b61102e8383612ce3565b505050565b60135481565b6000600880549050905090565b601c6020528060005260406000206000915090505481565b6000600d60008373ffffffffffffffffffffffffffffffffffffffff1673ffffffffffffffffffffffffffffffffffffffff16815260200190815260200160002054116110e0576040517f08c379a00000000000000000000000000000000000000000000000000000000081526004016110d7906153b5565b60405180910390fd5b6000600c54476110f0919061583d565b90506000600e60008473ffffffffffffffffffffffffffffffffffffffff1673ffffffffffffffffffffffffffffffffffffffff16815260200190815260200160002054600b54600d60008673ffffffffffffffffffffffffffffffffffffffff1673ffffffffffffffffffffffffffffffffffffffff168152602001908152602001600020548461118291906158c4565b61118c9190615893565b611196919061591e565b905060008114156111dc576040517f08c379a00000000000000000000000000000000000000000000000000000000081526004016111d390615495565b60405180910390fd5b80600e60008573ffffffffffffffffffffffffffffffffffffffff1673ffffffffffffffffffffffffffffffffffffffff16815260200190815260200160002054611227919061583d565b600e60008573ffffffffffffffffffffffffffffffffffffffff1673ffffffffffffffffffffffffffffffffffffffff1681526020019081526020016000208190555080600c54611278919061583d565b600c819055506112888382612d9c565b7fdf20fd1e76bc69d672e4814fafb2c449bba3a5369d8359adf9e05e6fde87b05683826040516112b99291906151e8565b60405180910390a1505050565b60155481565b6112dd6112d7610c5b565b82612e90565b61131c576040517f08c379a000000000000000000000000000000000000000000000000000000000815260040161131390615675565b60405180910390fd5b611327838383612f6e565b505050565b600061133783611a71565b8210611378576040517f08c379a000000000000000000000000000000000000000000000000000000000815260040161136f90615315565b60405180910390fd5b600660008473ffffffffffffffffffffffffffffffffffffffff1673ffffffffffffffffffffffffffffffffffffffff168152602001908152602001600020600083815260200190815260200160002054905092915050565b6000600b54905090565b600080600090505b601a805490508110156114a5578273ffffffffffffffffffffffffffffffffffffffff16601a8281548110611441577f4e487b7100000000000000000000000000000000000000000000000000000000600052603260045260246000fd5b9060005260206000200160009054906101000a900473ffffffffffffffffffffffffffffffffffffffff1673ffffffffffffffffffffffffffffffffffffffff1614156114925760019150506114ab565b808061149d90615a82565b9150506113e3565b50600090505b919050565b6114b8610c5b565b73ffffffffffffffffffffffffffffffffffffffff166114d6611ca5565b73ffffffffffffffffffffffffffffffffffffffff161461152c576040517f08c379a000000000000000000000000000000000000000000000000000000000815260040161152390615595565b60405180910390fd5b80601960026101000a81548160ff02191690831515021790555050565b611551610c5b565b73ffffffffffffffffffffffffffffffffffffffff1661156f611ca5565b73ffffffffffffffffffffffffffffffffffffffff16146115c5576040517f08c379a00000000000000000000000000000000000000000000000000000000081526004016115bc90615595565b60405180910390fd5b60003373ffffffffffffffffffffffffffffffffffffffff16476040516115eb906151b8565b60006040518083038185875af1925050503d8060008114611628576040519150601f19603f3d011682016040523d82523d6000602084013e61162d565b606091505b505090508061163b57600080fd5b50565b611659838383604051806020016040528060008152506124d0565b505050565b6060600061166b83611a71565b905060008167ffffffffffffffff8111156116af577f4e487b7100000000000000000000000000000000000000000000000000000000600052604160045260246000fd5b6040519080825280602002602001820160405280156116dd5781602001602082028036833780820191505090505b50905060005b8281101561174d576116f5858261132c565b82828151811061172e577f4e487b7100000000000000000000000000000000000000000000000000000000600052603260045260246000fd5b602002602001018181525050808061174590615a82565b9150506116e3565b508092505050919050565b611760610c5b565b73ffffffffffffffffffffffffffffffffffffffff1661177e611ca5565b73ffffffffffffffffffffffffffffffffffffffff16146117d4576040517f08c379a00000000000000000000000000000000000000000000000000000000081526004016117cb90615595565b60405180910390fd5b8060138190555050565b60006117e8611039565b8210611829576040517f08c379a000000000000000000000000000000000000000000000000000000000815260040161182090615695565b60405180910390fd5b60088281548110611863577f4e487b7100000000000000000000000000000000000000000000000000000000600052603260045260246000fd5b90600052602060002001549050919050565b601960019054906101000a900460ff1681565b611890610c5b565b73ffffffffffffffffffffffffffffffffffffffff166118ae611ca5565b73ffffffffffffffffffffffffffffffffffffffff1614611904576040517f08c379a00000000000000000000000000000000000000000000000000000000081526004016118fb90615595565b60405180910390fd5b806010908051906020019061191a929190613edc565b5050565b601960009054906101000a900460ff1681565b6000806002600084815260200190815260200160002060009054906101000a900473ffffffffffffffffffffffffffffffffffffffff169050600073ffffffffffffffffffffffffffffffffffffffff168173ffffffffffffffffffffffffffffffffffffffff1614156119da576040517f08c379a00000000000000000000000000000000000000000000000000000000081526004016119d1906154f5565b60405180910390fd5b80915050919050565b601080546119f090615a50565b80601f0160208091040260200160405190810160405280929190818152602001828054611a1c90615a50565b8015611a695780601f10611a3e57610100808354040283529160200191611a69565b820191906000526020600020905b815481529060010190602001808311611a4c57829003601f168201915b505050505081565b60008073ffffffffffffffffffffffffffffffffffffffff168273ffffffffffffffffffffffffffffffffffffffff161415611ae2576040517f08c379a0000000000000000000000000000000000000000000000000000000008152600401611ad9906154d5565b60405180910390fd5b600360008373ffffffffffffffffffffffffffffffffffffffff1673ffffffffffffffffffffffffffffffffffffffff168152602001908152602001600020549050919050565b611b31610c5b565b73ffffffffffffffffffffffffffffffffffffffff16611b4f611ca5565b73ffffffffffffffffffffffffffffffffffffffff1614611ba5576040517f08c379a0000000000000000000000000000000000000000000000000000000008152600401611b9c90615595565b60405180910390fd5b611baf60006131ca565b565b611bb9610c5b565b73ffffffffffffffffffffffffffffffffffffffff16611bd7611ca5565b73ffffffffffffffffffffffffffffffffffffffff1614611c2d576040517f08c379a0000000000000000000000000000000000000000000000000000000008152600401611c2490615595565b60405180910390fd5b8060158190555050565b6000600f8281548110611c73577f4e487b7100000000000000000000000000000000000000000000000000000000600052603260045260246000fd5b9060005260206000200160009054906101000a900473ffffffffffffffffffffffffffffffffffffffff169050919050565b6000600a60009054906101000a900473ffffffffffffffffffffffffffffffffffffffff16905090565b606060018054611cde90615a50565b80601f0160208091040260200160405190810160405280929190818152602001828054611d0a90615a50565b8015611d575780601f10611d2c57610100808354040283529160200191611d57565b820191906000526020600020905b815481529060010190602001808311611d3a57829003601f168201915b5050505050905090565b6000600e60008373ffffffffffffffffffffffffffffffffffffffff1673ffffffffffffffffffffffffffffffffffffffff168152602001908152602001600020549050919050565b601960029054906101000a900460ff1681565b601960009054906101000a900460ff1615611e0d576040517f08c379a0000000000000000000000000000000000000000000000000000000008152600401611e04906155b5565b60405180910390fd5b6000611e17611039565b905060008211611e5c576040517f08c379a0000000000000000000000000000000000000000000000000000000008152600401611e53906156d5565b60405180910390fd5b601554821115611ea1576040517f08c379a0000000000000000000000000000000000000000000000000000000008152600401611e9890615535565b60405180910390fd5b6014548282611eb0919061583d565b1115611ef1576040517f08c379a0000000000000000000000000000000000000000000000000000000008152600401611ee890615515565b60405180910390fd5b611ef9611ca5565b73ffffffffffffffffffffffffffffffffffffffff163373ffffffffffffffffffffffffffffffffffffffff16146120765760011515601960029054906101000a900460ff161515141561202557611f50336113db565b611f8f576040517f08c379a0000000000000000000000000000000000000000000000000000000008152600401611f86906156b5565b60405180910390fd5b6000601c60003373ffffffffffffffffffffffffffffffffffffffff1673ffffffffffffffffffffffffffffffffffffffff1681526020019081526020016000205490506016548382611fe2919061583d565b1115612023576040517f08c379a000000000000000000000000000000000000000000000000000000000815260040161201a90615395565b60405180910390fd5b505b8160135461203391906158c4565b341015612075576040517f08c379a000000000000000000000000000000000000000000000000000000000815260040161206c90615655565b60405180910390fd5b5b6000600190505b8281116122b157601c60003373ffffffffffffffffffffffffffffffffffffffff1673ffffffffffffffffffffffffffffffffffffffff16815260200190815260200160002060008154809291906120d490615a82565b91905055506120ee3382846120e9919061583d565b613290565b600060646017544244612101919061583d565b61210b919061583d565b6121159190615acb565b905080601781905550603281101561229d576121666040518060400160405280600781526020017f257320776f6e2100000000000000000000000000000000000000000000000000815250336132ae565b600066038d7ea4c680009050478111156121b5576040517f08c379a00000000000000000000000000000000000000000000000000000000081526004016121ac90615635565b60405180910390fd5b60003373ffffffffffffffffffffffffffffffffffffffff16826040516121db906151b8565b60006040518083038185875af1925050503d8060008114612218576040519150601f19603f3d011682016040523d82523d6000602084013e61221d565b606091505b5050905080612261576040517f08c379a000000000000000000000000000000000000000000000000000000000815260040161225890615415565b60405180910390fd5b7f2e008cac0ce8b90dd9e80248b5f8d05f95d5d25cc6787b754ba5dd09d12052d4338360405161229292919061525d565b60405180910390a150505b5080806122a990615a82565b91505061207d565b505050565b6122be610c5b565b73ffffffffffffffffffffffffffffffffffffffff168273ffffffffffffffffffffffffffffffffffffffff16141561232c576040517f08c379a0000000000000000000000000000000000000000000000000000000008152600401612323906153f5565b60405180910390fd5b8060056000612339610c5b565b73ffffffffffffffffffffffffffffffffffffffff1673ffffffffffffffffffffffffffffffffffffffff16815260200190815260200160002060008473ffffffffffffffffffffffffffffffffffffffff1673ffffffffffffffffffffffffffffffffffffffff16815260200190815260200160002060006101000a81548160ff0219169083151502179055508173ffffffffffffffffffffffffffffffffffffffff166123e6610c5b565b73ffffffffffffffffffffffffffffffffffffffff167f17307eab39ab6107e8899845ad3d59bd9653f200f220920489ca2b5937696c318360405161242b91906152a8565b60405180910390a35050565b61243f610c5b565b73ffffffffffffffffffffffffffffffffffffffff1661245d611ca5565b73ffffffffffffffffffffffffffffffffffffffff16146124b3576040517f08c379a00000000000000000000000000000000000000000000000000000000081526004016124aa90615595565b60405180910390fd5b6001601960016101000a81548160ff021916908315150217905550565b6124e16124db610c5b565b83612e90565b612520576040517f08c379a000000000000000000000000000000000000000000000000000000000815260040161251790615675565b60405180910390fd5b61252c8484848461334a565b50505050565b601a818154811061254257600080fd5b906000526020600020016000915054906101000a900473ffffffffffffffffffffffffffffffffffffffff1681565b60165481565b6011805461258490615a50565b80601f01602080910402602001604051908101604052809291908181526020018280546125b090615a50565b80156125fd5780601f106125d2576101008083540402835291602001916125fd565b820191906000526020600020905b8154815290600101906020018083116125e057829003601f168201915b505050505081565b606061261082612c77565b61264f576040517f08c379a0000000000000000000000000000000000000000000000000000000008152600401612646906155f5565b60405180910390fd5b60001515601960019054906101000a900460ff16151514156126fd576012805461267890615a50565b80601f01602080910402602001604051908101604052809291908181526020018280546126a490615a50565b80156126f15780601f106126c6576101008083540402835291602001916126f1565b820191906000526020600020905b8154815290600101906020018083116126d457829003601f168201915b50505050509050612759565b60006127076133a6565b905060008151116127275760405180602001604052806000815250612755565b8061273184613438565b601160405160200161274593929190615187565b6040516020818303038152906040525b9150505b919050565b6000600d60008373ffffffffffffffffffffffffffffffffffffffff1673ffffffffffffffffffffffffffffffffffffffff168152602001908152602001600020549050919050565b6127af610c5b565b73ffffffffffffffffffffffffffffffffffffffff166127cd611ca5565b73ffffffffffffffffffffffffffffffffffffffff1614612823576040517f08c379a000000000000000000000000000000000000000000000000000000000815260040161281a90615595565b60405180910390fd5b8060168190555050565b60145481565b61283b610c5b565b73ffffffffffffffffffffffffffffffffffffffff16612859611ca5565b73ffffffffffffffffffffffffffffffffffffffff16146128af576040517f08c379a00000000000000000000000000000000000000000000000000000000081526004016128a690615595565b60405180910390fd5b80601190805190602001906128c5929190613edc565b5050565b6000600c54905090565b6000600560008473ffffffffffffffffffffffffffffffffffffffff1673ffffffffffffffffffffffffffffffffffffffff16815260200190815260200160002060008373ffffffffffffffffffffffffffffffffffffffff1673ffffffffffffffffffffffffffffffffffffffff16815260200190815260200160002060009054906101000a900460ff16905092915050565b61296f610c5b565b73ffffffffffffffffffffffffffffffffffffffff1661298d611ca5565b73ffffffffffffffffffffffffffffffffffffffff16146129e3576040517f08c379a00000000000000000000000000000000000000000000000000000000081526004016129da90615595565b60405180910390fd5b601a60006129f19190613f62565b8181601a9190612a02929190613f83565b505050565b612a0f610c5b565b73ffffffffffffffffffffffffffffffffffffffff16612a2d611ca5565b73ffffffffffffffffffffffffffffffffffffffff1614612a83576040517f08c379a0000000000000000000000000000000000000000000000000000000008152600401612a7a90615595565b60405180910390fd5b8060129080519060200190612a99929190613edc565b5050565b612aa5610c5b565b73ffffffffffffffffffffffffffffffffffffffff16612ac3611ca5565b73ffffffffffffffffffffffffffffffffffffffff1614612b19576040517f08c379a0000000000000000000000000000000000000000000000000000000008152600401612b1090615595565b60405180910390fd5b600073ffffffffffffffffffffffffffffffffffffffff168173ffffffffffffffffffffffffffffffffffffffff161415612b89576040517f08c379a0000000000000000000000000000000000000000000000000000000008152600401612b8090615355565b60405180910390fd5b612b92816131ca565b50565b60007f80ac58cd000000000000000000000000000000000000000000000000000000007bffffffffffffffffffffffffffffffffffffffffffffffffffffffff1916827bffffffffffffffffffffffffffffffffffffffffffffffffffffffff19161480612c6057507f5b5e139f000000000000000000000000000000000000000000000000000000007bffffffffffffffffffffffffffffffffffffffffffffffffffffffff1916827bffffffffffffffffffffffffffffffffffffffffffffffffffffffff1916145b80612c705750612c6f826135e5565b5b9050919050565b60008073ffffffffffffffffffffffffffffffffffffffff166002600084815260200190815260200160002060009054906101000a900473ffffffffffffffffffffffffffffffffffffffff1673ffffffffffffffffffffffffffffffffffffffff1614159050919050565b816004600083815260200190815260200160002060006101000a81548173ffffffffffffffffffffffffffffffffffffffff021916908373ffffffffffffffffffffffffffffffffffffffff160217905550808273ffffffffffffffffffffffffffffffffffffffff16612d5683611931565b73ffffffffffffffffffffffffffffffffffffffff167f8c5be1e5ebec7d5bd14f71427d1e84f3dd0314c0f7b2291e5b200ac8c7c3b92560405160405180910390a45050565b80471015612ddf576040517f08c379a0000000000000000000000000000000000000000000000000000000008152600401612dd690615455565b60405180910390fd5b60008273ffffffffffffffffffffffffffffffffffffffff1682604051612e05906151b8565b60006040518083038185875af1925050503d8060008114612e42576040519150601f19603f3d011682016040523d82523d6000602084013e612e47565b606091505b5050905080612e8b576040517f08c379a0000000000000000000000000000000000000000000000000000000008152600401612e8290615435565b60405180910390fd5b505050565b6000612e9b82612c77565b612eda576040517f08c379a0000000000000000000000000000000000000000000000000000000008152600401612ed190615475565b60405180910390fd5b6000612ee583611931565b90508073ffffffffffffffffffffffffffffffffffffffff168473ffffffffffffffffffffffffffffffffffffffff161480612f5457508373ffffffffffffffffffffffffffffffffffffffff16612f3c84610e08565b73ffffffffffffffffffffffffffffffffffffffff16145b80612f655750612f6481856128d3565b5b91505092915050565b8273ffffffffffffffffffffffffffffffffffffffff16612f8e82611931565b73ffffffffffffffffffffffffffffffffffffffff1614612fe4576040517f08c379a0000000000000000000000000000000000000000000000000000000008152600401612fdb906155d5565b60405180910390fd5b600073ffffffffffffffffffffffffffffffffffffffff168273ffffffffffffffffffffffffffffffffffffffff161415613054576040517f08c379a000000000000000000000000000000000000000000000000000000000815260040161304b906153d5565b60405180910390fd5b61305f83838361364f565b61306a600082612ce3565b6001600360008573ffffffffffffffffffffffffffffffffffffffff1673ffffffffffffffffffffffffffffffffffffffff16815260200190815260200160002060008282546130ba919061591e565b925050819055506001600360008473ffffffffffffffffffffffffffffffffffffffff1673ffffffffffffffffffffffffffffffffffffffff1681526020019081526020016000206000828254613111919061583d565b92505081905550816002600083815260200190815260200160002060006101000a81548173ffffffffffffffffffffffffffffffffffffffff021916908373ffffffffffffffffffffffffffffffffffffffff160217905550808273ffffffffffffffffffffffffffffffffffffffff168473ffffffffffffffffffffffffffffffffffffffff167fddf252ad1be2c89b69c2b068fc378daa952ba7f163c4a11628f55a4df523b3ef60405160405180910390a4505050565b6000600a60009054906101000a900473ffffffffffffffffffffffffffffffffffffffff16905081600a60006101000a81548173ffffffffffffffffffffffffffffffffffffffff021916908373ffffffffffffffffffffffffffffffffffffffff1602179055508173ffffffffffffffffffffffffffffffffffffffff168173ffffffffffffffffffffffffffffffffffffffff167f8be0079c531659141344cd1fd0a4f28419497f9722a3daafe3b4186f6b6457e060405160405180910390a35050565b6132aa828260405180602001604052806000815250613763565b5050565b61334682826040516024016132c49291906152e5565b6040516020818303038152906040527f319af333000000000000000000000000000000000000000000000000000000007bffffffffffffffffffffffffffffffffffffffffffffffffffffffff19166020820180517bffffffffffffffffffffffffffffffffffffffffffffffffffffffff83818316178352505050506137be565b5050565b613355848484612f6e565b613361848484846137e7565b6133a0576040517f08c379a000000000000000000000000000000000000000000000000000000000815260040161339790615335565b60405180910390fd5b50505050565b6060601080546133b590615a50565b80601f01602080910402602001604051908101604052809291908181526020018280546133e190615a50565b801561342e5780601f106134035761010080835404028352916020019161342e565b820191906000526020600020905b81548152906001019060200180831161341157829003601f168201915b5050505050905090565b60606000821415613480576040518060400160405280600181526020017f300000000000000000000000000000000000000000000000000000000000000081525090506135e0565b600082905060005b600082146134b257808061349b90615a82565b915050600a826134ab9190615893565b9150613488565b60008167ffffffffffffffff8111156134f4577f4e487b7100000000000000000000000000000000000000000000000000000000600052604160045260246000fd5b6040519080825280601f01601f1916602001820160405280156135265781602001600182028036833780820191505090505b5090505b600085146135d95760018261353f919061591e565b9150600a8561354e9190615acb565b603061355a919061583d565b60f81b818381518110613596577f4e487b7100000000000000000000000000000000000000000000000000000000600052603260045260246000fd5b60200101907effffffffffffffffffffffffffffffffffffffffffffffffffffffffffffff1916908160001a905350600a856135d29190615893565b945061352a565b8093505050505b919050565b60007f01ffc9a7000000000000000000000000000000000000000000000000000000007bffffffffffffffffffffffffffffffffffffffffffffffffffffffff1916827bffffffffffffffffffffffffffffffffffffffffffffffffffffffff1916149050919050565b61365a83838361397e565b600073ffffffffffffffffffffffffffffffffffffffff168373ffffffffffffffffffffffffffffffffffffffff16141561369d5761369881613983565b6136dc565b8173ffffffffffffffffffffffffffffffffffffffff168373ffffffffffffffffffffffffffffffffffffffff16146136db576136da83826139cc565b5b5b600073ffffffffffffffffffffffffffffffffffffffff168273ffffffffffffffffffffffffffffffffffffffff16141561371f5761371a81613b39565b61375e565b8273ffffffffffffffffffffffffffffffffffffffff168273ffffffffffffffffffffffffffffffffffffffff161461375d5761375c8282613c7c565b5b5b505050565b61376d8383613cfb565b61377a60008484846137e7565b6137b9576040517f08c379a00000000000000000000000000000000000000000000000000000000081526004016137b090615335565b60405180910390fd5b505050565b60008151905060006a636f6e736f6c652e6c6f679050602083016000808483855afa5050505050565b60006138088473ffffffffffffffffffffffffffffffffffffffff16613ec9565b15613971578373ffffffffffffffffffffffffffffffffffffffff1663150b7a02613831610c5b565b8786866040518563ffffffff1660e01b81526004016138539493929190615211565b602060405180830381600087803b15801561386d57600080fd5b505af192505050801561389e57506040513d601f19601f8201168201806040525081019061389b919061443f565b60015b613921573d80600081146138ce576040519150601f19603f3d011682016040523d82523d6000602084013e6138d3565b606091505b50600081511415613919576040517f08c379a000000000000000000000000000000000000000000000000000000000815260040161391090615335565b60405180910390fd5b805181602001fd5b63150b7a0260e01b7bffffffffffffffffffffffffffffffffffffffffffffffffffffffff1916817bffffffffffffffffffffffffffffffffffffffffffffffffffffffff191614915050613976565b600190505b949350505050565b505050565b6008805490506009600083815260200190815260200160002081905550600881908060018154018082558091505060019003906000526020600020016000909190919091505550565b600060016139d984611a71565b6139e3919061591e565b9050600060076000848152602001908152602001600020549050818114613ac8576000600660008673ffffffffffffffffffffffffffffffffffffffff1673ffffffffffffffffffffffffffffffffffffffff168152602001908152602001600020600084815260200190815260200160002054905080600660008773ffffffffffffffffffffffffffffffffffffffff1673ffffffffffffffffffffffffffffffffffffffff168152602001908152602001600020600084815260200190815260200160002081905550816007600083815260200190815260200160002081905550505b6007600084815260200190815260200160002060009055600660008573ffffffffffffffffffffffffffffffffffffffff1673ffffffffffffffffffffffffffffffffffffffff16815260200190815260200160002060008381526020019081526020016000206000905550505050565b60006001600880549050613b4d919061591e565b9050600060096000848152602001908152602001600020549050600060088381548110613ba3577f4e487b7100000000000000000000000000000000000000000000000000000000600052603260045260246000fd5b906000526020600020015490508060088381548110613beb577f4e487b7100000000000000000000000000000000000000000000000000000000600052603260045260246000fd5b906000526020600020018190555081600960008381526020019081526020016000208190555060096000858152602001908152602001600020600090556008805480613c60577f4e487b7100000000000000000000000000000000000000000000000000000000600052603160045260246000fd5b6001900381819060005260206000200160009055905550505050565b6000613c8783611a71565b905081600660008573ffffffffffffffffffffffffffffffffffffffff1673ffffffffffffffffffffffffffffffffffffffff168152602001908152602001600020600083815260200190815260200160002081905550806007600084815260200190815260200160002081905550505050565b600073ffffffffffffffffffffffffffffffffffffffff168273ffffffffffffffffffffffffffffffffffffffff161415613d6b576040517f08c379a0000000000000000000000000000000000000000000000000000000008152600401613d6290615555565b60405180910390fd5b613d7481612c77565b15613db4576040517f08c379a0000000000000000000000000000000000000000000000000000000008152600401613dab90615375565b60405180910390fd5b613dc06000838361364f565b6001600360008473ffffffffffffffffffffffffffffffffffffffff1673ffffffffffffffffffffffffffffffffffffffff1681526020019081526020016000206000828254613e10919061583d565b92505081905550816002600083815260200190815260200160002060006101000a81548173ffffffffffffffffffffffffffffffffffffffff021916908373ffffffffffffffffffffffffffffffffffffffff160217905550808273ffffffffffffffffffffffffffffffffffffffff16600073ffffffffffffffffffffffffffffffffffffffff167fddf252ad1be2c89b69c2b068fc378daa952ba7f163c4a11628f55a4df523b3ef60405160405180910390a45050565b600080823b905060008111915050919050565b828054613ee890615a50565b90600052602060002090601f016020900481019282613f0a5760008555613f51565b82601f10613f2357805160ff1916838001178555613f51565b82800160010185558215613f51579182015b82811115613f50578251825591602001919060010190613f35565b5b509050613f5e9190614023565b5090565b5080546000825590600052602060002090810190613f809190614023565b50565b828054828255906000526020600020908101928215614012579160200282015b8281111561401157823573ffffffffffffffffffffffffffffffffffffffff168260006101000a81548173ffffffffffffffffffffffffffffffffffffffff021916908373ffffffffffffffffffffffffffffffffffffffff16021790555091602001919060010190613fa3565b5b50905061401f9190614023565b5090565b5b8082111561403c576000816000905550600101614024565b5090565b600061405361404e84615741565b615710565b90508281526020810184848401111561406b57600080fd5b614076848285615a0e565b509392505050565b600061409161408c84615771565b615710565b9050828152602081018484840111156140a957600080fd5b6140b4848285615a0e565b509392505050565b6000813590506140cb81615bc9565b92915050565b6000813590506140e081615be0565b92915050565b60008083601f8401126140f857600080fd5b8235905067ffffffffffffffff81111561411157600080fd5b60208301915083602082028301111561412957600080fd5b9250929050565b60008135905061413f81615bf7565b92915050565b60008135905061415481615c0e565b92915050565b60008151905061416981615c0e565b92915050565b600082601f83011261418057600080fd5b8135614190848260208601614040565b91505092915050565b600082601f8301126141aa57600080fd5b81356141ba84826020860161407e565b91505092915050565b6000813590506141d281615c25565b92915050565b6000602082840312156141ea57600080fd5b60006141f8848285016140bc565b91505092915050565b60006020828403121561421357600080fd5b6000614221848285016140d1565b91505092915050565b6000806040838503121561423d57600080fd5b600061424b858286016140bc565b925050602061425c858286016140bc565b9150509250929050565b60008060006060848603121561427b57600080fd5b6000614289868287016140bc565b935050602061429a868287016140bc565b92505060406142ab868287016141c3565b9150509250925092565b600080600080608085870312156142cb57600080fd5b60006142d9878288016140bc565b94505060206142ea878288016140bc565b93505060406142fb878288016141c3565b925050606085013567ffffffffffffffff81111561431857600080fd5b6143248782880161416f565b91505092959194509250565b6000806040838503121561434357600080fd5b6000614351858286016140bc565b925050602061436285828601614130565b9150509250929050565b6000806040838503121561437f57600080fd5b600061438d858286016140bc565b925050602061439e858286016141c3565b9150509250929050565b600080602083850312156143bb57600080fd5b600083013567ffffffffffffffff8111156143d557600080fd5b6143e1858286016140e6565b92509250509250929050565b6000602082840312156143ff57600080fd5b600061440d84828501614130565b91505092915050565b60006020828403121561442857600080fd5b600061443684828501614145565b91505092915050565b60006020828403121561445157600080fd5b600061445f8482850161415a565b91505092915050565b60006020828403121561447a57600080fd5b600082013567ffffffffffffffff81111561449457600080fd5b6144a084828501614199565b91505092915050565b6000602082840312156144bb57600080fd5b60006144c9848285016141c3565b91505092915050565b60006144de8383615169565b60208301905092915050565b6144f3816159d8565b82525050565b61450281615952565b82525050565b6000614513826157c6565b61451d81856157f4565b9350614528836157a1565b8060005b8381101561455957815161454088826144d2565b975061454b836157e7565b92505060018101905061452c565b5085935050505092915050565b61456f81615976565b82525050565b6000614580826157d1565b61458a8185615805565b935061459a818560208601615a1d565b6145a381615bb8565b840191505092915050565b60006145b9826157dc565b6145c38185615821565b93506145d3818560208601615a1d565b6145dc81615bb8565b840191505092915050565b60006145f2826157dc565b6145fc8185615832565b935061460c818560208601615a1d565b80840191505092915050565b6000815461462581615a50565b61462f8186615832565b9450600182166000811461464a576001811461465b5761468e565b60ff1983168652818601935061468e565b614664856157b1565b60005b8381101561468657815481890152600182019150602081019050614667565b838801955050505b50505092915050565b60006146a4602b83615821565b91507f455243373231456e756d657261626c653a206f776e657220696e646578206f7560008301527f74206f6620626f756e64730000000000000000000000000000000000000000006020830152604082019050919050565b600061470a603283615821565b91507f4552433732313a207472616e7366657220746f206e6f6e20455243373231526560008301527f63656976657220696d706c656d656e74657200000000000000000000000000006020830152604082019050919050565b6000614770602683615821565b91507f4f776e61626c653a206e6577206f776e657220697320746865207a65726f206160008301527f64647265737300000000000000000000000000000000000000000000000000006020830152604082019050919050565b60006147d6601c83615821565b91507f4552433732313a20746f6b656e20616c7265616479206d696e746564000000006000830152602082019050919050565b6000614816601c83615821565b91507f6d6178204e4654207065722061646472657373206578636565646564000000006000830152602082019050919050565b6000614856602683615821565b91507f5061796d656e7453706c69747465723a206163636f756e7420686173206e6f2060008301527f73686172657300000000000000000000000000000000000000000000000000006020830152604082019050919050565b60006148bc602483615821565b91507f4552433732313a207472616e7366657220746f20746865207a65726f2061646460008301527f72657373000000000000000000000000000000000000000000000000000000006020830152604082019050919050565b6000614922601983615821565b91507f4552433732313a20617070726f766520746f2063616c6c6572000000000000006000830152602082019050919050565b6000614962602783615821565b91507f4661696c656420746f207769746864726177206d6f6e65792066726f6d20636f60008301527f6e74726163742e000000000000000000000000000000000000000000000000006020830152604082019050919050565b60006149c8603a83615821565b91507f416464726573733a20756e61626c6520746f2073656e642076616c75652c207260008301527f6563697069656e74206d617920686176652072657665727465640000000000006020830152604082019050919050565b6000614a2e601d83615821565b91507f416464726573733a20696e73756666696369656e742062616c616e63650000006000830152602082019050919050565b6000614a6e602c83615821565b91507f4552433732313a206f70657261746f7220717565727920666f72206e6f6e657860008301527f697374656e7420746f6b656e00000000000000000000000000000000000000006020830152604082019050919050565b6000614ad4602b83615821565b91507f5061796d656e7453706c69747465723a206163636f756e74206973206e6f742060008301527f647565207061796d656e740000000000000000000000000000000000000000006020830152604082019050919050565b6000614b3a603883615821565b91507f4552433732313a20617070726f76652063616c6c6572206973206e6f74206f7760008301527f6e6572206e6f7220617070726f76656420666f7220616c6c00000000000000006020830152604082019050919050565b6000614ba0602a83615821565b91507f4552433732313a2062616c616e636520717565727920666f7220746865207a6560008301527f726f2061646472657373000000000000000000000000000000000000000000006020830152604082019050919050565b6000614c06602983615821565b91507f4552433732313a206f776e657220717565727920666f72206e6f6e657869737460008301527f656e7420746f6b656e00000000000000000000000000000000000000000000006020830152604082019050919050565b6000614c6c601683615821565b91507f6d6178204e4654206c696d6974206578636565646564000000000000000000006000830152602082019050919050565b6000614cac602483615821565b91507f6d6178206d696e7420616d6f756e74207065722073657373696f6e206578636560008301527f65646564000000000000000000000000000000000000000000000000000000006020830152604082019050919050565b6000614d12602083615821565b91507f4552433732313a206d696e7420746f20746865207a65726f20616464726573736000830152602082019050919050565b6000614d52602c83615821565b91507f4552433732313a20617070726f76656420717565727920666f72206e6f6e657860008301527f697374656e7420746f6b656e00000000000000000000000000000000000000006020830152604082019050919050565b6000614db8602083615821565b91507f4f776e61626c653a2063616c6c6572206973206e6f7420746865206f776e65726000830152602082019050919050565b6000614df8601683615821565b91507f74686520636f6e747261637420697320706175736564000000000000000000006000830152602082019050919050565b6000614e38602983615821565b91507f4552433732313a207472616e73666572206f6620746f6b656e2074686174206960008301527f73206e6f74206f776e00000000000000000000000000000000000000000000006020830152604082019050919050565b6000614e9e602f83615821565b91507f4552433732314d657461646174613a2055524920717565727920666f72206e6f60008301527f6e6578697374656e7420746f6b656e00000000000000000000000000000000006020830152604082019050919050565b6000614f04602183615821565b91507f4552433732313a20617070726f76616c20746f2063757272656e74206f776e6560008301527f72000000000000000000000000000000000000000000000000000000000000006020830152604082019050919050565b6000614f6a603583615821565b91507f547279696e6720746f207769746864726177206d6f7265206d6f6e657920746860008301527f616e207468657920636f6e7472616374206861732e00000000000000000000006020830152604082019050919050565b6000614fd0600083615816565b9150600082019050919050565b6000614fea601283615821565b91507f696e73756666696369656e742066756e647300000000000000000000000000006000830152602082019050919050565b600061502a603183615821565b91507f4552433732313a207472616e736665722063616c6c6572206973206e6f74206f60008301527f776e6572206e6f7220617070726f7665640000000000000000000000000000006020830152604082019050919050565b6000615090602c83615821565b91507f455243373231456e756d657261626c653a20676c6f62616c20696e646578206f60008301527f7574206f6620626f756e647300000000000000000000000000000000000000006020830152604082019050919050565b60006150f6601783615821565b91507f75736572206973206e6f742077686974656c69737465640000000000000000006000830152602082019050919050565b6000615136601b83615821565b91507f6e65656420746f206d696e74206174206c656173742031204e465400000000006000830152602082019050919050565b615172816159ce565b82525050565b615181816159ce565b82525050565b600061519382866145e7565b915061519f82856145e7565b91506151ab8284614618565b9150819050949350505050565b60006151c382614fc3565b9150819050919050565b60006020820190506151e260008301846144f9565b92915050565b60006040820190506151fd60008301856144ea565b61520a6020830184615178565b9392505050565b600060808201905061522660008301876144f9565b61523360208301866144f9565b6152406040830185615178565b81810360608301526152528184614575565b905095945050505050565b600060408201905061527260008301856144f9565b61527f6020830184615178565b9392505050565b600060208201905081810360008301526152a08184614508565b905092915050565b60006020820190506152bd6000830184614566565b92915050565b600060208201905081810360008301526152dd81846145ae565b905092915050565b600060408201905081810360008301526152ff81856145ae565b905061530e60208301846144f9565b9392505050565b6000602082019050818103600083015261532e81614697565b9050919050565b6000602082019050818103600083015261534e816146fd565b9050919050565b6000602082019050818103600083015261536e81614763565b9050919050565b6000602082019050818103600083015261538e816147c9565b9050919050565b600060208201905081810360008301526153ae81614809565b9050919050565b600060208201905081810360008301526153ce81614849565b9050919050565b600060208201905081810360008301526153ee816148af565b9050919050565b6000602082019050818103600083015261540e81614915565b9050919050565b6000602082019050818103600083015261542e81614955565b9050919050565b6000602082019050818103600083015261544e816149bb565b9050919050565b6000602082019050818103600083015261546e81614a21565b9050919050565b6000602082019050818103600083015261548e81614a61565b9050919050565b600060208201905081810360008301526154ae81614ac7565b9050919050565b600060208201905081810360008301526154ce81614b2d565b9050919050565b600060208201905081810360008301526154ee81614b93565b9050919050565b6000602082019050818103600083015261550e81614bf9565b9050919050565b6000602082019050818103600083015261552e81614c5f565b9050919050565b6000602082019050818103600083015261554e81614c9f565b9050919050565b6000602082019050818103600083015261556e81614d05565b9050919050565b6000602082019050818103600083015261558e81614d45565b9050919050565b600060208201905081810360008301526155ae81614dab565b9050919050565b600060208201905081810360008301526155ce81614deb565b9050919050565b600060208201905081810360008301526155ee81614e2b565b9050919050565b6000602082019050818103600083015261560e81614e91565b9050919050565b6000602082019050818103600083015261562e81614ef7565b9050919050565b6000602082019050818103600083015261564e81614f5d565b9050919050565b6000602082019050818103600083015261566e81614fdd565b9050919050565b6000602082019050818103600083015261568e8161501d565b9050919050565b600060208201905081810360008301526156ae81615083565b9050919050565b600060208201905081810360008301526156ce816150e9565b9050919050565b600060208201905081810360008301526156ee81615129565b9050919050565b600060208201905061570a6000830184615178565b92915050565b6000604051905081810181811067ffffffffffffffff8211171561573757615736615b89565b5b8060405250919050565b600067ffffffffffffffff82111561575c5761575b615b89565b5b601f19601f8301169050602081019050919050565b600067ffffffffffffffff82111561578c5761578b615b89565b5b601f19601f8301169050602081019050919050565b6000819050602082019050919050565b60008190508160005260206000209050919050565b600081519050919050565b600081519050919050565b600081519050919050565b6000602082019050919050565b600082825260208201905092915050565b600082825260208201905092915050565b600081905092915050565b600082825260208201905092915050565b600081905092915050565b6000615848826159ce565b9150615853836159ce565b9250827fffffffffffffffffffffffffffffffffffffffffffffffffffffffffffffffff0382111561588857615887615afc565b5b828201905092915050565b600061589e826159ce565b91506158a9836159ce565b9250826158b9576158b8615b2b565b5b828204905092915050565b60006158cf826159ce565b91506158da836159ce565b9250817fffffffffffffffffffffffffffffffffffffffffffffffffffffffffffffffff048311821515161561591357615912615afc565b5b828202905092915050565b6000615929826159ce565b9150615934836159ce565b92508282101561594757615946615afc565b5b828203905092915050565b600061595d826159ae565b9050919050565b600061596f826159ae565b9050919050565b60008115159050919050565b60007fffffffff0000000000000000000000000000000000000000000000000000000082169050919050565b600073ffffffffffffffffffffffffffffffffffffffff82169050919050565b6000819050919050565b60006159e3826159ea565b9050919050565b60006159f5826159fc565b9050919050565b6000615a07826159ae565b9050919050565b82818337600083830152505050565b60005b83811015615a3b578082015181840152602081019050615a20565b83811115615a4a576000848401525b50505050565b60006002820490506001821680615a6857607f821691505b60208210811415615a7c57615a7b615b5a565b5b50919050565b6000615a8d826159ce565b91507fffffffffffffffffffffffffffffffffffffffffffffffffffffffffffffffff821415615ac057615abf615afc565b5b600182019050919050565b6000615ad6826159ce565b9150615ae1836159ce565b925082615af157615af0615b2b565b5b828206905092915050565b7f4e487b7100000000000000000000000000000000000000000000000000000000600052601160045260246000fd5b7f4e487b7100000000000000000000000000000000000000000000000000000000600052601260045260246000fd5b7f4e487b7100000000000000000000000000000000000000000000000000000000600052602260045260246000fd5b7f4e487b7100000000000000000000000000000000000000000000000000000000600052604160045260246000fd5b6000601f19601f8301169050919050565b615bd281615952565b8114615bdd57600080fd5b50565b615be981615964565b8114615bf457600080fd5b50565b615c0081615976565b8114615c0b57600080fd5b50565b615c1781615982565b8114615c2257600080fd5b50565b615c2e816159ce565b8114615c3957600080fd5b5056fea26469706673582212204404f3869777d6222dc42b62bf1c44943713599480597ac7b38e5e46f14406ae64736f6c63430008000033",
  "linkReferences": {},
  "deployedLinkReferences": {}
}