{
  "_format": "hh-sol-artifact-1",
  "contractName": "testNFT",
  "sourceName": "contracts/testNFT.sol",
  "abi": [
    {
      "inputs": [
        {
          "internalType": "string",
          "name": "_name",
          "type": "string"
        },
        {
          "internalType": "string",
          "name": "_symbol",
          "type": "string"
        },
        {
          "internalType": "string",
          "name": "_initBaseURI",
          "type": "string"
        },
        {
          "internalType": "string",
          "name": "_initNotRevealedUri",
          "type": "string"
        }
      ],
      "stateMutability": "payable",
      "type": "constructor"
    },
    {
      "anonymous": false,
      "inputs": [
        {
          "indexed": true,
          "internalType": "address",
          "name": "owner",
          "type": "address"
        },
        {
          "indexed": true,
          "internalType": "address",
          "name": "approved",
          "type": "address"
        },
        {
          "indexed": true,
          "internalType": "uint256",
          "name": "tokenId",
          "type": "uint256"
        }
      ],
      "name": "Approval",
      "type": "event"
    },
    {
      "anonymous": false,
      "inputs": [
        {
          "indexed": true,
          "internalType": "address",
          "name": "owner",
          "type": "address"
        },
        {
          "indexed": true,
          "internalType": "address",
          "name": "operator",
          "type": "address"
        },
        {
          "indexed": false,
          "internalType": "bool",
          "name": "approved",
          "type": "bool"
        }
      ],
      "name": "ApprovalForAll",
      "type": "event"
    },
    {
      "anonymous": false,
      "inputs": [
        {
          "indexed": true,
          "internalType": "address",
          "name": "previousOwner",
          "type": "address"
        },
        {
          "indexed": true,
          "internalType": "address",
          "name": "newOwner",
          "type": "address"
        }
      ],
      "name": "OwnershipTransferred",
      "type": "event"
    },
    {
      "anonymous": false,
      "inputs": [
        {
          "indexed": true,
          "internalType": "address",
          "name": "from",
          "type": "address"
        },
        {
          "indexed": true,
          "internalType": "address",
          "name": "to",
          "type": "address"
        },
        {
          "indexed": true,
          "internalType": "uint256",
          "name": "tokenId",
          "type": "uint256"
        }
      ],
      "name": "Transfer",
      "type": "event"
    },
    {
      "anonymous": false,
      "inputs": [
        {
          "indexed": false,
          "internalType": "address",
          "name": "sender",
          "type": "address"
        },
        {
          "indexed": false,
          "internalType": "uint256",
          "name": "prize",
          "type": "uint256"
        }
      ],
      "name": "WinningMint",
      "type": "event"
    },
    {
      "inputs": [
        {
          "internalType": "address",
          "name": "",
          "type": "address"
        }
      ],
      "name": "addressMintedBalance",
      "outputs": [
        {
          "internalType": "uint256",
          "name": "",
          "type": "uint256"
        }
      ],
      "stateMutability": "view",
      "type": "function"
    },
    {
      "inputs": [
        {
          "internalType": "address",
          "name": "to",
          "type": "address"
        },
        {
          "internalType": "uint256",
          "name": "tokenId",
          "type": "uint256"
        }
      ],
      "name": "approve",
      "outputs": [],
      "stateMutability": "nonpayable",
      "type": "function"
    },
    {
      "inputs": [
        {
          "internalType": "address",
          "name": "owner",
          "type": "address"
        }
      ],
      "name": "balanceOf",
      "outputs": [
        {
          "internalType": "uint256",
          "name": "",
          "type": "uint256"
        }
      ],
      "stateMutability": "view",
      "type": "function"
    },
    {
      "inputs": [],
      "name": "baseExtension",
      "outputs": [
        {
          "internalType": "string",
          "name": "",
          "type": "string"
        }
      ],
      "stateMutability": "view",
      "type": "function"
    },
    {
      "inputs": [],
      "name": "baseURI",
      "outputs": [
        {
          "internalType": "string",
          "name": "",
          "type": "string"
        }
      ],
      "stateMutability": "view",
      "type": "function"
    },
    {
      "inputs": [],
      "name": "cost",
      "outputs": [
        {
          "internalType": "uint256",
          "name": "",
          "type": "uint256"
        }
      ],
      "stateMutability": "view",
      "type": "function"
    },
    {
      "inputs": [
        {
          "internalType": "uint256",
          "name": "tokenId",
          "type": "uint256"
        }
      ],
      "name": "getApproved",
      "outputs": [
        {
          "internalType": "address",
          "name": "",
          "type": "address"
        }
      ],
      "stateMutability": "view",
      "type": "function"
    },
    {
      "inputs": [
        {
          "internalType": "address",
          "name": "owner",
          "type": "address"
        },
        {
          "internalType": "address",
          "name": "operator",
          "type": "address"
        }
      ],
      "name": "isApprovedForAll",
      "outputs": [
        {
          "internalType": "bool",
          "name": "",
          "type": "bool"
        }
      ],
      "stateMutability": "view",
      "type": "function"
    },
    {
      "inputs": [
        {
          "internalType": "address",
          "name": "_user",
          "type": "address"
        }
      ],
      "name": "isWhitelisted",
      "outputs": [
        {
          "internalType": "bool",
          "name": "",
          "type": "bool"
        }
      ],
      "stateMutability": "view",
      "type": "function"
    },
    {
      "inputs": [],
      "name": "maxMintAmount",
      "outputs": [
        {
          "internalType": "uint256",
          "name": "",
          "type": "uint256"
        }
      ],
      "stateMutability": "view",
      "type": "function"
    },
    {
      "inputs": [],
      "name": "maxSupply",
      "outputs": [
        {
          "internalType": "uint256",
          "name": "",
          "type": "uint256"
        }
      ],
      "stateMutability": "view",
      "type": "function"
    },
    {
      "inputs": [
        {
          "internalType": "uint256",
          "name": "_mintAmount",
          "type": "uint256"
        }
      ],
      "name": "mint",
      "outputs": [],
      "stateMutability": "payable",
      "type": "function"
    },
    {
      "inputs": [],
      "name": "name",
      "outputs": [
        {
          "internalType": "string",
          "name": "",
          "type": "string"
        }
      ],
      "stateMutability": "view",
      "type": "function"
    },
    {
      "inputs": [],
      "name": "nftPerAddressLimit",
      "outputs": [
        {
          "internalType": "uint256",
          "name": "",
          "type": "uint256"
        }
      ],
      "stateMutability": "view",
      "type": "function"
    },
    {
      "inputs": [],
      "name": "notRevealedUri",
      "outputs": [
        {
          "internalType": "string",
          "name": "",
          "type": "string"
        }
      ],
      "stateMutability": "view",
      "type": "function"
    },
    {
      "inputs": [],
      "name": "onlyWhitelisted",
      "outputs": [
        {
          "internalType": "bool",
          "name": "",
          "type": "bool"
        }
      ],
      "stateMutability": "view",
      "type": "function"
    },
    {
      "inputs": [],
      "name": "owner",
      "outputs": [
        {
          "internalType": "address",
          "name": "",
          "type": "address"
        }
      ],
      "stateMutability": "view",
      "type": "function"
    },
    {
      "inputs": [
        {
          "internalType": "uint256",
          "name": "tokenId",
          "type": "uint256"
        }
      ],
      "name": "ownerOf",
      "outputs": [
        {
          "internalType": "address",
          "name": "",
          "type": "address"
        }
      ],
      "stateMutability": "view",
      "type": "function"
    },
    {
      "inputs": [
        {
          "internalType": "bool",
          "name": "_state",
          "type": "bool"
        }
      ],
      "name": "pause",
      "outputs": [],
      "stateMutability": "nonpayable",
      "type": "function"
    },
    {
      "inputs": [],
      "name": "paused",
      "outputs": [
        {
          "internalType": "bool",
          "name": "",
          "type": "bool"
        }
      ],
      "stateMutability": "view",
      "type": "function"
    },
    {
      "inputs": [],
      "name": "renounceOwnership",
      "outputs": [],
      "stateMutability": "nonpayable",
      "type": "function"
    },
    {
      "inputs": [],
      "name": "reveal",
      "outputs": [],
      "stateMutability": "nonpayable",
      "type": "function"
    },
    {
      "inputs": [],
      "name": "revealed",
      "outputs": [
        {
          "internalType": "bool",
          "name": "",
          "type": "bool"
        }
      ],
      "stateMutability": "view",
      "type": "function"
    },
    {
      "inputs": [
        {
          "internalType": "address",
          "name": "from",
          "type": "address"
        },
        {
          "internalType": "address",
          "name": "to",
          "type": "address"
        },
        {
          "internalType": "uint256",
          "name": "tokenId",
          "type": "uint256"
        }
      ],
      "name": "safeTransferFrom",
      "outputs": [],
      "stateMutability": "nonpayable",
      "type": "function"
    },
    {
      "inputs": [
        {
          "internalType": "address",
          "name": "from",
          "type": "address"
        },
        {
          "internalType": "address",
          "name": "to",
          "type": "address"
        },
        {
          "internalType": "uint256",
          "name": "tokenId",
          "type": "uint256"
        },
        {
          "internalType": "bytes",
          "name": "_data",
          "type": "bytes"
        }
      ],
      "name": "safeTransferFrom",
      "outputs": [],
      "stateMutability": "nonpayable",
      "type": "function"
    },
    {
      "inputs": [
        {
          "internalType": "address",
          "name": "operator",
          "type": "address"
        },
        {
          "internalType": "bool",
          "name": "approved",
          "type": "bool"
        }
      ],
      "name": "setApprovalForAll",
      "outputs": [],
      "stateMutability": "nonpayable",
      "type": "function"
    },
    {
      "inputs": [
        {
          "internalType": "string",
          "name": "_newBaseExtension",
          "type": "string"
        }
      ],
      "name": "setBaseExtension",
      "outputs": [],
      "stateMutability": "nonpayable",
      "type": "function"
    },
    {
      "inputs": [
        {
          "internalType": "string",
          "name": "_newBaseURI",
          "type": "string"
        }
      ],
      "name": "setBaseURI",
      "outputs": [],
      "stateMutability": "nonpayable",
      "type": "function"
    },
    {
      "inputs": [
        {
          "internalType": "uint256",
          "name": "_newCost",
          "type": "uint256"
        }
      ],
      "name": "setCost",
      "outputs": [],
      "stateMutability": "nonpayable",
      "type": "function"
    },
    {
      "inputs": [
        {
          "internalType": "uint256",
          "name": "_limit",
          "type": "uint256"
        }
      ],
      "name": "setNftPerAddressLimit",
      "outputs": [],
      "stateMutability": "nonpayable",
      "type": "function"
    },
    {
      "inputs": [
        {
          "internalType": "string",
          "name": "_notRevealedURI",
          "type": "string"
        }
      ],
      "name": "setNotRevealedURI",
      "outputs": [],
      "stateMutability": "nonpayable",
      "type": "function"
    },
    {
      "inputs": [
        {
          "internalType": "bool",
          "name": "_state",
          "type": "bool"
        }
      ],
      "name": "setOnlyWhitelisted",
      "outputs": [],
      "stateMutability": "nonpayable",
      "type": "function"
    },
    {
      "inputs": [
        {
          "internalType": "uint256",
          "name": "_newmaxMintAmount",
          "type": "uint256"
        }
      ],
      "name": "setmaxMintAmount",
      "outputs": [],
      "stateMutability": "nonpayable",
      "type": "function"
    },
    {
      "inputs": [
        {
          "internalType": "bytes4",
          "name": "interfaceId",
          "type": "bytes4"
        }
      ],
      "name": "supportsInterface",
      "outputs": [
        {
          "internalType": "bool",
          "name": "",
          "type": "bool"
        }
      ],
      "stateMutability": "view",
      "type": "function"
    },
    {
      "inputs": [],
      "name": "symbol",
      "outputs": [
        {
          "internalType": "string",
          "name": "",
          "type": "string"
        }
      ],
      "stateMutability": "view",
      "type": "function"
    },
    {
      "inputs": [
        {
          "internalType": "uint256",
          "name": "index",
          "type": "uint256"
        }
      ],
      "name": "tokenByIndex",
      "outputs": [
        {
          "internalType": "uint256",
          "name": "",
          "type": "uint256"
        }
      ],
      "stateMutability": "view",
      "type": "function"
    },
    {
      "inputs": [
        {
          "internalType": "address",
          "name": "owner",
          "type": "address"
        },
        {
          "internalType": "uint256",
          "name": "index",
          "type": "uint256"
        }
      ],
      "name": "tokenOfOwnerByIndex",
      "outputs": [
        {
          "internalType": "uint256",
          "name": "",
          "type": "uint256"
        }
      ],
      "stateMutability": "view",
      "type": "function"
    },
    {
      "inputs": [
        {
          "internalType": "uint256",
          "name": "tokenId",
          "type": "uint256"
        }
      ],
      "name": "tokenURI",
      "outputs": [
        {
          "internalType": "string",
          "name": "",
          "type": "string"
        }
      ],
      "stateMutability": "view",
      "type": "function"
    },
    {
      "inputs": [],
      "name": "totalSupply",
      "outputs": [
        {
          "internalType": "uint256",
          "name": "",
          "type": "uint256"
        }
      ],
      "stateMutability": "view",
      "type": "function"
    },
    {
      "inputs": [
        {
          "internalType": "address",
          "name": "from",
          "type": "address"
        },
        {
          "internalType": "address",
          "name": "to",
          "type": "address"
        },
        {
          "internalType": "uint256",
          "name": "tokenId",
          "type": "uint256"
        }
      ],
      "name": "transferFrom",
      "outputs": [],
      "stateMutability": "nonpayable",
      "type": "function"
    },
    {
      "inputs": [
        {
          "internalType": "address",
          "name": "newOwner",
          "type": "address"
        }
      ],
      "name": "transferOwnership",
      "outputs": [],
      "stateMutability": "nonpayable",
      "type": "function"
    },
    {
      "inputs": [
        {
          "internalType": "address",
          "name": "_owner",
          "type": "address"
        }
      ],
      "name": "walletOfOwner",
      "outputs": [
        {
          "internalType": "uint256[]",
          "name": "",
          "type": "uint256[]"
        }
      ],
      "stateMutability": "view",
      "type": "function"
    },
    {
      "inputs": [
        {
          "internalType": "address[]",
          "name": "_users",
          "type": "address[]"
        }
      ],
      "name": "whitelistUsers",
      "outputs": [],
      "stateMutability": "nonpayable",
      "type": "function"
    },
    {
      "inputs": [
        {
          "internalType": "uint256",
          "name": "",
          "type": "uint256"
        }
      ],
      "name": "whitelistedAddresses",
      "outputs": [
        {
          "internalType": "address",
          "name": "",
          "type": "address"
        }
      ],
      "stateMutability": "view",
      "type": "function"
    },
    {
      "inputs": [],
      "name": "withdraw",
      "outputs": [],
      "stateMutability": "payable",
      "type": "function"
    }
  ],
  "bytecode": "0x60806040526040518060400160405280600581526020017f2e6a736f6e000000000000000000000000000000000000000000000000000000815250600c908051906020019062000051929190620003b2565b5066038d7ea4c68000600e556096600f55600a60105560056011556000601360006101000a81548160ff0219169083151502179055506000601360016101000a81548160ff0219169083151502179055506001601360026101000a81548160ff02191690831515021790555060405162005aa138038062005aa18339818101604052810190620000e29190620004d4565b83838160009080519060200190620000fc929190620003b2565b50806001908051906020019062000115929190620003b2565b505050620001386200012c6200016460201b60201c565b6200016c60201b60201c565b62000149826200023260201b60201c565b6200015a81620002dd60201b60201c565b505050506200074a565b600033905090565b6000600a60009054906101000a900473ffffffffffffffffffffffffffffffffffffffff16905081600a60006101000a81548173ffffffffffffffffffffffffffffffffffffffff021916908373ffffffffffffffffffffffffffffffffffffffff1602179055508173ffffffffffffffffffffffffffffffffffffffff168173ffffffffffffffffffffffffffffffffffffffff167f8be0079c531659141344cd1fd0a4f28419497f9722a3daafe3b4186f6b6457e060405160405180910390a35050565b620002426200016460201b60201c565b73ffffffffffffffffffffffffffffffffffffffff16620002686200038860201b60201c565b73ffffffffffffffffffffffffffffffffffffffff1614620002c1576040517f08c379a0000000000000000000000000000000000000000000000000000000008152600401620002b890620005e6565b60405180910390fd5b80600b9080519060200190620002d9929190620003b2565b5050565b620002ed6200016460201b60201c565b73ffffffffffffffffffffffffffffffffffffffff16620003136200038860201b60201c565b73ffffffffffffffffffffffffffffffffffffffff16146200036c576040517f08c379a00000000000000000000000000000000000000000000000000000000081526004016200036390620005e6565b60405180910390fd5b80600d908051906020019062000384929190620003b2565b5050565b6000600a60009054906101000a900473ffffffffffffffffffffffffffffffffffffffff16905090565b828054620003c090620006b6565b90600052602060002090601f016020900481019282620003e4576000855562000430565b82601f10620003ff57805160ff191683800117855562000430565b8280016001018555821562000430579182015b828111156200042f57825182559160200191906001019062000412565b5b5090506200043f919062000443565b5090565b5b808211156200045e57600081600090555060010162000444565b5090565b60006200047962000473846200063c565b62000608565b9050828152602081018484840111156200049257600080fd5b6200049f84828562000680565b509392505050565b600082601f830112620004b957600080fd5b8151620004cb84826020860162000462565b91505092915050565b60008060008060808587031215620004eb57600080fd5b600085015167ffffffffffffffff8111156200050657600080fd5b6200051487828801620004a7565b945050602085015167ffffffffffffffff8111156200053257600080fd5b6200054087828801620004a7565b935050604085015167ffffffffffffffff8111156200055e57600080fd5b6200056c87828801620004a7565b925050606085015167ffffffffffffffff8111156200058a57600080fd5b6200059887828801620004a7565b91505092959194509250565b6000620005b36020836200066f565b91507f4f776e61626c653a2063616c6c6572206973206e6f7420746865206f776e65726000830152602082019050919050565b600060208201905081810360008301526200060181620005a4565b9050919050565b6000604051905081810181811067ffffffffffffffff821117156200063257620006316200071b565b5b8060405250919050565b600067ffffffffffffffff8211156200065a57620006596200071b565b5b601f19601f8301169050602081019050919050565b600082825260208201905092915050565b60005b83811015620006a057808201518184015260208101905062000683565b83811115620006b0576000848401525b50505050565b60006002820490506001821680620006cf57607f821691505b60208210811415620006e657620006e5620006ec565b5b50919050565b7f4e487b7100000000000000000000000000000000000000000000000000000000600052602260045260246000fd5b7f4e487b7100000000000000000000000000000000000000000000000000000000600052604160045260246000fd5b615347806200075a6000396000f3fe6080604052600436106102725760003560e01c80636352211e1161014f578063b88d4fde116100c1578063d5abeb011161007a578063d5abeb011461095c578063da3ef23f14610987578063e985e9c5146109b0578063edec5f27146109ed578063f2c4ce1e14610a16578063f2fde38b14610a3f57610272565b8063b88d4fde1461083a578063ba4e5c4914610863578063ba7d2c76146108a0578063c6682862146108cb578063c87b56dd146108f6578063d0eb26b01461093357610272565b80638da5cb5b116101135780638da5cb5b1461075d57806395d89b41146107885780639c70b512146107b3578063a0712d68146107de578063a22cb465146107fa578063a475b5dd1461082357610272565b80636352211e146106785780636c0360eb146106b557806370a08231146106e0578063715018a61461071d5780637f00c7a61461073457610272565b80632f745c59116101e8578063438b6300116101ac578063438b63001461055657806344a0d68a146105935780634f6ccce7146105bc57806351830227146105f957806355f804b3146106245780635c975abb1461064d57610272565b80632f745c59146104805780633af32abf146104bd5780633c952764146104fa5780633ccfd60b1461052357806342842e0e1461052d57610272565b8063095ea7b31161023a578063095ea7b31461037057806313faede61461039957806318160ddd146103c457806318cae269146103ef578063239c70ae1461042c57806323b872dd1461045757610272565b806301ffc9a71461027757806302329a29146102b457806306fdde03146102dd578063081812fc14610308578063081c8c4414610345575b600080fd5b34801561028357600080fd5b5061029e60048036038101906102999190613d74565b610a68565b6040516102ab9190614a5c565b60405180910390f35b3480156102c057600080fd5b506102db60048036038101906102d69190613d4b565b610ae2565b005b3480156102e957600080fd5b506102f2610b7b565b6040516102ff9190614a77565b60405180910390f35b34801561031457600080fd5b5061032f600480360381019061032a9190613e07565b610c0d565b60405161033c91906149aa565b60405180910390f35b34801561035157600080fd5b5061035a610c92565b6040516103679190614a77565b60405180910390f35b34801561037c57600080fd5b5061039760048036038101906103929190613cca565b610d20565b005b3480156103a557600080fd5b506103ae610e38565b6040516103bb9190614e29565b60405180910390f35b3480156103d057600080fd5b506103d9610e3e565b6040516103e69190614e29565b60405180910390f35b3480156103fb57600080fd5b5061041660048036038101906104119190613b5f565b610e4b565b6040516104239190614e29565b60405180910390f35b34801561043857600080fd5b50610441610e63565b60405161044e9190614e29565b60405180910390f35b34801561046357600080fd5b5061047e60048036038101906104799190613bc4565b610e69565b005b34801561048c57600080fd5b506104a760048036038101906104a29190613cca565b610ec9565b6040516104b49190614e29565b60405180910390f35b3480156104c957600080fd5b506104e460048036038101906104df9190613b5f565b610f6e565b6040516104f19190614a5c565b60405180910390f35b34801561050657600080fd5b50610521600480360381019061051c9190613d4b565b611043565b005b61052b6110dc565b005b34801561053957600080fd5b50610554600480360381019061054f9190613bc4565b6111d1565b005b34801561056257600080fd5b5061057d60048036038101906105789190613b5f565b6111f1565b60405161058a9190614a3a565b60405180910390f35b34801561059f57600080fd5b506105ba60048036038101906105b59190613e07565b6112eb565b005b3480156105c857600080fd5b506105e360048036038101906105de9190613e07565b611371565b6040516105f09190614e29565b60405180910390f35b34801561060557600080fd5b5061060e611408565b60405161061b9190614a5c565b60405180910390f35b34801561063057600080fd5b5061064b60048036038101906106469190613dc6565b61141b565b005b34801561065957600080fd5b506106626114b1565b60405161066f9190614a5c565b60405180910390f35b34801561068457600080fd5b5061069f600480360381019061069a9190613e07565b6114c4565b6040516106ac91906149aa565b60405180910390f35b3480156106c157600080fd5b506106ca611576565b6040516106d79190614a77565b60405180910390f35b3480156106ec57600080fd5b5061070760048036038101906107029190613b5f565b611604565b6040516107149190614e29565b60405180910390f35b34801561072957600080fd5b506107326116bc565b005b34801561074057600080fd5b5061075b60048036038101906107569190613e07565b611744565b005b34801561076957600080fd5b506107726117ca565b60405161077f91906149aa565b60405180910390f35b34801561079457600080fd5b5061079d6117f4565b6040516107aa9190614a77565b60405180910390f35b3480156107bf57600080fd5b506107c8611886565b6040516107d59190614a5c565b60405180910390f35b6107f860048036038101906107f39190613e07565b611899565b005b34801561080657600080fd5b50610821600480360381019061081c9190613c8e565b611d91565b005b34801561082f57600080fd5b50610838611f12565b005b34801561084657600080fd5b50610861600480360381019061085c9190613c13565b611fab565b005b34801561086f57600080fd5b5061088a60048036038101906108859190613e07565b61200d565b60405161089791906149aa565b60405180910390f35b3480156108ac57600080fd5b506108b561204c565b6040516108c29190614e29565b60405180910390f35b3480156108d757600080fd5b506108e0612052565b6040516108ed9190614a77565b60405180910390f35b34801561090257600080fd5b5061091d60048036038101906109189190613e07565b6120e0565b60405161092a9190614a77565b60405180910390f35b34801561093f57600080fd5b5061095a60048036038101906109559190613e07565b612239565b005b34801561096857600080fd5b506109716122bf565b60405161097e9190614e29565b60405180910390f35b34801561099357600080fd5b506109ae60048036038101906109a99190613dc6565b6122c5565b005b3480156109bc57600080fd5b506109d760048036038101906109d29190613b88565b61235b565b6040516109e49190614a5c565b60405180910390f35b3480156109f957600080fd5b50610a146004803603810190610a0f9190613d06565b6123ef565b005b348015610a2257600080fd5b50610a3d6004803603810190610a389190613dc6565b61248f565b005b348015610a4b57600080fd5b50610a666004803603810190610a619190613b5f565b612525565b005b60007f780e9d63000000000000000000000000000000000000000000000000000000007bffffffffffffffffffffffffffffffffffffffffffffffffffffffff1916827bffffffffffffffffffffffffffffffffffffffffffffffffffffffff19161480610adb5750610ada8261261d565b5b9050919050565b610aea6126ff565b73ffffffffffffffffffffffffffffffffffffffff16610b086117ca565b73ffffffffffffffffffffffffffffffffffffffff1614610b5e576040517f08c379a0000000000000000000000000000000000000000000000000000000008152600401610b5590614cc9565b60405180910390fd5b80601360006101000a81548160ff02191690831515021790555050565b606060008054610b8a9061513c565b80601f0160208091040260200160405190810160405280929190818152602001828054610bb69061513c565b8015610c035780601f10610bd857610100808354040283529160200191610c03565b820191906000526020600020905b815481529060010190602001808311610be657829003601f168201915b5050505050905090565b6000610c1882612707565b610c57576040517f08c379a0000000000000000000000000000000000000000000000000000000008152600401610c4e90614ca9565b60405180910390fd5b6004600083815260200190815260200160002060009054906101000a900473ffffffffffffffffffffffffffffffffffffffff169050919050565b600d8054610c9f9061513c565b80601f0160208091040260200160405190810160405280929190818152602001828054610ccb9061513c565b8015610d185780601f10610ced57610100808354040283529160200191610d18565b820191906000526020600020905b815481529060010190602001808311610cfb57829003601f168201915b505050505081565b6000610d2b826114c4565b90508073ffffffffffffffffffffffffffffffffffffffff168373ffffffffffffffffffffffffffffffffffffffff161415610d9c576040517f08c379a0000000000000000000000000000000000000000000000000000000008152600401610d9390614d49565b60405180910390fd5b8073ffffffffffffffffffffffffffffffffffffffff16610dbb6126ff565b73ffffffffffffffffffffffffffffffffffffffff161480610dea5750610de981610de46126ff565b61235b565b5b610e29576040517f08c379a0000000000000000000000000000000000000000000000000000000008152600401610e2090614be9565b60405180910390fd5b610e338383612773565b505050565b600e5481565b6000600880549050905090565b60156020528060005260406000206000915090505481565b60105481565b610e7a610e746126ff565b8261282c565b610eb9576040517f08c379a0000000000000000000000000000000000000000000000000000000008152600401610eb090614da9565b60405180910390fd5b610ec483838361290a565b505050565b6000610ed483611604565b8210610f15576040517f08c379a0000000000000000000000000000000000000000000000000000000008152600401610f0c90614ac9565b60405180910390fd5b600660008473ffffffffffffffffffffffffffffffffffffffff1673ffffffffffffffffffffffffffffffffffffffff168152602001908152602001600020600083815260200190815260200160002054905092915050565b600080600090505b601480549050811015611038578273ffffffffffffffffffffffffffffffffffffffff1660148281548110610fd4577f4e487b7100000000000000000000000000000000000000000000000000000000600052603260045260246000fd5b9060005260206000200160009054906101000a900473ffffffffffffffffffffffffffffffffffffffff1673ffffffffffffffffffffffffffffffffffffffff16141561102557600191505061103e565b80806110309061516e565b915050610f76565b50600090505b919050565b61104b6126ff565b73ffffffffffffffffffffffffffffffffffffffff166110696117ca565b73ffffffffffffffffffffffffffffffffffffffff16146110bf576040517f08c379a00000000000000000000000000000000000000000000000000000000081526004016110b690614cc9565b60405180910390fd5b80601360026101000a81548160ff02191690831515021790555050565b6110e46126ff565b73ffffffffffffffffffffffffffffffffffffffff166111026117ca565b73ffffffffffffffffffffffffffffffffffffffff1614611158576040517f08c379a000000000000000000000000000000000000000000000000000000000815260040161114f90614cc9565b60405180910390fd5b60003373ffffffffffffffffffffffffffffffffffffffff164760405161117e90614995565b60006040518083038185875af1925050503d80600081146111bb576040519150601f19603f3d011682016040523d82523d6000602084013e6111c0565b606091505b50509050806111ce57600080fd5b50565b6111ec83838360405180602001604052806000815250611fab565b505050565b606060006111fe83611604565b905060008167ffffffffffffffff811115611242577f4e487b7100000000000000000000000000000000000000000000000000000000600052604160045260246000fd5b6040519080825280602002602001820160405280156112705781602001602082028036833780820191505090505b50905060005b828110156112e0576112888582610ec9565b8282815181106112c1577f4e487b7100000000000000000000000000000000000000000000000000000000600052603260045260246000fd5b60200260200101818152505080806112d89061516e565b915050611276565b508092505050919050565b6112f36126ff565b73ffffffffffffffffffffffffffffffffffffffff166113116117ca565b73ffffffffffffffffffffffffffffffffffffffff1614611367576040517f08c379a000000000000000000000000000000000000000000000000000000000815260040161135e90614cc9565b60405180910390fd5b80600e8190555050565b600061137b610e3e565b82106113bc576040517f08c379a00000000000000000000000000000000000000000000000000000000081526004016113b390614dc9565b60405180910390fd5b600882815481106113f6577f4e487b7100000000000000000000000000000000000000000000000000000000600052603260045260246000fd5b90600052602060002001549050919050565b601360019054906101000a900460ff1681565b6114236126ff565b73ffffffffffffffffffffffffffffffffffffffff166114416117ca565b73ffffffffffffffffffffffffffffffffffffffff1614611497576040517f08c379a000000000000000000000000000000000000000000000000000000000815260040161148e90614cc9565b60405180910390fd5b80600b90805190602001906114ad929190613878565b5050565b601360009054906101000a900460ff1681565b6000806002600084815260200190815260200160002060009054906101000a900473ffffffffffffffffffffffffffffffffffffffff169050600073ffffffffffffffffffffffffffffffffffffffff168173ffffffffffffffffffffffffffffffffffffffff16141561156d576040517f08c379a000000000000000000000000000000000000000000000000000000000815260040161156490614c29565b60405180910390fd5b80915050919050565b600b80546115839061513c565b80601f01602080910402602001604051908101604052809291908181526020018280546115af9061513c565b80156115fc5780601f106115d1576101008083540402835291602001916115fc565b820191906000526020600020905b8154815290600101906020018083116115df57829003601f168201915b505050505081565b60008073ffffffffffffffffffffffffffffffffffffffff168273ffffffffffffffffffffffffffffffffffffffff161415611675576040517f08c379a000000000000000000000000000000000000000000000000000000000815260040161166c90614c09565b60405180910390fd5b600360008373ffffffffffffffffffffffffffffffffffffffff1673ffffffffffffffffffffffffffffffffffffffff168152602001908152602001600020549050919050565b6116c46126ff565b73ffffffffffffffffffffffffffffffffffffffff166116e26117ca565b73ffffffffffffffffffffffffffffffffffffffff1614611738576040517f08c379a000000000000000000000000000000000000000000000000000000000815260040161172f90614cc9565b60405180910390fd5b6117426000612b66565b565b61174c6126ff565b73ffffffffffffffffffffffffffffffffffffffff1661176a6117ca565b73ffffffffffffffffffffffffffffffffffffffff16146117c0576040517f08c379a00000000000000000000000000000000000000000000000000000000081526004016117b790614cc9565b60405180910390fd5b8060108190555050565b6000600a60009054906101000a900473ffffffffffffffffffffffffffffffffffffffff16905090565b6060600180546118039061513c565b80601f016020809104026020016040519081016040528092919081815260200182805461182f9061513c565b801561187c5780601f106118515761010080835404028352916020019161187c565b820191906000526020600020905b81548152906001019060200180831161185f57829003601f168201915b5050505050905090565b601360029054906101000a900460ff1681565b601360009054906101000a900460ff16156118e9576040517f08c379a00000000000000000000000000000000000000000000000000000000081526004016118e090614ce9565b60405180910390fd5b60006118f3610e3e565b905060008211611938576040517f08c379a000000000000000000000000000000000000000000000000000000000815260040161192f90614e09565b60405180910390fd5b60105482111561197d576040517f08c379a000000000000000000000000000000000000000000000000000000000815260040161197490614c69565b60405180910390fd5b600f54828261198c9190614f71565b11156119cd576040517f08c379a00000000000000000000000000000000000000000000000000000000081526004016119c490614c49565b60405180910390fd5b6119d56117ca565b73ffffffffffffffffffffffffffffffffffffffff163373ffffffffffffffffffffffffffffffffffffffff1614611b525760011515601360029054906101000a900460ff1615151415611b0157611a2c33610f6e565b611a6b576040517f08c379a0000000000000000000000000000000000000000000000000000000008152600401611a6290614de9565b60405180910390fd5b6000601560003373ffffffffffffffffffffffffffffffffffffffff1673ffffffffffffffffffffffffffffffffffffffff1681526020019081526020016000205490506011548382611abe9190614f71565b1115611aff576040517f08c379a0000000000000000000000000000000000000000000000000000000008152600401611af690614b49565b60405180910390fd5b505b81600e54611b0f9190614ff8565b341015611b51576040517f08c379a0000000000000000000000000000000000000000000000000000000008152600401611b4890614d89565b60405180910390fd5b5b6000600190505b828111611d8c57601560003373ffffffffffffffffffffffffffffffffffffffff1673ffffffffffffffffffffffffffffffffffffffff1681526020019081526020016000206000815480929190611bb09061516e565b9190505550611bca338284611bc59190614f71565b612c2c565b600060646012544244611bdd9190614f71565b611be79190614f71565b611bf191906151b7565b905080601281905550600a811015611d7857611c426040518060400160405280600781526020017f257320776f6e210000000000000000000000000000000000000000000000000081525033612c4a565b6000655af3107a4000905047811115611c90576040517f08c379a0000000000000000000000000000000000000000000000000000000008152600401611c8790614d69565b60405180910390fd5b60003373ffffffffffffffffffffffffffffffffffffffff1682604051611cb690614995565b60006040518083038185875af1925050503d8060008114611cf3576040519150601f19603f3d011682016040523d82523d6000602084013e611cf8565b606091505b5050905080611d3c576040517f08c379a0000000000000000000000000000000000000000000000000000000008152600401611d3390614ba9565b60405180910390fd5b7f2e008cac0ce8b90dd9e80248b5f8d05f95d5d25cc6787b754ba5dd09d12052d43383604051611d6d929190614a11565b60405180910390a150505b508080611d849061516e565b915050611b59565b505050565b611d996126ff565b73ffffffffffffffffffffffffffffffffffffffff168273ffffffffffffffffffffffffffffffffffffffff161415611e07576040517f08c379a0000000000000000000000000000000000000000000000000000000008152600401611dfe90614b89565b60405180910390fd5b8060056000611e146126ff565b73ffffffffffffffffffffffffffffffffffffffff1673ffffffffffffffffffffffffffffffffffffffff16815260200190815260200160002060008473ffffffffffffffffffffffffffffffffffffffff1673ffffffffffffffffffffffffffffffffffffffff16815260200190815260200160002060006101000a81548160ff0219169083151502179055508173ffffffffffffffffffffffffffffffffffffffff16611ec16126ff565b73ffffffffffffffffffffffffffffffffffffffff167f17307eab39ab6107e8899845ad3d59bd9653f200f220920489ca2b5937696c3183604051611f069190614a5c565b60405180910390a35050565b611f1a6126ff565b73ffffffffffffffffffffffffffffffffffffffff16611f386117ca565b73ffffffffffffffffffffffffffffffffffffffff1614611f8e576040517f08c379a0000000000000000000000000000000000000000000000000000000008152600401611f8590614cc9565b60405180910390fd5b6001601360016101000a81548160ff021916908315150217905550565b611fbc611fb66126ff565b8361282c565b611ffb576040517f08c379a0000000000000000000000000000000000000000000000000000000008152600401611ff290614da9565b60405180910390fd5b61200784848484612ce6565b50505050565b6014818154811061201d57600080fd5b906000526020600020016000915054906101000a900473ffffffffffffffffffffffffffffffffffffffff1681565b60115481565b600c805461205f9061513c565b80601f016020809104026020016040519081016040528092919081815260200182805461208b9061513c565b80156120d85780601f106120ad576101008083540402835291602001916120d8565b820191906000526020600020905b8154815290600101906020018083116120bb57829003601f168201915b505050505081565b60606120eb82612707565b61212a576040517f08c379a000000000000000000000000000000000000000000000000000000000815260040161212190614d29565b60405180910390fd5b60001515601360019054906101000a900460ff16151514156121d857600d80546121539061513c565b80601f016020809104026020016040519081016040528092919081815260200182805461217f9061513c565b80156121cc5780601f106121a1576101008083540402835291602001916121cc565b820191906000526020600020905b8154815290600101906020018083116121af57829003601f168201915b50505050509050612234565b60006121e2612d42565b905060008151116122025760405180602001604052806000815250612230565b8061220c84612dd4565b600c60405160200161222093929190614964565b6040516020818303038152906040525b9150505b919050565b6122416126ff565b73ffffffffffffffffffffffffffffffffffffffff1661225f6117ca565b73ffffffffffffffffffffffffffffffffffffffff16146122b5576040517f08c379a00000000000000000000000000000000000000000000000000000000081526004016122ac90614cc9565b60405180910390fd5b8060118190555050565b600f5481565b6122cd6126ff565b73ffffffffffffffffffffffffffffffffffffffff166122eb6117ca565b73ffffffffffffffffffffffffffffffffffffffff1614612341576040517f08c379a000000000000000000000000000000000000000000000000000000000815260040161233890614cc9565b60405180910390fd5b80600c9080519060200190612357929190613878565b5050565b6000600560008473ffffffffffffffffffffffffffffffffffffffff1673ffffffffffffffffffffffffffffffffffffffff16815260200190815260200160002060008373ffffffffffffffffffffffffffffffffffffffff1673ffffffffffffffffffffffffffffffffffffffff16815260200190815260200160002060009054906101000a900460ff16905092915050565b6123f76126ff565b73ffffffffffffffffffffffffffffffffffffffff166124156117ca565b73ffffffffffffffffffffffffffffffffffffffff161461246b576040517f08c379a000000000000000000000000000000000000000000000000000000000815260040161246290614cc9565b60405180910390fd5b6014600061247991906138fe565b81816014919061248a92919061391f565b505050565b6124976126ff565b73ffffffffffffffffffffffffffffffffffffffff166124b56117ca565b73ffffffffffffffffffffffffffffffffffffffff161461250b576040517f08c379a000000000000000000000000000000000000000000000000000000000815260040161250290614cc9565b60405180910390fd5b80600d9080519060200190612521929190613878565b5050565b61252d6126ff565b73ffffffffffffffffffffffffffffffffffffffff1661254b6117ca565b73ffffffffffffffffffffffffffffffffffffffff16146125a1576040517f08c379a000000000000000000000000000000000000000000000000000000000815260040161259890614cc9565b60405180910390fd5b600073ffffffffffffffffffffffffffffffffffffffff168173ffffffffffffffffffffffffffffffffffffffff161415612611576040517f08c379a000000000000000000000000000000000000000000000000000000000815260040161260890614b09565b60405180910390fd5b61261a81612b66565b50565b60007f80ac58cd000000000000000000000000000000000000000000000000000000007bffffffffffffffffffffffffffffffffffffffffffffffffffffffff1916827bffffffffffffffffffffffffffffffffffffffffffffffffffffffff191614806126e857507f5b5e139f000000000000000000000000000000000000000000000000000000007bffffffffffffffffffffffffffffffffffffffffffffffffffffffff1916827bffffffffffffffffffffffffffffffffffffffffffffffffffffffff1916145b806126f857506126f782612f81565b5b9050919050565b600033905090565b60008073ffffffffffffffffffffffffffffffffffffffff166002600084815260200190815260200160002060009054906101000a900473ffffffffffffffffffffffffffffffffffffffff1673ffffffffffffffffffffffffffffffffffffffff1614159050919050565b816004600083815260200190815260200160002060006101000a81548173ffffffffffffffffffffffffffffffffffffffff021916908373ffffffffffffffffffffffffffffffffffffffff160217905550808273ffffffffffffffffffffffffffffffffffffffff166127e6836114c4565b73ffffffffffffffffffffffffffffffffffffffff167f8c5be1e5ebec7d5bd14f71427d1e84f3dd0314c0f7b2291e5b200ac8c7c3b92560405160405180910390a45050565b600061283782612707565b612876576040517f08c379a000000000000000000000000000000000000000000000000000000000815260040161286d90614bc9565b60405180910390fd5b6000612881836114c4565b90508073ffffffffffffffffffffffffffffffffffffffff168473ffffffffffffffffffffffffffffffffffffffff1614806128f057508373ffffffffffffffffffffffffffffffffffffffff166128d884610c0d565b73ffffffffffffffffffffffffffffffffffffffff16145b806129015750612900818561235b565b5b91505092915050565b8273ffffffffffffffffffffffffffffffffffffffff1661292a826114c4565b73ffffffffffffffffffffffffffffffffffffffff1614612980576040517f08c379a000000000000000000000000000000000000000000000000000000000815260040161297790614d09565b60405180910390fd5b600073ffffffffffffffffffffffffffffffffffffffff168273ffffffffffffffffffffffffffffffffffffffff1614156129f0576040517f08c379a00000000000000000000000000000000000000000000000000000000081526004016129e790614b69565b60405180910390fd5b6129fb838383612feb565b612a06600082612773565b6001600360008573ffffffffffffffffffffffffffffffffffffffff1673ffffffffffffffffffffffffffffffffffffffff1681526020019081526020016000206000828254612a569190615052565b925050819055506001600360008473ffffffffffffffffffffffffffffffffffffffff1673ffffffffffffffffffffffffffffffffffffffff1681526020019081526020016000206000828254612aad9190614f71565b92505081905550816002600083815260200190815260200160002060006101000a81548173ffffffffffffffffffffffffffffffffffffffff021916908373ffffffffffffffffffffffffffffffffffffffff160217905550808273ffffffffffffffffffffffffffffffffffffffff168473ffffffffffffffffffffffffffffffffffffffff167fddf252ad1be2c89b69c2b068fc378daa952ba7f163c4a11628f55a4df523b3ef60405160405180910390a4505050565b6000600a60009054906101000a900473ffffffffffffffffffffffffffffffffffffffff16905081600a60006101000a81548173ffffffffffffffffffffffffffffffffffffffff021916908373ffffffffffffffffffffffffffffffffffffffff1602179055508173ffffffffffffffffffffffffffffffffffffffff168173ffffffffffffffffffffffffffffffffffffffff167f8be0079c531659141344cd1fd0a4f28419497f9722a3daafe3b4186f6b6457e060405160405180910390a35050565b612c468282604051806020016040528060008152506130ff565b5050565b612ce28282604051602401612c60929190614a99565b6040516020818303038152906040527f319af333000000000000000000000000000000000000000000000000000000007bffffffffffffffffffffffffffffffffffffffffffffffffffffffff19166020820180517bffffffffffffffffffffffffffffffffffffffffffffffffffffffff838183161783525050505061315a565b5050565b612cf184848461290a565b612cfd84848484613183565b612d3c576040517f08c379a0000000000000000000000000000000000000000000000000000000008152600401612d3390614ae9565b60405180910390fd5b50505050565b6060600b8054612d519061513c565b80601f0160208091040260200160405190810160405280929190818152602001828054612d7d9061513c565b8015612dca5780601f10612d9f57610100808354040283529160200191612dca565b820191906000526020600020905b815481529060010190602001808311612dad57829003601f168201915b5050505050905090565b60606000821415612e1c576040518060400160405280600181526020017f30000000000000000000000000000000000000000000000000000000000000008152509050612f7c565b600082905060005b60008214612e4e578080612e379061516e565b915050600a82612e479190614fc7565b9150612e24565b60008167ffffffffffffffff811115612e90577f4e487b7100000000000000000000000000000000000000000000000000000000600052604160045260246000fd5b6040519080825280601f01601f191660200182016040528015612ec25781602001600182028036833780820191505090505b5090505b60008514612f7557600182612edb9190615052565b9150600a85612eea91906151b7565b6030612ef69190614f71565b60f81b818381518110612f32577f4e487b7100000000000000000000000000000000000000000000000000000000600052603260045260246000fd5b60200101907effffffffffffffffffffffffffffffffffffffffffffffffffffffffffffff1916908160001a905350600a85612f6e9190614fc7565b9450612ec6565b8093505050505b919050565b60007f01ffc9a7000000000000000000000000000000000000000000000000000000007bffffffffffffffffffffffffffffffffffffffffffffffffffffffff1916827bffffffffffffffffffffffffffffffffffffffffffffffffffffffff1916149050919050565b612ff683838361331a565b600073ffffffffffffffffffffffffffffffffffffffff168373ffffffffffffffffffffffffffffffffffffffff161415613039576130348161331f565b613078565b8173ffffffffffffffffffffffffffffffffffffffff168373ffffffffffffffffffffffffffffffffffffffff1614613077576130768382613368565b5b5b600073ffffffffffffffffffffffffffffffffffffffff168273ffffffffffffffffffffffffffffffffffffffff1614156130bb576130b6816134d5565b6130fa565b8273ffffffffffffffffffffffffffffffffffffffff168273ffffffffffffffffffffffffffffffffffffffff16146130f9576130f88282613618565b5b5b505050565b6131098383613697565b6131166000848484613183565b613155576040517f08c379a000000000000000000000000000000000000000000000000000000000815260040161314c90614ae9565b60405180910390fd5b505050565b60008151905060006a636f6e736f6c652e6c6f679050602083016000808483855afa5050505050565b60006131a48473ffffffffffffffffffffffffffffffffffffffff16613865565b1561330d578373ffffffffffffffffffffffffffffffffffffffff1663150b7a026131cd6126ff565b8786866040518563ffffffff1660e01b81526004016131ef94939291906149c5565b602060405180830381600087803b15801561320957600080fd5b505af192505050801561323a57506040513d601f19601f820116820180604052508101906132379190613d9d565b60015b6132bd573d806000811461326a576040519150601f19603f3d011682016040523d82523d6000602084013e61326f565b606091505b506000815114156132b5576040517f08c379a00000000000000000000000000000000000000000000000000000000081526004016132ac90614ae9565b60405180910390fd5b805181602001fd5b63150b7a0260e01b7bffffffffffffffffffffffffffffffffffffffffffffffffffffffff1916817bffffffffffffffffffffffffffffffffffffffffffffffffffffffff191614915050613312565b600190505b949350505050565b505050565b6008805490506009600083815260200190815260200160002081905550600881908060018154018082558091505060019003906000526020600020016000909190919091505550565b6000600161337584611604565b61337f9190615052565b9050600060076000848152602001908152602001600020549050818114613464576000600660008673ffffffffffffffffffffffffffffffffffffffff1673ffffffffffffffffffffffffffffffffffffffff168152602001908152602001600020600084815260200190815260200160002054905080600660008773ffffffffffffffffffffffffffffffffffffffff1673ffffffffffffffffffffffffffffffffffffffff168152602001908152602001600020600084815260200190815260200160002081905550816007600083815260200190815260200160002081905550505b6007600084815260200190815260200160002060009055600660008573ffffffffffffffffffffffffffffffffffffffff1673ffffffffffffffffffffffffffffffffffffffff16815260200190815260200160002060008381526020019081526020016000206000905550505050565b600060016008805490506134e99190615052565b905060006009600084815260200190815260200160002054905060006008838154811061353f577f4e487b7100000000000000000000000000000000000000000000000000000000600052603260045260246000fd5b906000526020600020015490508060088381548110613587577f4e487b7100000000000000000000000000000000000000000000000000000000600052603260045260246000fd5b9060005260206000200181905550816009600083815260200190815260200160002081905550600960008581526020019081526020016000206000905560088054806135fc577f4e487b7100000000000000000000000000000000000000000000000000000000600052603160045260246000fd5b6001900381819060005260206000200160009055905550505050565b600061362383611604565b905081600660008573ffffffffffffffffffffffffffffffffffffffff1673ffffffffffffffffffffffffffffffffffffffff168152602001908152602001600020600083815260200190815260200160002081905550806007600084815260200190815260200160002081905550505050565b600073ffffffffffffffffffffffffffffffffffffffff168273ffffffffffffffffffffffffffffffffffffffff161415613707576040517f08c379a00000000000000000000000000000000000000000000000000000000081526004016136fe90614c89565b60405180910390fd5b61371081612707565b15613750576040517f08c379a000000000000000000000000000000000000000000000000000000000815260040161374790614b29565b60405180910390fd5b61375c60008383612feb565b6001600360008473ffffffffffffffffffffffffffffffffffffffff1673ffffffffffffffffffffffffffffffffffffffff16815260200190815260200160002060008282546137ac9190614f71565b92505081905550816002600083815260200190815260200160002060006101000a81548173ffffffffffffffffffffffffffffffffffffffff021916908373ffffffffffffffffffffffffffffffffffffffff160217905550808273ffffffffffffffffffffffffffffffffffffffff16600073ffffffffffffffffffffffffffffffffffffffff167fddf252ad1be2c89b69c2b068fc378daa952ba7f163c4a11628f55a4df523b3ef60405160405180910390a45050565b600080823b905060008111915050919050565b8280546138849061513c565b90600052602060002090601f0160209004810192826138a657600085556138ed565b82601f106138bf57805160ff19168380011785556138ed565b828001600101855582156138ed579182015b828111156138ec5782518255916020019190600101906138d1565b5b5090506138fa91906139bf565b5090565b508054600082559060005260206000209081019061391c91906139bf565b50565b8280548282559060005260206000209081019282156139ae579160200282015b828111156139ad57823573ffffffffffffffffffffffffffffffffffffffff168260006101000a81548173ffffffffffffffffffffffffffffffffffffffff021916908373ffffffffffffffffffffffffffffffffffffffff1602179055509160200191906001019061393f565b5b5090506139bb91906139bf565b5090565b5b808211156139d85760008160009055506001016139c0565b5090565b60006139ef6139ea84614e75565b614e44565b905082815260208101848484011115613a0757600080fd5b613a128482856150fa565b509392505050565b6000613a2d613a2884614ea5565b614e44565b905082815260208101848484011115613a4557600080fd5b613a508482856150fa565b509392505050565b600081359050613a67816152b5565b92915050565b60008083601f840112613a7f57600080fd5b8235905067ffffffffffffffff811115613a9857600080fd5b602083019150836020820283011115613ab057600080fd5b9250929050565b600081359050613ac6816152cc565b92915050565b600081359050613adb816152e3565b92915050565b600081519050613af0816152e3565b92915050565b600082601f830112613b0757600080fd5b8135613b178482602086016139dc565b91505092915050565b600082601f830112613b3157600080fd5b8135613b41848260208601613a1a565b91505092915050565b600081359050613b59816152fa565b92915050565b600060208284031215613b7157600080fd5b6000613b7f84828501613a58565b91505092915050565b60008060408385031215613b9b57600080fd5b6000613ba985828601613a58565b9250506020613bba85828601613a58565b9150509250929050565b600080600060608486031215613bd957600080fd5b6000613be786828701613a58565b9350506020613bf886828701613a58565b9250506040613c0986828701613b4a565b9150509250925092565b60008060008060808587031215613c2957600080fd5b6000613c3787828801613a58565b9450506020613c4887828801613a58565b9350506040613c5987828801613b4a565b925050606085013567ffffffffffffffff811115613c7657600080fd5b613c8287828801613af6565b91505092959194509250565b60008060408385031215613ca157600080fd5b6000613caf85828601613a58565b9250506020613cc085828601613ab7565b9150509250929050565b60008060408385031215613cdd57600080fd5b6000613ceb85828601613a58565b9250506020613cfc85828601613b4a565b9150509250929050565b60008060208385031215613d1957600080fd5b600083013567ffffffffffffffff811115613d3357600080fd5b613d3f85828601613a6d565b92509250509250929050565b600060208284031215613d5d57600080fd5b6000613d6b84828501613ab7565b91505092915050565b600060208284031215613d8657600080fd5b6000613d9484828501613acc565b91505092915050565b600060208284031215613daf57600080fd5b6000613dbd84828501613ae1565b91505092915050565b600060208284031215613dd857600080fd5b600082013567ffffffffffffffff811115613df257600080fd5b613dfe84828501613b20565b91505092915050565b600060208284031215613e1957600080fd5b6000613e2784828501613b4a565b91505092915050565b6000613e3c8383614946565b60208301905092915050565b613e5181615086565b82525050565b6000613e6282614efa565b613e6c8185614f28565b9350613e7783614ed5565b8060005b83811015613ea8578151613e8f8882613e30565b9750613e9a83614f1b565b925050600181019050613e7b565b5085935050505092915050565b613ebe81615098565b82525050565b6000613ecf82614f05565b613ed98185614f39565b9350613ee9818560208601615109565b613ef2816152a4565b840191505092915050565b6000613f0882614f10565b613f128185614f55565b9350613f22818560208601615109565b613f2b816152a4565b840191505092915050565b6000613f4182614f10565b613f4b8185614f66565b9350613f5b818560208601615109565b80840191505092915050565b60008154613f748161513c565b613f7e8186614f66565b94506001821660008114613f995760018114613faa57613fdd565b60ff19831686528186019350613fdd565b613fb385614ee5565b60005b83811015613fd557815481890152600182019150602081019050613fb6565b838801955050505b50505092915050565b6000613ff3602b83614f55565b91507f455243373231456e756d657261626c653a206f776e657220696e646578206f7560008301527f74206f6620626f756e64730000000000000000000000000000000000000000006020830152604082019050919050565b6000614059603283614f55565b91507f4552433732313a207472616e7366657220746f206e6f6e20455243373231526560008301527f63656976657220696d706c656d656e74657200000000000000000000000000006020830152604082019050919050565b60006140bf602683614f55565b91507f4f776e61626c653a206e6577206f776e657220697320746865207a65726f206160008301527f64647265737300000000000000000000000000000000000000000000000000006020830152604082019050919050565b6000614125601c83614f55565b91507f4552433732313a20746f6b656e20616c7265616479206d696e746564000000006000830152602082019050919050565b6000614165601c83614f55565b91507f6d6178204e4654207065722061646472657373206578636565646564000000006000830152602082019050919050565b60006141a5602483614f55565b91507f4552433732313a207472616e7366657220746f20746865207a65726f2061646460008301527f72657373000000000000000000000000000000000000000000000000000000006020830152604082019050919050565b600061420b601983614f55565b91507f4552433732313a20617070726f766520746f2063616c6c6572000000000000006000830152602082019050919050565b600061424b602783614f55565b91507f4661696c656420746f207769746864726177206d6f6e65792066726f6d20636f60008301527f6e74726163742e000000000000000000000000000000000000000000000000006020830152604082019050919050565b60006142b1602c83614f55565b91507f4552433732313a206f70657261746f7220717565727920666f72206e6f6e657860008301527f697374656e7420746f6b656e00000000000000000000000000000000000000006020830152604082019050919050565b6000614317603883614f55565b91507f4552433732313a20617070726f76652063616c6c6572206973206e6f74206f7760008301527f6e6572206e6f7220617070726f76656420666f7220616c6c00000000000000006020830152604082019050919050565b600061437d602a83614f55565b91507f4552433732313a2062616c616e636520717565727920666f7220746865207a6560008301527f726f2061646472657373000000000000000000000000000000000000000000006020830152604082019050919050565b60006143e3602983614f55565b91507f4552433732313a206f776e657220717565727920666f72206e6f6e657869737460008301527f656e7420746f6b656e00000000000000000000000000000000000000000000006020830152604082019050919050565b6000614449601683614f55565b91507f6d6178204e4654206c696d6974206578636565646564000000000000000000006000830152602082019050919050565b6000614489602483614f55565b91507f6d6178206d696e7420616d6f756e74207065722073657373696f6e206578636560008301527f65646564000000000000000000000000000000000000000000000000000000006020830152604082019050919050565b60006144ef602083614f55565b91507f4552433732313a206d696e7420746f20746865207a65726f20616464726573736000830152602082019050919050565b600061452f602c83614f55565b91507f4552433732313a20617070726f76656420717565727920666f72206e6f6e657860008301527f697374656e7420746f6b656e00000000000000000000000000000000000000006020830152604082019050919050565b6000614595602083614f55565b91507f4f776e61626c653a2063616c6c6572206973206e6f7420746865206f776e65726000830152602082019050919050565b60006145d5601683614f55565b91507f74686520636f6e747261637420697320706175736564000000000000000000006000830152602082019050919050565b6000614615602983614f55565b91507f4552433732313a207472616e73666572206f6620746f6b656e2074686174206960008301527f73206e6f74206f776e00000000000000000000000000000000000000000000006020830152604082019050919050565b600061467b602f83614f55565b91507f4552433732314d657461646174613a2055524920717565727920666f72206e6f60008301527f6e6578697374656e7420746f6b656e00000000000000000000000000000000006020830152604082019050919050565b60006146e1602183614f55565b91507f4552433732313a20617070726f76616c20746f2063757272656e74206f776e6560008301527f72000000000000000000000000000000000000000000000000000000000000006020830152604082019050919050565b6000614747603583614f55565b91507f547279696e6720746f207769746864726177206d6f7265206d6f6e657920746860008301527f616e207468657920636f6e7472616374206861732e00000000000000000000006020830152604082019050919050565b60006147ad600083614f4a565b9150600082019050919050565b60006147c7601283614f55565b91507f696e73756666696369656e742066756e647300000000000000000000000000006000830152602082019050919050565b6000614807603183614f55565b91507f4552433732313a207472616e736665722063616c6c6572206973206e6f74206f60008301527f776e6572206e6f7220617070726f7665640000000000000000000000000000006020830152604082019050919050565b600061486d602c83614f55565b91507f455243373231456e756d657261626c653a20676c6f62616c20696e646578206f60008301527f7574206f6620626f756e647300000000000000000000000000000000000000006020830152604082019050919050565b60006148d3601783614f55565b91507f75736572206973206e6f742077686974656c69737465640000000000000000006000830152602082019050919050565b6000614913601b83614f55565b91507f6e65656420746f206d696e74206174206c656173742031204e465400000000006000830152602082019050919050565b61494f816150f0565b82525050565b61495e816150f0565b82525050565b60006149708286613f36565b915061497c8285613f36565b91506149888284613f67565b9150819050949350505050565b60006149a0826147a0565b9150819050919050565b60006020820190506149bf6000830184613e48565b92915050565b60006080820190506149da6000830187613e48565b6149e76020830186613e48565b6149f46040830185614955565b8181036060830152614a068184613ec4565b905095945050505050565b6000604082019050614a266000830185613e48565b614a336020830184614955565b9392505050565b60006020820190508181036000830152614a548184613e57565b905092915050565b6000602082019050614a716000830184613eb5565b92915050565b60006020820190508181036000830152614a918184613efd565b905092915050565b60006040820190508181036000830152614ab38185613efd565b9050614ac26020830184613e48565b9392505050565b60006020820190508181036000830152614ae281613fe6565b9050919050565b60006020820190508181036000830152614b028161404c565b9050919050565b60006020820190508181036000830152614b22816140b2565b9050919050565b60006020820190508181036000830152614b4281614118565b9050919050565b60006020820190508181036000830152614b6281614158565b9050919050565b60006020820190508181036000830152614b8281614198565b9050919050565b60006020820190508181036000830152614ba2816141fe565b9050919050565b60006020820190508181036000830152614bc28161423e565b9050919050565b60006020820190508181036000830152614be2816142a4565b9050919050565b60006020820190508181036000830152614c028161430a565b9050919050565b60006020820190508181036000830152614c2281614370565b9050919050565b60006020820190508181036000830152614c42816143d6565b9050919050565b60006020820190508181036000830152614c628161443c565b9050919050565b60006020820190508181036000830152614c828161447c565b9050919050565b60006020820190508181036000830152614ca2816144e2565b9050919050565b60006020820190508181036000830152614cc281614522565b9050919050565b60006020820190508181036000830152614ce281614588565b9050919050565b60006020820190508181036000830152614d02816145c8565b9050919050565b60006020820190508181036000830152614d2281614608565b9050919050565b60006020820190508181036000830152614d428161466e565b9050919050565b60006020820190508181036000830152614d62816146d4565b9050919050565b60006020820190508181036000830152614d828161473a565b9050919050565b60006020820190508181036000830152614da2816147ba565b9050919050565b60006020820190508181036000830152614dc2816147fa565b9050919050565b60006020820190508181036000830152614de281614860565b9050919050565b60006020820190508181036000830152614e02816148c6565b9050919050565b60006020820190508181036000830152614e2281614906565b9050919050565b6000602082019050614e3e6000830184614955565b92915050565b6000604051905081810181811067ffffffffffffffff82111715614e6b57614e6a615275565b5b8060405250919050565b600067ffffffffffffffff821115614e9057614e8f615275565b5b601f19601f8301169050602081019050919050565b600067ffffffffffffffff821115614ec057614ebf615275565b5b601f19601f8301169050602081019050919050565b6000819050602082019050919050565b60008190508160005260206000209050919050565b600081519050919050565b600081519050919050565b600081519050919050565b6000602082019050919050565b600082825260208201905092915050565b600082825260208201905092915050565b600081905092915050565b600082825260208201905092915050565b600081905092915050565b6000614f7c826150f0565b9150614f87836150f0565b9250827fffffffffffffffffffffffffffffffffffffffffffffffffffffffffffffffff03821115614fbc57614fbb6151e8565b5b828201905092915050565b6000614fd2826150f0565b9150614fdd836150f0565b925082614fed57614fec615217565b5b828204905092915050565b6000615003826150f0565b915061500e836150f0565b9250817fffffffffffffffffffffffffffffffffffffffffffffffffffffffffffffffff0483118215151615615047576150466151e8565b5b828202905092915050565b600061505d826150f0565b9150615068836150f0565b92508282101561507b5761507a6151e8565b5b828203905092915050565b6000615091826150d0565b9050919050565b60008115159050919050565b60007fffffffff0000000000000000000000000000000000000000000000000000000082169050919050565b600073ffffffffffffffffffffffffffffffffffffffff82169050919050565b6000819050919050565b82818337600083830152505050565b60005b8381101561512757808201518184015260208101905061510c565b83811115615136576000848401525b50505050565b6000600282049050600182168061515457607f821691505b6020821081141561516857615167615246565b5b50919050565b6000615179826150f0565b91507fffffffffffffffffffffffffffffffffffffffffffffffffffffffffffffffff8214156151ac576151ab6151e8565b5b600182019050919050565b60006151c2826150f0565b91506151cd836150f0565b9250826151dd576151dc615217565b5b828206905092915050565b7f4e487b7100000000000000000000000000000000000000000000000000000000600052601160045260246000fd5b7f4e487b7100000000000000000000000000000000000000000000000000000000600052601260045260246000fd5b7f4e487b7100000000000000000000000000000000000000000000000000000000600052602260045260246000fd5b7f4e487b7100000000000000000000000000000000000000000000000000000000600052604160045260246000fd5b6000601f19601f8301169050919050565b6152be81615086565b81146152c957600080fd5b50565b6152d581615098565b81146152e057600080fd5b50565b6152ec816150a4565b81146152f757600080fd5b50565b615303816150f0565b811461530e57600080fd5b5056fea264697066735822122028db571796b4e6c2889a782f692553417aeb44b811decf6f9ca0434af730f70164736f6c63430008000033",
  "linkReferences": {},
  "deployedLinkReferences": {}
}