{
  "_format": "hh-sol-artifact-1",
  "contractName": "testNFT",
  "sourceName": "contracts/testNFT.sol",
  "abi": [
    {
      "inputs": [
        {
          "internalType": "string",
          "name": "_name",
          "type": "string"
        },
        {
          "internalType": "string",
          "name": "_symbol",
          "type": "string"
        },
        {
          "internalType": "string",
          "name": "_initBaseURI",
          "type": "string"
        },
        {
          "internalType": "string",
          "name": "_initNotRevealedUri",
          "type": "string"
        },
        {
          "internalType": "address",
          "name": "_token",
          "type": "address"
        }
      ],
      "stateMutability": "payable",
      "type": "constructor"
    },
    {
      "anonymous": false,
      "inputs": [
        {
          "indexed": true,
          "internalType": "address",
          "name": "owner",
          "type": "address"
        },
        {
          "indexed": true,
          "internalType": "address",
          "name": "approved",
          "type": "address"
        },
        {
          "indexed": true,
          "internalType": "uint256",
          "name": "tokenId",
          "type": "uint256"
        }
      ],
      "name": "Approval",
      "type": "event"
    },
    {
      "anonymous": false,
      "inputs": [
        {
          "indexed": true,
          "internalType": "address",
          "name": "owner",
          "type": "address"
        },
        {
          "indexed": true,
          "internalType": "address",
          "name": "operator",
          "type": "address"
        },
        {
          "indexed": false,
          "internalType": "bool",
          "name": "approved",
          "type": "bool"
        }
      ],
      "name": "ApprovalForAll",
      "type": "event"
    },
    {
      "anonymous": false,
      "inputs": [
        {
          "indexed": true,
          "internalType": "address",
          "name": "previousOwner",
          "type": "address"
        },
        {
          "indexed": true,
          "internalType": "address",
          "name": "newOwner",
          "type": "address"
        }
      ],
      "name": "OwnershipTransferred",
      "type": "event"
    },
    {
      "anonymous": false,
      "inputs": [
        {
          "indexed": false,
          "internalType": "address",
          "name": "account",
          "type": "address"
        },
        {
          "indexed": false,
          "internalType": "uint256",
          "name": "shares",
          "type": "uint256"
        }
      ],
      "name": "PayeeAdded",
      "type": "event"
    },
    {
      "anonymous": false,
      "inputs": [
        {
          "indexed": false,
          "internalType": "address",
          "name": "from",
          "type": "address"
        },
        {
          "indexed": false,
          "internalType": "uint256",
          "name": "amount",
          "type": "uint256"
        }
      ],
      "name": "PaymentReceived",
      "type": "event"
    },
    {
      "anonymous": false,
      "inputs": [
        {
          "indexed": false,
          "internalType": "address",
          "name": "to",
          "type": "address"
        },
        {
          "indexed": false,
          "internalType": "uint256",
          "name": "amount",
          "type": "uint256"
        }
      ],
      "name": "PaymentReleased",
      "type": "event"
    },
    {
      "anonymous": false,
      "inputs": [
        {
          "indexed": true,
          "internalType": "address",
          "name": "from",
          "type": "address"
        },
        {
          "indexed": true,
          "internalType": "address",
          "name": "to",
          "type": "address"
        },
        {
          "indexed": true,
          "internalType": "uint256",
          "name": "tokenId",
          "type": "uint256"
        }
      ],
      "name": "Transfer",
      "type": "event"
    },
    {
      "anonymous": false,
      "inputs": [
        {
          "indexed": false,
          "internalType": "address",
          "name": "sender",
          "type": "address"
        },
        {
          "indexed": false,
          "internalType": "uint256",
          "name": "prize",
          "type": "uint256"
        }
      ],
      "name": "WinningMint",
      "type": "event"
    },
    {
      "inputs": [
        {
          "internalType": "address",
          "name": "",
          "type": "address"
        }
      ],
      "name": "addressMintedBalance",
      "outputs": [
        {
          "internalType": "uint256",
          "name": "",
          "type": "uint256"
        }
      ],
      "stateMutability": "view",
      "type": "function"
    },
    {
      "inputs": [
        {
          "internalType": "address",
          "name": "to",
          "type": "address"
        },
        {
          "internalType": "uint256",
          "name": "tokenId",
          "type": "uint256"
        }
      ],
      "name": "approve",
      "outputs": [],
      "stateMutability": "nonpayable",
      "type": "function"
    },
    {
      "inputs": [
        {
          "internalType": "address",
          "name": "owner",
          "type": "address"
        }
      ],
      "name": "balanceOf",
      "outputs": [
        {
          "internalType": "uint256",
          "name": "",
          "type": "uint256"
        }
      ],
      "stateMutability": "view",
      "type": "function"
    },
    {
      "inputs": [],
      "name": "baseExtension",
      "outputs": [
        {
          "internalType": "string",
          "name": "",
          "type": "string"
        }
      ],
      "stateMutability": "view",
      "type": "function"
    },
    {
      "inputs": [],
      "name": "baseURI",
      "outputs": [
        {
          "internalType": "string",
          "name": "",
          "type": "string"
        }
      ],
      "stateMutability": "view",
      "type": "function"
    },
    {
      "inputs": [],
      "name": "cost",
      "outputs": [
        {
          "internalType": "uint256",
          "name": "",
          "type": "uint256"
        }
      ],
      "stateMutability": "view",
      "type": "function"
    },
    {
      "inputs": [
        {
          "internalType": "uint256",
          "name": "tokenId",
          "type": "uint256"
        }
      ],
      "name": "getApproved",
      "outputs": [
        {
          "internalType": "address",
          "name": "",
          "type": "address"
        }
      ],
      "stateMutability": "view",
      "type": "function"
    },
    {
      "inputs": [
        {
          "internalType": "address",
          "name": "owner",
          "type": "address"
        },
        {
          "internalType": "address",
          "name": "operator",
          "type": "address"
        }
      ],
      "name": "isApprovedForAll",
      "outputs": [
        {
          "internalType": "bool",
          "name": "",
          "type": "bool"
        }
      ],
      "stateMutability": "view",
      "type": "function"
    },
    {
      "inputs": [
        {
          "internalType": "address",
          "name": "_user",
          "type": "address"
        }
      ],
      "name": "isWhitelisted",
      "outputs": [
        {
          "internalType": "bool",
          "name": "",
          "type": "bool"
        }
      ],
      "stateMutability": "view",
      "type": "function"
    },
    {
      "inputs": [],
      "name": "maxMintAmount",
      "outputs": [
        {
          "internalType": "uint256",
          "name": "",
          "type": "uint256"
        }
      ],
      "stateMutability": "view",
      "type": "function"
    },
    {
      "inputs": [],
      "name": "maxSupply",
      "outputs": [
        {
          "internalType": "uint256",
          "name": "",
          "type": "uint256"
        }
      ],
      "stateMutability": "view",
      "type": "function"
    },
    {
      "inputs": [
        {
          "internalType": "uint256",
          "name": "_mintAmount",
          "type": "uint256"
        }
      ],
      "name": "mint",
      "outputs": [],
      "stateMutability": "payable",
      "type": "function"
    },
    {
      "inputs": [],
      "name": "name",
      "outputs": [
        {
          "internalType": "string",
          "name": "",
          "type": "string"
        }
      ],
      "stateMutability": "view",
      "type": "function"
    },
    {
      "inputs": [],
      "name": "nftPerAddressLimit",
      "outputs": [
        {
          "internalType": "uint256",
          "name": "",
          "type": "uint256"
        }
      ],
      "stateMutability": "view",
      "type": "function"
    },
    {
      "inputs": [],
      "name": "notRevealedUri",
      "outputs": [
        {
          "internalType": "string",
          "name": "",
          "type": "string"
        }
      ],
      "stateMutability": "view",
      "type": "function"
    },
    {
      "inputs": [],
      "name": "onlyWhitelisted",
      "outputs": [
        {
          "internalType": "bool",
          "name": "",
          "type": "bool"
        }
      ],
      "stateMutability": "view",
      "type": "function"
    },
    {
      "inputs": [],
      "name": "owner",
      "outputs": [
        {
          "internalType": "address",
          "name": "",
          "type": "address"
        }
      ],
      "stateMutability": "view",
      "type": "function"
    },
    {
      "inputs": [
        {
          "internalType": "uint256",
          "name": "tokenId",
          "type": "uint256"
        }
      ],
      "name": "ownerOf",
      "outputs": [
        {
          "internalType": "address",
          "name": "",
          "type": "address"
        }
      ],
      "stateMutability": "view",
      "type": "function"
    },
    {
      "inputs": [
        {
          "internalType": "bool",
          "name": "_state",
          "type": "bool"
        }
      ],
      "name": "pause",
      "outputs": [],
      "stateMutability": "nonpayable",
      "type": "function"
    },
    {
      "inputs": [],
      "name": "paused",
      "outputs": [
        {
          "internalType": "bool",
          "name": "",
          "type": "bool"
        }
      ],
      "stateMutability": "view",
      "type": "function"
    },
    {
      "inputs": [
        {
          "internalType": "uint256",
          "name": "index",
          "type": "uint256"
        }
      ],
      "name": "payee",
      "outputs": [
        {
          "internalType": "address",
          "name": "",
          "type": "address"
        }
      ],
      "stateMutability": "view",
      "type": "function"
    },
    {
      "inputs": [
        {
          "internalType": "address payable",
          "name": "account",
          "type": "address"
        }
      ],
      "name": "release",
      "outputs": [],
      "stateMutability": "nonpayable",
      "type": "function"
    },
    {
      "inputs": [
        {
          "internalType": "address",
          "name": "account",
          "type": "address"
        }
      ],
      "name": "released",
      "outputs": [
        {
          "internalType": "uint256",
          "name": "",
          "type": "uint256"
        }
      ],
      "stateMutability": "view",
      "type": "function"
    },
    {
      "inputs": [],
      "name": "renounceOwnership",
      "outputs": [],
      "stateMutability": "nonpayable",
      "type": "function"
    },
    {
      "inputs": [],
      "name": "reveal",
      "outputs": [],
      "stateMutability": "nonpayable",
      "type": "function"
    },
    {
      "inputs": [],
      "name": "revealed",
      "outputs": [
        {
          "internalType": "bool",
          "name": "",
          "type": "bool"
        }
      ],
      "stateMutability": "view",
      "type": "function"
    },
    {
      "inputs": [
        {
          "internalType": "address",
          "name": "from",
          "type": "address"
        },
        {
          "internalType": "address",
          "name": "to",
          "type": "address"
        },
        {
          "internalType": "uint256",
          "name": "tokenId",
          "type": "uint256"
        }
      ],
      "name": "safeTransferFrom",
      "outputs": [],
      "stateMutability": "nonpayable",
      "type": "function"
    },
    {
      "inputs": [
        {
          "internalType": "address",
          "name": "from",
          "type": "address"
        },
        {
          "internalType": "address",
          "name": "to",
          "type": "address"
        },
        {
          "internalType": "uint256",
          "name": "tokenId",
          "type": "uint256"
        },
        {
          "internalType": "bytes",
          "name": "_data",
          "type": "bytes"
        }
      ],
      "name": "safeTransferFrom",
      "outputs": [],
      "stateMutability": "nonpayable",
      "type": "function"
    },
    {
      "inputs": [
        {
          "internalType": "address",
          "name": "operator",
          "type": "address"
        },
        {
          "internalType": "bool",
          "name": "approved",
          "type": "bool"
        }
      ],
      "name": "setApprovalForAll",
      "outputs": [],
      "stateMutability": "nonpayable",
      "type": "function"
    },
    {
      "inputs": [
        {
          "internalType": "string",
          "name": "_newBaseExtension",
          "type": "string"
        }
      ],
      "name": "setBaseExtension",
      "outputs": [],
      "stateMutability": "nonpayable",
      "type": "function"
    },
    {
      "inputs": [
        {
          "internalType": "string",
          "name": "_newBaseURI",
          "type": "string"
        }
      ],
      "name": "setBaseURI",
      "outputs": [],
      "stateMutability": "nonpayable",
      "type": "function"
    },
    {
      "inputs": [
        {
          "internalType": "uint256",
          "name": "_newCost",
          "type": "uint256"
        }
      ],
      "name": "setCost",
      "outputs": [],
      "stateMutability": "nonpayable",
      "type": "function"
    },
    {
      "inputs": [
        {
          "internalType": "uint256",
          "name": "_limit",
          "type": "uint256"
        }
      ],
      "name": "setNftPerAddressLimit",
      "outputs": [],
      "stateMutability": "nonpayable",
      "type": "function"
    },
    {
      "inputs": [
        {
          "internalType": "string",
          "name": "_notRevealedURI",
          "type": "string"
        }
      ],
      "name": "setNotRevealedURI",
      "outputs": [],
      "stateMutability": "nonpayable",
      "type": "function"
    },
    {
      "inputs": [
        {
          "internalType": "bool",
          "name": "_state",
          "type": "bool"
        }
      ],
      "name": "setOnlyWhitelisted",
      "outputs": [],
      "stateMutability": "nonpayable",
      "type": "function"
    },
    {
      "inputs": [
        {
          "internalType": "uint256",
          "name": "_newmaxMintAmount",
          "type": "uint256"
        }
      ],
      "name": "setmaxMintAmount",
      "outputs": [],
      "stateMutability": "nonpayable",
      "type": "function"
    },
    {
      "inputs": [
        {
          "internalType": "address",
          "name": "account",
          "type": "address"
        }
      ],
      "name": "shares",
      "outputs": [
        {
          "internalType": "uint256",
          "name": "",
          "type": "uint256"
        }
      ],
      "stateMutability": "view",
      "type": "function"
    },
    {
      "inputs": [
        {
          "internalType": "bytes4",
          "name": "interfaceId",
          "type": "bytes4"
        }
      ],
      "name": "supportsInterface",
      "outputs": [
        {
          "internalType": "bool",
          "name": "",
          "type": "bool"
        }
      ],
      "stateMutability": "view",
      "type": "function"
    },
    {
      "inputs": [],
      "name": "symbol",
      "outputs": [
        {
          "internalType": "string",
          "name": "",
          "type": "string"
        }
      ],
      "stateMutability": "view",
      "type": "function"
    },
    {
      "inputs": [
        {
          "internalType": "uint256",
          "name": "index",
          "type": "uint256"
        }
      ],
      "name": "tokenByIndex",
      "outputs": [
        {
          "internalType": "uint256",
          "name": "",
          "type": "uint256"
        }
      ],
      "stateMutability": "view",
      "type": "function"
    },
    {
      "inputs": [
        {
          "internalType": "address",
          "name": "owner",
          "type": "address"
        },
        {
          "internalType": "uint256",
          "name": "index",
          "type": "uint256"
        }
      ],
      "name": "tokenOfOwnerByIndex",
      "outputs": [
        {
          "internalType": "uint256",
          "name": "",
          "type": "uint256"
        }
      ],
      "stateMutability": "view",
      "type": "function"
    },
    {
      "inputs": [
        {
          "internalType": "uint256",
          "name": "tokenId",
          "type": "uint256"
        }
      ],
      "name": "tokenURI",
      "outputs": [
        {
          "internalType": "string",
          "name": "",
          "type": "string"
        }
      ],
      "stateMutability": "view",
      "type": "function"
    },
    {
      "inputs": [],
      "name": "totalReleased",
      "outputs": [
        {
          "internalType": "uint256",
          "name": "",
          "type": "uint256"
        }
      ],
      "stateMutability": "view",
      "type": "function"
    },
    {
      "inputs": [],
      "name": "totalShares",
      "outputs": [
        {
          "internalType": "uint256",
          "name": "",
          "type": "uint256"
        }
      ],
      "stateMutability": "view",
      "type": "function"
    },
    {
      "inputs": [],
      "name": "totalSupply",
      "outputs": [
        {
          "internalType": "uint256",
          "name": "",
          "type": "uint256"
        }
      ],
      "stateMutability": "view",
      "type": "function"
    },
    {
      "inputs": [
        {
          "internalType": "address",
          "name": "from",
          "type": "address"
        },
        {
          "internalType": "address",
          "name": "to",
          "type": "address"
        },
        {
          "internalType": "uint256",
          "name": "tokenId",
          "type": "uint256"
        }
      ],
      "name": "transferFrom",
      "outputs": [],
      "stateMutability": "nonpayable",
      "type": "function"
    },
    {
      "inputs": [
        {
          "internalType": "address",
          "name": "newOwner",
          "type": "address"
        }
      ],
      "name": "transferOwnership",
      "outputs": [],
      "stateMutability": "nonpayable",
      "type": "function"
    },
    {
      "inputs": [
        {
          "internalType": "address",
          "name": "_owner",
          "type": "address"
        }
      ],
      "name": "walletOfOwner",
      "outputs": [
        {
          "internalType": "uint256[]",
          "name": "",
          "type": "uint256[]"
        }
      ],
      "stateMutability": "view",
      "type": "function"
    },
    {
      "inputs": [
        {
          "internalType": "address[]",
          "name": "_users",
          "type": "address[]"
        }
      ],
      "name": "whitelistUsers",
      "outputs": [],
      "stateMutability": "nonpayable",
      "type": "function"
    },
    {
      "inputs": [
        {
          "internalType": "uint256",
          "name": "",
          "type": "uint256"
        }
      ],
      "name": "whitelistedAddresses",
      "outputs": [
        {
          "internalType": "address",
          "name": "",
          "type": "address"
        }
      ],
      "stateMutability": "view",
      "type": "function"
    },
    {
      "inputs": [],
      "name": "withdraw",
      "outputs": [],
      "stateMutability": "payable",
      "type": "function"
    },
    {
      "stateMutability": "payable",
      "type": "receive"
    }
  ],
  "bytecode": "0x60806040526040518060400160405280600581526020017f2e6a736f6e000000000000000000000000000000000000000000000000000000815250601290805190602001906200005192919062000935565b50662386f26fc1000060145560966015556014601655601460175566038d7ea4c680006018556040518060400160405280603260ff168152602001603260ff16815250601a906002620000a6929190620009c6565b506000601b60006101000a81548160ff0219169083151502179055506000601b60016101000a81548160ff0219169083151502179055506001601b60026101000a81548160ff021916908315150217905550604051806040016040528073e2b8651bf50913057ff47fc4f02a8e12146083b873ffffffffffffffffffffffffffffffffffffffff1673ffffffffffffffffffffffffffffffffffffffff168152602001736961367ef8b92c1a306a68c87add9eafd09f778773ffffffffffffffffffffffffffffffffffffffff1673ffffffffffffffffffffffffffffffffffffffff16815250601d9060026200019f92919062000a1d565b5060405162006e4238038062006e428339818101604052810190620001c5919062000b54565b601d8054806020026020016040519081016040528092919081815260200182805480156200024957602002820191906000526020600020905b8160009054906101000a900473ffffffffffffffffffffffffffffffffffffffff1673ffffffffffffffffffffffffffffffffffffffff1681526020019060010190808311620001fe575b5050505050601a8054806020026020016040519081016040528092919081815260200182805480156200029c57602002820191906000526020600020905b81548152602001906001019080831162000287575b505050505086868160009080519060200190620002bb92919062000935565b508060019080519060200190620002d492919062000935565b505050620002f7620002eb620004ad60201b60201c565b620004b560201b60201c565b80518251146200033e576040517f08c379a0000000000000000000000000000000000000000000000000000000008152600401620003359062000ecb565b60405180910390fd5b600082511162000385576040517f08c379a00000000000000000000000000000000000000000000000000000000081526004016200037c9062000f0f565b60405180910390fd5b60005b82518110156200043c5762000426838281518110620003d0577f4e487b7100000000000000000000000000000000000000000000000000000000600052603260045260246000fd5b602002602001015183838151811062000412577f4e487b7100000000000000000000000000000000000000000000000000000000600052603260045260246000fd5b60200260200101516200057b60201b60201c565b80806200043390620010d2565b91505062000388565b5050506200045083620007b560201b60201c565b62000461826200086060201b60201c565b80601060006101000a81548173ffffffffffffffffffffffffffffffffffffffff021916908373ffffffffffffffffffffffffffffffffffffffff1602179055505050505050620011c7565b600033905090565b6000600a60009054906101000a900473ffffffffffffffffffffffffffffffffffffffff16905081600a60006101000a81548173ffffffffffffffffffffffffffffffffffffffff021916908373ffffffffffffffffffffffffffffffffffffffff1602179055508173ffffffffffffffffffffffffffffffffffffffff168173ffffffffffffffffffffffffffffffffffffffff167f8be0079c531659141344cd1fd0a4f28419497f9722a3daafe3b4186f6b6457e060405160405180910390a35050565b600073ffffffffffffffffffffffffffffffffffffffff168273ffffffffffffffffffffffffffffffffffffffff161415620005ee576040517f08c379a0000000000000000000000000000000000000000000000000000000008152600401620005e59062000e87565b60405180910390fd5b6000811162000634576040517f08c379a00000000000000000000000000000000000000000000000000000000081526004016200062b9062000f31565b60405180910390fd5b6000600d60008473ffffffffffffffffffffffffffffffffffffffff1673ffffffffffffffffffffffffffffffffffffffff1681526020019081526020016000205414620006b9576040517f08c379a0000000000000000000000000000000000000000000000000000000008152600401620006b09062000eed565b60405180910390fd5b600f829080600181540180825580915050600190039060005260206000200160009091909190916101000a81548173ffffffffffffffffffffffffffffffffffffffff021916908373ffffffffffffffffffffffffffffffffffffffff16021790555080600d60008473ffffffffffffffffffffffffffffffffffffffff1673ffffffffffffffffffffffffffffffffffffffff1681526020019081526020016000208190555080600b5462000770919062000fcb565b600b819055507f40c340f65e17194d14ddddb073d3c9f888e3cb52b5aae0c6c7706b4fbc905fac8282604051620007a992919062000e5a565b60405180910390a15050565b620007c5620004ad60201b60201c565b73ffffffffffffffffffffffffffffffffffffffff16620007eb6200090b60201b60201c565b73ffffffffffffffffffffffffffffffffffffffff161462000844576040517f08c379a00000000000000000000000000000000000000000000000000000000081526004016200083b9062000ea9565b60405180910390fd5b80601190805190602001906200085c92919062000935565b5050565b62000870620004ad60201b60201c565b73ffffffffffffffffffffffffffffffffffffffff16620008966200090b60201b60201c565b73ffffffffffffffffffffffffffffffffffffffff1614620008ef576040517f08c379a0000000000000000000000000000000000000000000000000000000008152600401620008e69062000ea9565b60405180910390fd5b80601390805190602001906200090792919062000935565b5050565b6000600a60009054906101000a900473ffffffffffffffffffffffffffffffffffffffff16905090565b82805462000943906200109c565b90600052602060002090601f016020900481019282620009675760008555620009b3565b82601f106200098257805160ff1916838001178555620009b3565b82800160010185558215620009b3579182015b82811115620009b257825182559160200191906001019062000995565b5b509050620009c2919062000aac565b5090565b82805482825590600052602060002090810192821562000a0a579160200282015b8281111562000a09578251829060ff16905591602001919060010190620009e7565b5b50905062000a19919062000aac565b5090565b82805482825590600052602060002090810192821562000a99579160200282015b8281111562000a985782518260006101000a81548173ffffffffffffffffffffffffffffffffffffffff021916908373ffffffffffffffffffffffffffffffffffffffff1602179055509160200191906001019062000a3e565b5b50905062000aa8919062000aac565b5090565b5b8082111562000ac757600081600090555060010162000aad565b5090565b600062000ae262000adc8462000f87565b62000f53565b90508281526020810184848401111562000afb57600080fd5b62000b0884828562001066565b509392505050565b60008151905062000b2181620011ad565b92915050565b600082601f83011262000b3957600080fd5b815162000b4b84826020860162000acb565b91505092915050565b600080600080600060a0868803121562000b6d57600080fd5b600086015167ffffffffffffffff81111562000b8857600080fd5b62000b968882890162000b27565b955050602086015167ffffffffffffffff81111562000bb457600080fd5b62000bc28882890162000b27565b945050604086015167ffffffffffffffff81111562000be057600080fd5b62000bee8882890162000b27565b935050606086015167ffffffffffffffff81111562000c0c57600080fd5b62000c1a8882890162000b27565b925050608062000c2d8882890162000b10565b9150509295509295909350565b62000c458162001028565b82525050565b600062000c5a602c8362000fba565b91507f5061796d656e7453706c69747465723a206163636f756e74206973207468652060008301527f7a65726f206164647265737300000000000000000000000000000000000000006020830152604082019050919050565b600062000cc260208362000fba565b91507f4f776e61626c653a2063616c6c6572206973206e6f7420746865206f776e65726000830152602082019050919050565b600062000d0460328362000fba565b91507f5061796d656e7453706c69747465723a2070617965657320616e64207368617260008301527f6573206c656e677468206d69736d6174636800000000000000000000000000006020830152604082019050919050565b600062000d6c602b8362000fba565b91507f5061796d656e7453706c69747465723a206163636f756e7420616c726561647960008301527f20686173207368617265730000000000000000000000000000000000000000006020830152604082019050919050565b600062000dd4601a8362000fba565b91507f5061796d656e7453706c69747465723a206e6f207061796565730000000000006000830152602082019050919050565b600062000e16601d8362000fba565b91507f5061796d656e7453706c69747465723a207368617265732061726520300000006000830152602082019050919050565b62000e54816200105c565b82525050565b600060408201905062000e71600083018562000c3a565b62000e80602083018462000e49565b9392505050565b6000602082019050818103600083015262000ea28162000c4b565b9050919050565b6000602082019050818103600083015262000ec48162000cb3565b9050919050565b6000602082019050818103600083015262000ee68162000cf5565b9050919050565b6000602082019050818103600083015262000f088162000d5d565b9050919050565b6000602082019050818103600083015262000f2a8162000dc5565b9050919050565b6000602082019050818103600083015262000f4c8162000e07565b9050919050565b6000604051905081810181811067ffffffffffffffff8211171562000f7d5762000f7c6200117e565b5b8060405250919050565b600067ffffffffffffffff82111562000fa55762000fa46200117e565b5b601f19601f8301169050602081019050919050565b600082825260208201905092915050565b600062000fd8826200105c565b915062000fe5836200105c565b9250827fffffffffffffffffffffffffffffffffffffffffffffffffffffffffffffffff038211156200101d576200101c62001120565b5b828201905092915050565b600062001035826200103c565b9050919050565b600073ffffffffffffffffffffffffffffffffffffffff82169050919050565b6000819050919050565b60005b838110156200108657808201518184015260208101905062001069565b8381111562001096576000848401525b50505050565b60006002820490506001821680620010b557607f821691505b60208210811415620010cc57620010cb6200114f565b5b50919050565b6000620010df826200105c565b91507fffffffffffffffffffffffffffffffffffffffffffffffffffffffffffffffff82141562001115576200111462001120565b5b600182019050919050565b7f4e487b7100000000000000000000000000000000000000000000000000000000600052601160045260246000fd5b7f4e487b7100000000000000000000000000000000000000000000000000000000600052602260045260246000fd5b7f4e487b7100000000000000000000000000000000000000000000000000000000600052604160045260246000fd5b620011b88162001028565b8114620011c457600080fd5b50565b615c6b80620011d76000396000f3fe6080604052600436106102e85760003560e01c80636c0360eb11610190578063ba4e5c49116100dc578063d5abeb0111610095578063e985e9c51161006f578063e985e9c514610ba3578063edec5f2714610be0578063f2c4ce1e14610c09578063f2fde38b14610c325761032f565b8063d5abeb0114610b24578063da3ef23f14610b4f578063e33b7de314610b785761032f565b8063ba4e5c49146109ee578063ba7d2c7614610a2b578063c668286214610a56578063c87b56dd14610a81578063ce7c2ac214610abe578063d0eb26b014610afb5761032f565b806395d89b4111610149578063a0712d6811610123578063a0712d6814610969578063a22cb46514610985578063a475b5dd146109ae578063b88d4fde146109c55761032f565b806395d89b41146108d65780639852595c146109015780639c70b5121461093e5761032f565b80636c0360eb146107c657806370a08231146107f1578063715018a61461082e5780637f00c7a6146108455780638b83209b1461086e5780638da5cb5b146108ab5761032f565b80632f745c591161024f578063438b63001161020857806351830227116101e2578063518302271461070a57806355f804b3146107355780635c975abb1461075e5780636352211e146107895761032f565b8063438b63001461066757806344a0d68a146106a45780634f6ccce7146106cd5761032f565b80632f745c59146105665780633a98ef39146105a35780633af32abf146105ce5780633c9527641461060b5780633ccfd60b1461063457806342842e0e1461063e5761032f565b806313faede6116102a157806313faede61461045657806318160ddd1461048157806318cae269146104ac57806319165587146104e9578063239c70ae1461051257806323b872dd1461053d5761032f565b806301ffc9a71461033457806302329a291461037157806306fdde031461039a578063081812fc146103c5578063081c8c4414610402578063095ea7b31461042d5761032f565b3661032f577f6ef95f06320e7a25a04a175ca677b7052bdd97131872c2192525a629f51be770610316610c5b565b34604051610325929190615256565b60405180910390a1005b600080fd5b34801561034057600080fd5b5061035b6004803603810190610356919061440f565b610c63565b60405161036891906152a1565b60405180910390f35b34801561037d57600080fd5b50610398600480360381019061039391906143e6565b610cdd565b005b3480156103a657600080fd5b506103af610d76565b6040516103bc91906152bc565b60405180910390f35b3480156103d157600080fd5b506103ec60048036038101906103e791906144a2565b610e08565b6040516103f991906151c6565b60405180910390f35b34801561040e57600080fd5b50610417610e8d565b60405161042491906152bc565b60405180910390f35b34801561043957600080fd5b50610454600480360381019061044f9190614365565b610f1b565b005b34801561046257600080fd5b5061046b611033565b60405161047891906156ee565b60405180910390f35b34801561048d57600080fd5b50610496611039565b6040516104a391906156ee565b60405180910390f35b3480156104b857600080fd5b506104d360048036038101906104ce91906141d1565b611046565b6040516104e091906156ee565b60405180910390f35b3480156104f557600080fd5b50610510600480360381019061050b91906141fa565b61105e565b005b34801561051e57600080fd5b506105276112c6565b60405161053491906156ee565b60405180910390f35b34801561054957600080fd5b50610564600480360381019061055f919061425f565b6112cc565b005b34801561057257600080fd5b5061058d60048036038101906105889190614365565b61132c565b60405161059a91906156ee565b60405180910390f35b3480156105af57600080fd5b506105b86113d1565b6040516105c591906156ee565b60405180910390f35b3480156105da57600080fd5b506105f560048036038101906105f091906141d1565b6113db565b60405161060291906152a1565b60405180910390f35b34801561061757600080fd5b50610632600480360381019061062d91906143e6565b6114b0565b005b61063c611549565b005b34801561064a57600080fd5b506106656004803603810190610660919061425f565b61163e565b005b34801561067357600080fd5b5061068e600480360381019061068991906141d1565b61165e565b60405161069b919061527f565b60405180910390f35b3480156106b057600080fd5b506106cb60048036038101906106c691906144a2565b611758565b005b3480156106d957600080fd5b506106f460048036038101906106ef91906144a2565b6117de565b60405161070191906156ee565b60405180910390f35b34801561071657600080fd5b5061071f611875565b60405161072c91906152a1565b60405180910390f35b34801561074157600080fd5b5061075c60048036038101906107579190614461565b611888565b005b34801561076a57600080fd5b5061077361191e565b60405161078091906152a1565b60405180910390f35b34801561079557600080fd5b506107b060048036038101906107ab91906144a2565b611931565b6040516107bd91906151c6565b60405180910390f35b3480156107d257600080fd5b506107db6119e3565b6040516107e891906152bc565b60405180910390f35b3480156107fd57600080fd5b50610818600480360381019061081391906141d1565b611a71565b60405161082591906156ee565b60405180910390f35b34801561083a57600080fd5b50610843611b29565b005b34801561085157600080fd5b5061086c600480360381019061086791906144a2565b611bb1565b005b34801561087a57600080fd5b50610895600480360381019061089091906144a2565b611c37565b6040516108a291906151c6565b60405180910390f35b3480156108b757600080fd5b506108c0611ca5565b6040516108cd91906151c6565b60405180910390f35b3480156108e257600080fd5b506108eb611ccf565b6040516108f891906152bc565b60405180910390f35b34801561090d57600080fd5b50610928600480360381019061092391906141d1565b611d61565b60405161093591906156ee565b60405180910390f35b34801561094a57600080fd5b50610953611daa565b60405161096091906152a1565b60405180910390f35b610983600480360381019061097e91906144a2565b611dbd565b005b34801561099157600080fd5b506109ac60048036038101906109a79190614329565b6122af565b005b3480156109ba57600080fd5b506109c3612430565b005b3480156109d157600080fd5b506109ec60048036038101906109e791906142ae565b6124c9565b005b3480156109fa57600080fd5b50610a156004803603810190610a1091906144a2565b61252b565b604051610a2291906151c6565b60405180910390f35b348015610a3757600080fd5b50610a4061256a565b604051610a4d91906156ee565b60405180910390f35b348015610a6257600080fd5b50610a6b612570565b604051610a7891906152bc565b60405180910390f35b348015610a8d57600080fd5b50610aa86004803603810190610aa391906144a2565b6125fe565b604051610ab591906152bc565b60405180910390f35b348015610aca57600080fd5b50610ae56004803603810190610ae091906141d1565b612757565b604051610af291906156ee565b60405180910390f35b348015610b0757600080fd5b50610b226004803603810190610b1d91906144a2565b6127a0565b005b348015610b3057600080fd5b50610b39612826565b604051610b4691906156ee565b60405180910390f35b348015610b5b57600080fd5b50610b766004803603810190610b719190614461565b61282c565b005b348015610b8457600080fd5b50610b8d6128c2565b604051610b9a91906156ee565b60405180910390f35b348015610baf57600080fd5b50610bca6004803603810190610bc59190614223565b6128cc565b604051610bd791906152a1565b60405180910390f35b348015610bec57600080fd5b50610c076004803603810190610c0291906143a1565b612960565b005b348015610c1557600080fd5b50610c306004803603810190610c2b9190614461565b612a00565b005b348015610c3e57600080fd5b50610c596004803603810190610c5491906141d1565b612a96565b005b600033905090565b60007f780e9d63000000000000000000000000000000000000000000000000000000007bffffffffffffffffffffffffffffffffffffffffffffffffffffffff1916827bffffffffffffffffffffffffffffffffffffffffffffffffffffffff19161480610cd65750610cd582612b8e565b5b9050919050565b610ce5610c5b565b73ffffffffffffffffffffffffffffffffffffffff16610d03611ca5565b73ffffffffffffffffffffffffffffffffffffffff1614610d59576040517f08c379a0000000000000000000000000000000000000000000000000000000008152600401610d509061558e565b60405180910390fd5b80601b60006101000a81548160ff02191690831515021790555050565b606060008054610d8590615a49565b80601f0160208091040260200160405190810160405280929190818152602001828054610db190615a49565b8015610dfe5780601f10610dd357610100808354040283529160200191610dfe565b820191906000526020600020905b815481529060010190602001808311610de157829003601f168201915b5050505050905090565b6000610e1382612c70565b610e52576040517f08c379a0000000000000000000000000000000000000000000000000000000008152600401610e499061556e565b60405180910390fd5b6004600083815260200190815260200160002060009054906101000a900473ffffffffffffffffffffffffffffffffffffffff169050919050565b60138054610e9a90615a49565b80601f0160208091040260200160405190810160405280929190818152602001828054610ec690615a49565b8015610f135780601f10610ee857610100808354040283529160200191610f13565b820191906000526020600020905b815481529060010190602001808311610ef657829003601f168201915b505050505081565b6000610f2682611931565b90508073ffffffffffffffffffffffffffffffffffffffff168373ffffffffffffffffffffffffffffffffffffffff161415610f97576040517f08c379a0000000000000000000000000000000000000000000000000000000008152600401610f8e9061560e565b60405180910390fd5b8073ffffffffffffffffffffffffffffffffffffffff16610fb6610c5b565b73ffffffffffffffffffffffffffffffffffffffff161480610fe55750610fe481610fdf610c5b565b6128cc565b5b611024576040517f08c379a000000000000000000000000000000000000000000000000000000000815260040161101b906154ae565b60405180910390fd5b61102e8383612cdc565b505050565b60145481565b6000600880549050905090565b601e6020528060005260406000206000915090505481565b6000600d60008373ffffffffffffffffffffffffffffffffffffffff1673ffffffffffffffffffffffffffffffffffffffff16815260200190815260200160002054116110e0576040517f08c379a00000000000000000000000000000000000000000000000000000000081526004016110d7906153ae565b60405180910390fd5b6000600c54476110f09190615836565b90506000600e60008473ffffffffffffffffffffffffffffffffffffffff1673ffffffffffffffffffffffffffffffffffffffff16815260200190815260200160002054600b54600d60008673ffffffffffffffffffffffffffffffffffffffff1673ffffffffffffffffffffffffffffffffffffffff168152602001908152602001600020548461118291906158bd565b61118c919061588c565b6111969190615917565b905060008114156111dc576040517f08c379a00000000000000000000000000000000000000000000000000000000081526004016111d39061548e565b60405180910390fd5b80600e60008573ffffffffffffffffffffffffffffffffffffffff1673ffffffffffffffffffffffffffffffffffffffff168152602001908152602001600020546112279190615836565b600e60008573ffffffffffffffffffffffffffffffffffffffff1673ffffffffffffffffffffffffffffffffffffffff1681526020019081526020016000208190555080600c546112789190615836565b600c819055506112888382612d95565b7fdf20fd1e76bc69d672e4814fafb2c449bba3a5369d8359adf9e05e6fde87b05683826040516112b99291906151e1565b60405180910390a1505050565b60165481565b6112dd6112d7610c5b565b82612e89565b61131c576040517f08c379a00000000000000000000000000000000000000000000000000000000081526004016113139061566e565b60405180910390fd5b611327838383612f67565b505050565b600061133783611a71565b8210611378576040517f08c379a000000000000000000000000000000000000000000000000000000000815260040161136f9061530e565b60405180910390fd5b600660008473ffffffffffffffffffffffffffffffffffffffff1673ffffffffffffffffffffffffffffffffffffffff168152602001908152602001600020600083815260200190815260200160002054905092915050565b6000600b54905090565b600080600090505b601c805490508110156114a5578273ffffffffffffffffffffffffffffffffffffffff16601c8281548110611441577f4e487b7100000000000000000000000000000000000000000000000000000000600052603260045260246000fd5b9060005260206000200160009054906101000a900473ffffffffffffffffffffffffffffffffffffffff1673ffffffffffffffffffffffffffffffffffffffff1614156114925760019150506114ab565b808061149d90615a7b565b9150506113e3565b50600090505b919050565b6114b8610c5b565b73ffffffffffffffffffffffffffffffffffffffff166114d6611ca5565b73ffffffffffffffffffffffffffffffffffffffff161461152c576040517f08c379a00000000000000000000000000000000000000000000000000000000081526004016115239061558e565b60405180910390fd5b80601b60026101000a81548160ff02191690831515021790555050565b611551610c5b565b73ffffffffffffffffffffffffffffffffffffffff1661156f611ca5565b73ffffffffffffffffffffffffffffffffffffffff16146115c5576040517f08c379a00000000000000000000000000000000000000000000000000000000081526004016115bc9061558e565b60405180910390fd5b60003373ffffffffffffffffffffffffffffffffffffffff16476040516115eb906151b1565b60006040518083038185875af1925050503d8060008114611628576040519150601f19603f3d011682016040523d82523d6000602084013e61162d565b606091505b505090508061163b57600080fd5b50565b611659838383604051806020016040528060008152506124c9565b505050565b6060600061166b83611a71565b905060008167ffffffffffffffff8111156116af577f4e487b7100000000000000000000000000000000000000000000000000000000600052604160045260246000fd5b6040519080825280602002602001820160405280156116dd5781602001602082028036833780820191505090505b50905060005b8281101561174d576116f5858261132c565b82828151811061172e577f4e487b7100000000000000000000000000000000000000000000000000000000600052603260045260246000fd5b602002602001018181525050808061174590615a7b565b9150506116e3565b508092505050919050565b611760610c5b565b73ffffffffffffffffffffffffffffffffffffffff1661177e611ca5565b73ffffffffffffffffffffffffffffffffffffffff16146117d4576040517f08c379a00000000000000000000000000000000000000000000000000000000081526004016117cb9061558e565b60405180910390fd5b8060148190555050565b60006117e8611039565b8210611829576040517f08c379a00000000000000000000000000000000000000000000000000000000081526004016118209061568e565b60405180910390fd5b60088281548110611863577f4e487b7100000000000000000000000000000000000000000000000000000000600052603260045260246000fd5b90600052602060002001549050919050565b601b60019054906101000a900460ff1681565b611890610c5b565b73ffffffffffffffffffffffffffffffffffffffff166118ae611ca5565b73ffffffffffffffffffffffffffffffffffffffff1614611904576040517f08c379a00000000000000000000000000000000000000000000000000000000081526004016118fb9061558e565b60405180910390fd5b806011908051906020019061191a929190613ed5565b5050565b601b60009054906101000a900460ff1681565b6000806002600084815260200190815260200160002060009054906101000a900473ffffffffffffffffffffffffffffffffffffffff169050600073ffffffffffffffffffffffffffffffffffffffff168173ffffffffffffffffffffffffffffffffffffffff1614156119da576040517f08c379a00000000000000000000000000000000000000000000000000000000081526004016119d1906154ee565b60405180910390fd5b80915050919050565b601180546119f090615a49565b80601f0160208091040260200160405190810160405280929190818152602001828054611a1c90615a49565b8015611a695780601f10611a3e57610100808354040283529160200191611a69565b820191906000526020600020905b815481529060010190602001808311611a4c57829003601f168201915b505050505081565b60008073ffffffffffffffffffffffffffffffffffffffff168273ffffffffffffffffffffffffffffffffffffffff161415611ae2576040517f08c379a0000000000000000000000000000000000000000000000000000000008152600401611ad9906154ce565b60405180910390fd5b600360008373ffffffffffffffffffffffffffffffffffffffff1673ffffffffffffffffffffffffffffffffffffffff168152602001908152602001600020549050919050565b611b31610c5b565b73ffffffffffffffffffffffffffffffffffffffff16611b4f611ca5565b73ffffffffffffffffffffffffffffffffffffffff1614611ba5576040517f08c379a0000000000000000000000000000000000000000000000000000000008152600401611b9c9061558e565b60405180910390fd5b611baf60006131c3565b565b611bb9610c5b565b73ffffffffffffffffffffffffffffffffffffffff16611bd7611ca5565b73ffffffffffffffffffffffffffffffffffffffff1614611c2d576040517f08c379a0000000000000000000000000000000000000000000000000000000008152600401611c249061558e565b60405180910390fd5b8060168190555050565b6000600f8281548110611c73577f4e487b7100000000000000000000000000000000000000000000000000000000600052603260045260246000fd5b9060005260206000200160009054906101000a900473ffffffffffffffffffffffffffffffffffffffff169050919050565b6000600a60009054906101000a900473ffffffffffffffffffffffffffffffffffffffff16905090565b606060018054611cde90615a49565b80601f0160208091040260200160405190810160405280929190818152602001828054611d0a90615a49565b8015611d575780601f10611d2c57610100808354040283529160200191611d57565b820191906000526020600020905b815481529060010190602001808311611d3a57829003601f168201915b5050505050905090565b6000600e60008373ffffffffffffffffffffffffffffffffffffffff1673ffffffffffffffffffffffffffffffffffffffff168152602001908152602001600020549050919050565b601b60029054906101000a900460ff1681565b601b60009054906101000a900460ff1615611e0d576040517f08c379a0000000000000000000000000000000000000000000000000000000008152600401611e04906155ae565b60405180910390fd5b6000611e17611039565b905060008211611e5c576040517f08c379a0000000000000000000000000000000000000000000000000000000008152600401611e53906156ce565b60405180910390fd5b601654821115611ea1576040517f08c379a0000000000000000000000000000000000000000000000000000000008152600401611e989061552e565b60405180910390fd5b6015548282611eb09190615836565b1115611ef1576040517f08c379a0000000000000000000000000000000000000000000000000000000008152600401611ee89061550e565b60405180910390fd5b611ef9611ca5565b73ffffffffffffffffffffffffffffffffffffffff163373ffffffffffffffffffffffffffffffffffffffff16146120765760011515601b60029054906101000a900460ff161515141561202557611f50336113db565b611f8f576040517f08c379a0000000000000000000000000000000000000000000000000000000008152600401611f86906156ae565b60405180910390fd5b6000601e60003373ffffffffffffffffffffffffffffffffffffffff1673ffffffffffffffffffffffffffffffffffffffff1681526020019081526020016000205490506017548382611fe29190615836565b1115612023576040517f08c379a000000000000000000000000000000000000000000000000000000000815260040161201a9061538e565b60405180910390fd5b505b8160145461203391906158bd565b341015612075576040517f08c379a000000000000000000000000000000000000000000000000000000000815260040161206c9061564e565b60405180910390fd5b5b6000600190505b8281116122aa57601e60003373ffffffffffffffffffffffffffffffffffffffff1673ffffffffffffffffffffffffffffffffffffffff16815260200190815260200160002060008154809291906120d490615a7b565b91905055506120ee3382846120e99190615836565b613289565b6000606460195442446121019190615836565b61210b9190615836565b6121159190615ac4565b9050806019819055506032811015612296576121666040518060400160405280600781526020017f257320776f6e2100000000000000000000000000000000000000000000000000815250336132a7565b4760185411156121ab576040517f08c379a00000000000000000000000000000000000000000000000000000000081526004016121a29061562e565b60405180910390fd5b60003373ffffffffffffffffffffffffffffffffffffffff166018546040516121d3906151b1565b60006040518083038185875af1925050503d8060008114612210576040519150601f19603f3d011682016040523d82523d6000602084013e612215565b606091505b5050905080612259576040517f08c379a00000000000000000000000000000000000000000000000000000000081526004016122509061540e565b60405180910390fd5b7f2e008cac0ce8b90dd9e80248b5f8d05f95d5d25cc6787b754ba5dd09d12052d43360185460405161228c929190615256565b60405180910390a1505b5080806122a290615a7b565b91505061207d565b505050565b6122b7610c5b565b73ffffffffffffffffffffffffffffffffffffffff168273ffffffffffffffffffffffffffffffffffffffff161415612325576040517f08c379a000000000000000000000000000000000000000000000000000000000815260040161231c906153ee565b60405180910390fd5b8060056000612332610c5b565b73ffffffffffffffffffffffffffffffffffffffff1673ffffffffffffffffffffffffffffffffffffffff16815260200190815260200160002060008473ffffffffffffffffffffffffffffffffffffffff1673ffffffffffffffffffffffffffffffffffffffff16815260200190815260200160002060006101000a81548160ff0219169083151502179055508173ffffffffffffffffffffffffffffffffffffffff166123df610c5b565b73ffffffffffffffffffffffffffffffffffffffff167f17307eab39ab6107e8899845ad3d59bd9653f200f220920489ca2b5937696c318360405161242491906152a1565b60405180910390a35050565b612438610c5b565b73ffffffffffffffffffffffffffffffffffffffff16612456611ca5565b73ffffffffffffffffffffffffffffffffffffffff16146124ac576040517f08c379a00000000000000000000000000000000000000000000000000000000081526004016124a39061558e565b60405180910390fd5b6001601b60016101000a81548160ff021916908315150217905550565b6124da6124d4610c5b565b83612e89565b612519576040517f08c379a00000000000000000000000000000000000000000000000000000000081526004016125109061566e565b60405180910390fd5b61252584848484613343565b50505050565b601c818154811061253b57600080fd5b906000526020600020016000915054906101000a900473ffffffffffffffffffffffffffffffffffffffff1681565b60175481565b6012805461257d90615a49565b80601f01602080910402602001604051908101604052809291908181526020018280546125a990615a49565b80156125f65780601f106125cb576101008083540402835291602001916125f6565b820191906000526020600020905b8154815290600101906020018083116125d957829003601f168201915b505050505081565b606061260982612c70565b612648576040517f08c379a000000000000000000000000000000000000000000000000000000000815260040161263f906155ee565b60405180910390fd5b60001515601b60019054906101000a900460ff16151514156126f6576013805461267190615a49565b80601f016020809104026020016040519081016040528092919081815260200182805461269d90615a49565b80156126ea5780601f106126bf576101008083540402835291602001916126ea565b820191906000526020600020905b8154815290600101906020018083116126cd57829003601f168201915b50505050509050612752565b600061270061339f565b90506000815111612720576040518060200160405280600081525061274e565b8061272a84613431565b601260405160200161273e93929190615180565b6040516020818303038152906040525b9150505b919050565b6000600d60008373ffffffffffffffffffffffffffffffffffffffff1673ffffffffffffffffffffffffffffffffffffffff168152602001908152602001600020549050919050565b6127a8610c5b565b73ffffffffffffffffffffffffffffffffffffffff166127c6611ca5565b73ffffffffffffffffffffffffffffffffffffffff161461281c576040517f08c379a00000000000000000000000000000000000000000000000000000000081526004016128139061558e565b60405180910390fd5b8060178190555050565b60155481565b612834610c5b565b73ffffffffffffffffffffffffffffffffffffffff16612852611ca5565b73ffffffffffffffffffffffffffffffffffffffff16146128a8576040517f08c379a000000000000000000000000000000000000000000000000000000000815260040161289f9061558e565b60405180910390fd5b80601290805190602001906128be929190613ed5565b5050565b6000600c54905090565b6000600560008473ffffffffffffffffffffffffffffffffffffffff1673ffffffffffffffffffffffffffffffffffffffff16815260200190815260200160002060008373ffffffffffffffffffffffffffffffffffffffff1673ffffffffffffffffffffffffffffffffffffffff16815260200190815260200160002060009054906101000a900460ff16905092915050565b612968610c5b565b73ffffffffffffffffffffffffffffffffffffffff16612986611ca5565b73ffffffffffffffffffffffffffffffffffffffff16146129dc576040517f08c379a00000000000000000000000000000000000000000000000000000000081526004016129d39061558e565b60405180910390fd5b601c60006129ea9190613f5b565b8181601c91906129fb929190613f7c565b505050565b612a08610c5b565b73ffffffffffffffffffffffffffffffffffffffff16612a26611ca5565b73ffffffffffffffffffffffffffffffffffffffff1614612a7c576040517f08c379a0000000000000000000000000000000000000000000000000000000008152600401612a739061558e565b60405180910390fd5b8060139080519060200190612a92929190613ed5565b5050565b612a9e610c5b565b73ffffffffffffffffffffffffffffffffffffffff16612abc611ca5565b73ffffffffffffffffffffffffffffffffffffffff1614612b12576040517f08c379a0000000000000000000000000000000000000000000000000000000008152600401612b099061558e565b60405180910390fd5b600073ffffffffffffffffffffffffffffffffffffffff168173ffffffffffffffffffffffffffffffffffffffff161415612b82576040517f08c379a0000000000000000000000000000000000000000000000000000000008152600401612b799061534e565b60405180910390fd5b612b8b816131c3565b50565b60007f80ac58cd000000000000000000000000000000000000000000000000000000007bffffffffffffffffffffffffffffffffffffffffffffffffffffffff1916827bffffffffffffffffffffffffffffffffffffffffffffffffffffffff19161480612c5957507f5b5e139f000000000000000000000000000000000000000000000000000000007bffffffffffffffffffffffffffffffffffffffffffffffffffffffff1916827bffffffffffffffffffffffffffffffffffffffffffffffffffffffff1916145b80612c695750612c68826135de565b5b9050919050565b60008073ffffffffffffffffffffffffffffffffffffffff166002600084815260200190815260200160002060009054906101000a900473ffffffffffffffffffffffffffffffffffffffff1673ffffffffffffffffffffffffffffffffffffffff1614159050919050565b816004600083815260200190815260200160002060006101000a81548173ffffffffffffffffffffffffffffffffffffffff021916908373ffffffffffffffffffffffffffffffffffffffff160217905550808273ffffffffffffffffffffffffffffffffffffffff16612d4f83611931565b73ffffffffffffffffffffffffffffffffffffffff167f8c5be1e5ebec7d5bd14f71427d1e84f3dd0314c0f7b2291e5b200ac8c7c3b92560405160405180910390a45050565b80471015612dd8576040517f08c379a0000000000000000000000000000000000000000000000000000000008152600401612dcf9061544e565b60405180910390fd5b60008273ffffffffffffffffffffffffffffffffffffffff1682604051612dfe906151b1565b60006040518083038185875af1925050503d8060008114612e3b576040519150601f19603f3d011682016040523d82523d6000602084013e612e40565b606091505b5050905080612e84576040517f08c379a0000000000000000000000000000000000000000000000000000000008152600401612e7b9061542e565b60405180910390fd5b505050565b6000612e9482612c70565b612ed3576040517f08c379a0000000000000000000000000000000000000000000000000000000008152600401612eca9061546e565b60405180910390fd5b6000612ede83611931565b90508073ffffffffffffffffffffffffffffffffffffffff168473ffffffffffffffffffffffffffffffffffffffff161480612f4d57508373ffffffffffffffffffffffffffffffffffffffff16612f3584610e08565b73ffffffffffffffffffffffffffffffffffffffff16145b80612f5e5750612f5d81856128cc565b5b91505092915050565b8273ffffffffffffffffffffffffffffffffffffffff16612f8782611931565b73ffffffffffffffffffffffffffffffffffffffff1614612fdd576040517f08c379a0000000000000000000000000000000000000000000000000000000008152600401612fd4906155ce565b60405180910390fd5b600073ffffffffffffffffffffffffffffffffffffffff168273ffffffffffffffffffffffffffffffffffffffff16141561304d576040517f08c379a0000000000000000000000000000000000000000000000000000000008152600401613044906153ce565b60405180910390fd5b613058838383613648565b613063600082612cdc565b6001600360008573ffffffffffffffffffffffffffffffffffffffff1673ffffffffffffffffffffffffffffffffffffffff16815260200190815260200160002060008282546130b39190615917565b925050819055506001600360008473ffffffffffffffffffffffffffffffffffffffff1673ffffffffffffffffffffffffffffffffffffffff168152602001908152602001600020600082825461310a9190615836565b92505081905550816002600083815260200190815260200160002060006101000a81548173ffffffffffffffffffffffffffffffffffffffff021916908373ffffffffffffffffffffffffffffffffffffffff160217905550808273ffffffffffffffffffffffffffffffffffffffff168473ffffffffffffffffffffffffffffffffffffffff167fddf252ad1be2c89b69c2b068fc378daa952ba7f163c4a11628f55a4df523b3ef60405160405180910390a4505050565b6000600a60009054906101000a900473ffffffffffffffffffffffffffffffffffffffff16905081600a60006101000a81548173ffffffffffffffffffffffffffffffffffffffff021916908373ffffffffffffffffffffffffffffffffffffffff1602179055508173ffffffffffffffffffffffffffffffffffffffff168173ffffffffffffffffffffffffffffffffffffffff167f8be0079c531659141344cd1fd0a4f28419497f9722a3daafe3b4186f6b6457e060405160405180910390a35050565b6132a382826040518060200160405280600081525061375c565b5050565b61333f82826040516024016132bd9291906152de565b6040516020818303038152906040527f319af333000000000000000000000000000000000000000000000000000000007bffffffffffffffffffffffffffffffffffffffffffffffffffffffff19166020820180517bffffffffffffffffffffffffffffffffffffffffffffffffffffffff83818316178352505050506137b7565b5050565b61334e848484612f67565b61335a848484846137e0565b613399576040517f08c379a00000000000000000000000000000000000000000000000000000000081526004016133909061532e565b60405180910390fd5b50505050565b6060601180546133ae90615a49565b80601f01602080910402602001604051908101604052809291908181526020018280546133da90615a49565b80156134275780601f106133fc57610100808354040283529160200191613427565b820191906000526020600020905b81548152906001019060200180831161340a57829003601f168201915b5050505050905090565b60606000821415613479576040518060400160405280600181526020017f300000000000000000000000000000000000000000000000000000000000000081525090506135d9565b600082905060005b600082146134ab57808061349490615a7b565b915050600a826134a4919061588c565b9150613481565b60008167ffffffffffffffff8111156134ed577f4e487b7100000000000000000000000000000000000000000000000000000000600052604160045260246000fd5b6040519080825280601f01601f19166020018201604052801561351f5781602001600182028036833780820191505090505b5090505b600085146135d2576001826135389190615917565b9150600a856135479190615ac4565b60306135539190615836565b60f81b81838151811061358f577f4e487b7100000000000000000000000000000000000000000000000000000000600052603260045260246000fd5b60200101907effffffffffffffffffffffffffffffffffffffffffffffffffffffffffffff1916908160001a905350600a856135cb919061588c565b9450613523565b8093505050505b919050565b60007f01ffc9a7000000000000000000000000000000000000000000000000000000007bffffffffffffffffffffffffffffffffffffffffffffffffffffffff1916827bffffffffffffffffffffffffffffffffffffffffffffffffffffffff1916149050919050565b613653838383613977565b600073ffffffffffffffffffffffffffffffffffffffff168373ffffffffffffffffffffffffffffffffffffffff161415613696576136918161397c565b6136d5565b8173ffffffffffffffffffffffffffffffffffffffff168373ffffffffffffffffffffffffffffffffffffffff16146136d4576136d383826139c5565b5b5b600073ffffffffffffffffffffffffffffffffffffffff168273ffffffffffffffffffffffffffffffffffffffff1614156137185761371381613b32565b613757565b8273ffffffffffffffffffffffffffffffffffffffff168273ffffffffffffffffffffffffffffffffffffffff1614613756576137558282613c75565b5b5b505050565b6137668383613cf4565b61377360008484846137e0565b6137b2576040517f08c379a00000000000000000000000000000000000000000000000000000000081526004016137a99061532e565b60405180910390fd5b505050565b60008151905060006a636f6e736f6c652e6c6f679050602083016000808483855afa5050505050565b60006138018473ffffffffffffffffffffffffffffffffffffffff16613ec2565b1561396a578373ffffffffffffffffffffffffffffffffffffffff1663150b7a0261382a610c5b565b8786866040518563ffffffff1660e01b815260040161384c949392919061520a565b602060405180830381600087803b15801561386657600080fd5b505af192505050801561389757506040513d601f19601f820116820180604052508101906138949190614438565b60015b61391a573d80600081146138c7576040519150601f19603f3d011682016040523d82523d6000602084013e6138cc565b606091505b50600081511415613912576040517f08c379a00000000000000000000000000000000000000000000000000000000081526004016139099061532e565b60405180910390fd5b805181602001fd5b63150b7a0260e01b7bffffffffffffffffffffffffffffffffffffffffffffffffffffffff1916817bffffffffffffffffffffffffffffffffffffffffffffffffffffffff19161491505061396f565b600190505b949350505050565b505050565b6008805490506009600083815260200190815260200160002081905550600881908060018154018082558091505060019003906000526020600020016000909190919091505550565b600060016139d284611a71565b6139dc9190615917565b9050600060076000848152602001908152602001600020549050818114613ac1576000600660008673ffffffffffffffffffffffffffffffffffffffff1673ffffffffffffffffffffffffffffffffffffffff168152602001908152602001600020600084815260200190815260200160002054905080600660008773ffffffffffffffffffffffffffffffffffffffff1673ffffffffffffffffffffffffffffffffffffffff168152602001908152602001600020600084815260200190815260200160002081905550816007600083815260200190815260200160002081905550505b6007600084815260200190815260200160002060009055600660008573ffffffffffffffffffffffffffffffffffffffff1673ffffffffffffffffffffffffffffffffffffffff16815260200190815260200160002060008381526020019081526020016000206000905550505050565b60006001600880549050613b469190615917565b9050600060096000848152602001908152602001600020549050600060088381548110613b9c577f4e487b7100000000000000000000000000000000000000000000000000000000600052603260045260246000fd5b906000526020600020015490508060088381548110613be4577f4e487b7100000000000000000000000000000000000000000000000000000000600052603260045260246000fd5b906000526020600020018190555081600960008381526020019081526020016000208190555060096000858152602001908152602001600020600090556008805480613c59577f4e487b7100000000000000000000000000000000000000000000000000000000600052603160045260246000fd5b6001900381819060005260206000200160009055905550505050565b6000613c8083611a71565b905081600660008573ffffffffffffffffffffffffffffffffffffffff1673ffffffffffffffffffffffffffffffffffffffff168152602001908152602001600020600083815260200190815260200160002081905550806007600084815260200190815260200160002081905550505050565b600073ffffffffffffffffffffffffffffffffffffffff168273ffffffffffffffffffffffffffffffffffffffff161415613d64576040517f08c379a0000000000000000000000000000000000000000000000000000000008152600401613d5b9061554e565b60405180910390fd5b613d6d81612c70565b15613dad576040517f08c379a0000000000000000000000000000000000000000000000000000000008152600401613da49061536e565b60405180910390fd5b613db960008383613648565b6001600360008473ffffffffffffffffffffffffffffffffffffffff1673ffffffffffffffffffffffffffffffffffffffff1681526020019081526020016000206000828254613e099190615836565b92505081905550816002600083815260200190815260200160002060006101000a81548173ffffffffffffffffffffffffffffffffffffffff021916908373ffffffffffffffffffffffffffffffffffffffff160217905550808273ffffffffffffffffffffffffffffffffffffffff16600073ffffffffffffffffffffffffffffffffffffffff167fddf252ad1be2c89b69c2b068fc378daa952ba7f163c4a11628f55a4df523b3ef60405160405180910390a45050565b600080823b905060008111915050919050565b828054613ee190615a49565b90600052602060002090601f016020900481019282613f035760008555613f4a565b82601f10613f1c57805160ff1916838001178555613f4a565b82800160010185558215613f4a579182015b82811115613f49578251825591602001919060010190613f2e565b5b509050613f57919061401c565b5090565b5080546000825590600052602060002090810190613f79919061401c565b50565b82805482825590600052602060002090810192821561400b579160200282015b8281111561400a57823573ffffffffffffffffffffffffffffffffffffffff168260006101000a81548173ffffffffffffffffffffffffffffffffffffffff021916908373ffffffffffffffffffffffffffffffffffffffff16021790555091602001919060010190613f9c565b5b509050614018919061401c565b5090565b5b8082111561403557600081600090555060010161401d565b5090565b600061404c6140478461573a565b615709565b90508281526020810184848401111561406457600080fd5b61406f848285615a07565b509392505050565b600061408a6140858461576a565b615709565b9050828152602081018484840111156140a257600080fd5b6140ad848285615a07565b509392505050565b6000813590506140c481615bc2565b92915050565b6000813590506140d981615bd9565b92915050565b60008083601f8401126140f157600080fd5b8235905067ffffffffffffffff81111561410a57600080fd5b60208301915083602082028301111561412257600080fd5b9250929050565b60008135905061413881615bf0565b92915050565b60008135905061414d81615c07565b92915050565b60008151905061416281615c07565b92915050565b600082601f83011261417957600080fd5b8135614189848260208601614039565b91505092915050565b600082601f8301126141a357600080fd5b81356141b3848260208601614077565b91505092915050565b6000813590506141cb81615c1e565b92915050565b6000602082840312156141e357600080fd5b60006141f1848285016140b5565b91505092915050565b60006020828403121561420c57600080fd5b600061421a848285016140ca565b91505092915050565b6000806040838503121561423657600080fd5b6000614244858286016140b5565b9250506020614255858286016140b5565b9150509250929050565b60008060006060848603121561427457600080fd5b6000614282868287016140b5565b9350506020614293868287016140b5565b92505060406142a4868287016141bc565b9150509250925092565b600080600080608085870312156142c457600080fd5b60006142d2878288016140b5565b94505060206142e3878288016140b5565b93505060406142f4878288016141bc565b925050606085013567ffffffffffffffff81111561431157600080fd5b61431d87828801614168565b91505092959194509250565b6000806040838503121561433c57600080fd5b600061434a858286016140b5565b925050602061435b85828601614129565b9150509250929050565b6000806040838503121561437857600080fd5b6000614386858286016140b5565b9250506020614397858286016141bc565b9150509250929050565b600080602083850312156143b457600080fd5b600083013567ffffffffffffffff8111156143ce57600080fd5b6143da858286016140df565b92509250509250929050565b6000602082840312156143f857600080fd5b600061440684828501614129565b91505092915050565b60006020828403121561442157600080fd5b600061442f8482850161413e565b91505092915050565b60006020828403121561444a57600080fd5b600061445884828501614153565b91505092915050565b60006020828403121561447357600080fd5b600082013567ffffffffffffffff81111561448d57600080fd5b61449984828501614192565b91505092915050565b6000602082840312156144b457600080fd5b60006144c2848285016141bc565b91505092915050565b60006144d78383615162565b60208301905092915050565b6144ec816159d1565b82525050565b6144fb8161594b565b82525050565b600061450c826157bf565b61451681856157ed565b93506145218361579a565b8060005b8381101561455257815161453988826144cb565b9750614544836157e0565b925050600181019050614525565b5085935050505092915050565b6145688161596f565b82525050565b6000614579826157ca565b61458381856157fe565b9350614593818560208601615a16565b61459c81615bb1565b840191505092915050565b60006145b2826157d5565b6145bc818561581a565b93506145cc818560208601615a16565b6145d581615bb1565b840191505092915050565b60006145eb826157d5565b6145f5818561582b565b9350614605818560208601615a16565b80840191505092915050565b6000815461461e81615a49565b614628818661582b565b94506001821660008114614643576001811461465457614687565b60ff19831686528186019350614687565b61465d856157aa565b60005b8381101561467f57815481890152600182019150602081019050614660565b838801955050505b50505092915050565b600061469d602b8361581a565b91507f455243373231456e756d657261626c653a206f776e657220696e646578206f7560008301527f74206f6620626f756e64730000000000000000000000000000000000000000006020830152604082019050919050565b600061470360328361581a565b91507f4552433732313a207472616e7366657220746f206e6f6e20455243373231526560008301527f63656976657220696d706c656d656e74657200000000000000000000000000006020830152604082019050919050565b600061476960268361581a565b91507f4f776e61626c653a206e6577206f776e657220697320746865207a65726f206160008301527f64647265737300000000000000000000000000000000000000000000000000006020830152604082019050919050565b60006147cf601c8361581a565b91507f4552433732313a20746f6b656e20616c7265616479206d696e746564000000006000830152602082019050919050565b600061480f601c8361581a565b91507f6d6178204e4654207065722061646472657373206578636565646564000000006000830152602082019050919050565b600061484f60268361581a565b91507f5061796d656e7453706c69747465723a206163636f756e7420686173206e6f2060008301527f73686172657300000000000000000000000000000000000000000000000000006020830152604082019050919050565b60006148b560248361581a565b91507f4552433732313a207472616e7366657220746f20746865207a65726f2061646460008301527f72657373000000000000000000000000000000000000000000000000000000006020830152604082019050919050565b600061491b60198361581a565b91507f4552433732313a20617070726f766520746f2063616c6c6572000000000000006000830152602082019050919050565b600061495b60278361581a565b91507f4661696c656420746f207769746864726177206d6f6e65792066726f6d20636f60008301527f6e74726163742e000000000000000000000000000000000000000000000000006020830152604082019050919050565b60006149c1603a8361581a565b91507f416464726573733a20756e61626c6520746f2073656e642076616c75652c207260008301527f6563697069656e74206d617920686176652072657665727465640000000000006020830152604082019050919050565b6000614a27601d8361581a565b91507f416464726573733a20696e73756666696369656e742062616c616e63650000006000830152602082019050919050565b6000614a67602c8361581a565b91507f4552433732313a206f70657261746f7220717565727920666f72206e6f6e657860008301527f697374656e7420746f6b656e00000000000000000000000000000000000000006020830152604082019050919050565b6000614acd602b8361581a565b91507f5061796d656e7453706c69747465723a206163636f756e74206973206e6f742060008301527f647565207061796d656e740000000000000000000000000000000000000000006020830152604082019050919050565b6000614b3360388361581a565b91507f4552433732313a20617070726f76652063616c6c6572206973206e6f74206f7760008301527f6e6572206e6f7220617070726f76656420666f7220616c6c00000000000000006020830152604082019050919050565b6000614b99602a8361581a565b91507f4552433732313a2062616c616e636520717565727920666f7220746865207a6560008301527f726f2061646472657373000000000000000000000000000000000000000000006020830152604082019050919050565b6000614bff60298361581a565b91507f4552433732313a206f776e657220717565727920666f72206e6f6e657869737460008301527f656e7420746f6b656e00000000000000000000000000000000000000000000006020830152604082019050919050565b6000614c6560168361581a565b91507f6d6178204e4654206c696d6974206578636565646564000000000000000000006000830152602082019050919050565b6000614ca560248361581a565b91507f6d6178206d696e7420616d6f756e74207065722073657373696f6e206578636560008301527f65646564000000000000000000000000000000000000000000000000000000006020830152604082019050919050565b6000614d0b60208361581a565b91507f4552433732313a206d696e7420746f20746865207a65726f20616464726573736000830152602082019050919050565b6000614d4b602c8361581a565b91507f4552433732313a20617070726f76656420717565727920666f72206e6f6e657860008301527f697374656e7420746f6b656e00000000000000000000000000000000000000006020830152604082019050919050565b6000614db160208361581a565b91507f4f776e61626c653a2063616c6c6572206973206e6f7420746865206f776e65726000830152602082019050919050565b6000614df160168361581a565b91507f74686520636f6e747261637420697320706175736564000000000000000000006000830152602082019050919050565b6000614e3160298361581a565b91507f4552433732313a207472616e73666572206f6620746f6b656e2074686174206960008301527f73206e6f74206f776e00000000000000000000000000000000000000000000006020830152604082019050919050565b6000614e97602f8361581a565b91507f4552433732314d657461646174613a2055524920717565727920666f72206e6f60008301527f6e6578697374656e7420746f6b656e00000000000000000000000000000000006020830152604082019050919050565b6000614efd60218361581a565b91507f4552433732313a20617070726f76616c20746f2063757272656e74206f776e6560008301527f72000000000000000000000000000000000000000000000000000000000000006020830152604082019050919050565b6000614f6360358361581a565b91507f547279696e6720746f207769746864726177206d6f7265206d6f6e657920746860008301527f616e207468657920636f6e7472616374206861732e00000000000000000000006020830152604082019050919050565b6000614fc960008361580f565b9150600082019050919050565b6000614fe360128361581a565b91507f696e73756666696369656e742066756e647300000000000000000000000000006000830152602082019050919050565b600061502360318361581a565b91507f4552433732313a207472616e736665722063616c6c6572206973206e6f74206f60008301527f776e6572206e6f7220617070726f7665640000000000000000000000000000006020830152604082019050919050565b6000615089602c8361581a565b91507f455243373231456e756d657261626c653a20676c6f62616c20696e646578206f60008301527f7574206f6620626f756e647300000000000000000000000000000000000000006020830152604082019050919050565b60006150ef60178361581a565b91507f75736572206973206e6f742077686974656c69737465640000000000000000006000830152602082019050919050565b600061512f601b8361581a565b91507f6e65656420746f206d696e74206174206c656173742031204e465400000000006000830152602082019050919050565b61516b816159c7565b82525050565b61517a816159c7565b82525050565b600061518c82866145e0565b915061519882856145e0565b91506151a48284614611565b9150819050949350505050565b60006151bc82614fbc565b9150819050919050565b60006020820190506151db60008301846144f2565b92915050565b60006040820190506151f660008301856144e3565b6152036020830184615171565b9392505050565b600060808201905061521f60008301876144f2565b61522c60208301866144f2565b6152396040830185615171565b818103606083015261524b818461456e565b905095945050505050565b600060408201905061526b60008301856144f2565b6152786020830184615171565b9392505050565b600060208201905081810360008301526152998184614501565b905092915050565b60006020820190506152b6600083018461455f565b92915050565b600060208201905081810360008301526152d681846145a7565b905092915050565b600060408201905081810360008301526152f881856145a7565b905061530760208301846144f2565b9392505050565b6000602082019050818103600083015261532781614690565b9050919050565b60006020820190508181036000830152615347816146f6565b9050919050565b600060208201905081810360008301526153678161475c565b9050919050565b60006020820190508181036000830152615387816147c2565b9050919050565b600060208201905081810360008301526153a781614802565b9050919050565b600060208201905081810360008301526153c781614842565b9050919050565b600060208201905081810360008301526153e7816148a8565b9050919050565b600060208201905081810360008301526154078161490e565b9050919050565b600060208201905081810360008301526154278161494e565b9050919050565b60006020820190508181036000830152615447816149b4565b9050919050565b6000602082019050818103600083015261546781614a1a565b9050919050565b6000602082019050818103600083015261548781614a5a565b9050919050565b600060208201905081810360008301526154a781614ac0565b9050919050565b600060208201905081810360008301526154c781614b26565b9050919050565b600060208201905081810360008301526154e781614b8c565b9050919050565b6000602082019050818103600083015261550781614bf2565b9050919050565b6000602082019050818103600083015261552781614c58565b9050919050565b6000602082019050818103600083015261554781614c98565b9050919050565b6000602082019050818103600083015261556781614cfe565b9050919050565b6000602082019050818103600083015261558781614d3e565b9050919050565b600060208201905081810360008301526155a781614da4565b9050919050565b600060208201905081810360008301526155c781614de4565b9050919050565b600060208201905081810360008301526155e781614e24565b9050919050565b6000602082019050818103600083015261560781614e8a565b9050919050565b6000602082019050818103600083015261562781614ef0565b9050919050565b6000602082019050818103600083015261564781614f56565b9050919050565b6000602082019050818103600083015261566781614fd6565b9050919050565b6000602082019050818103600083015261568781615016565b9050919050565b600060208201905081810360008301526156a78161507c565b9050919050565b600060208201905081810360008301526156c7816150e2565b9050919050565b600060208201905081810360008301526156e781615122565b9050919050565b60006020820190506157036000830184615171565b92915050565b6000604051905081810181811067ffffffffffffffff821117156157305761572f615b82565b5b8060405250919050565b600067ffffffffffffffff82111561575557615754615b82565b5b601f19601f8301169050602081019050919050565b600067ffffffffffffffff82111561578557615784615b82565b5b601f19601f8301169050602081019050919050565b6000819050602082019050919050565b60008190508160005260206000209050919050565b600081519050919050565b600081519050919050565b600081519050919050565b6000602082019050919050565b600082825260208201905092915050565b600082825260208201905092915050565b600081905092915050565b600082825260208201905092915050565b600081905092915050565b6000615841826159c7565b915061584c836159c7565b9250827fffffffffffffffffffffffffffffffffffffffffffffffffffffffffffffffff0382111561588157615880615af5565b5b828201905092915050565b6000615897826159c7565b91506158a2836159c7565b9250826158b2576158b1615b24565b5b828204905092915050565b60006158c8826159c7565b91506158d3836159c7565b9250817fffffffffffffffffffffffffffffffffffffffffffffffffffffffffffffffff048311821515161561590c5761590b615af5565b5b828202905092915050565b6000615922826159c7565b915061592d836159c7565b9250828210156159405761593f615af5565b5b828203905092915050565b6000615956826159a7565b9050919050565b6000615968826159a7565b9050919050565b60008115159050919050565b60007fffffffff0000000000000000000000000000000000000000000000000000000082169050919050565b600073ffffffffffffffffffffffffffffffffffffffff82169050919050565b6000819050919050565b60006159dc826159e3565b9050919050565b60006159ee826159f5565b9050919050565b6000615a00826159a7565b9050919050565b82818337600083830152505050565b60005b83811015615a34578082015181840152602081019050615a19565b83811115615a43576000848401525b50505050565b60006002820490506001821680615a6157607f821691505b60208210811415615a7557615a74615b53565b5b50919050565b6000615a86826159c7565b91507fffffffffffffffffffffffffffffffffffffffffffffffffffffffffffffffff821415615ab957615ab8615af5565b5b600182019050919050565b6000615acf826159c7565b9150615ada836159c7565b925082615aea57615ae9615b24565b5b828206905092915050565b7f4e487b7100000000000000000000000000000000000000000000000000000000600052601160045260246000fd5b7f4e487b7100000000000000000000000000000000000000000000000000000000600052601260045260246000fd5b7f4e487b7100000000000000000000000000000000000000000000000000000000600052602260045260246000fd5b7f4e487b7100000000000000000000000000000000000000000000000000000000600052604160045260246000fd5b6000601f19601f8301169050919050565b615bcb8161594b565b8114615bd657600080fd5b50565b615be28161595d565b8114615bed57600080fd5b50565b615bf98161596f565b8114615c0457600080fd5b50565b615c108161597b565b8114615c1b57600080fd5b50565b615c27816159c7565b8114615c3257600080fd5b5056fea26469706673582212201f3d9414f6fc7a5f387038632676827f3c4f595828ee63b238f6062cfa5392cf64736f6c63430008000033",
  "linkReferences": {},
  "deployedLinkReferences": {}
}