{
  "_format": "hh-sol-artifact-1",
  "contractName": "testNFT",
  "sourceName": "contracts/testNFT.sol",
  "abi": [
    {
      "inputs": [
        {
          "internalType": "string",
          "name": "_name",
          "type": "string"
        },
        {
          "internalType": "string",
          "name": "_symbol",
          "type": "string"
        },
        {
          "internalType": "string",
          "name": "_initBaseURI",
          "type": "string"
        },
        {
          "internalType": "string",
          "name": "_initNotRevealedUri",
          "type": "string"
        },
        {
          "internalType": "address",
          "name": "_token",
          "type": "address"
        }
      ],
      "stateMutability": "payable",
      "type": "constructor"
    },
    {
      "anonymous": false,
      "inputs": [
        {
          "indexed": true,
          "internalType": "address",
          "name": "owner",
          "type": "address"
        },
        {
          "indexed": true,
          "internalType": "address",
          "name": "approved",
          "type": "address"
        },
        {
          "indexed": true,
          "internalType": "uint256",
          "name": "tokenId",
          "type": "uint256"
        }
      ],
      "name": "Approval",
      "type": "event"
    },
    {
      "anonymous": false,
      "inputs": [
        {
          "indexed": true,
          "internalType": "address",
          "name": "owner",
          "type": "address"
        },
        {
          "indexed": true,
          "internalType": "address",
          "name": "operator",
          "type": "address"
        },
        {
          "indexed": false,
          "internalType": "bool",
          "name": "approved",
          "type": "bool"
        }
      ],
      "name": "ApprovalForAll",
      "type": "event"
    },
    {
      "anonymous": false,
      "inputs": [
        {
          "indexed": true,
          "internalType": "address",
          "name": "previousOwner",
          "type": "address"
        },
        {
          "indexed": true,
          "internalType": "address",
          "name": "newOwner",
          "type": "address"
        }
      ],
      "name": "OwnershipTransferred",
      "type": "event"
    },
    {
      "anonymous": false,
      "inputs": [
        {
          "indexed": true,
          "internalType": "address",
          "name": "from",
          "type": "address"
        },
        {
          "indexed": true,
          "internalType": "address",
          "name": "to",
          "type": "address"
        },
        {
          "indexed": true,
          "internalType": "uint256",
          "name": "tokenId",
          "type": "uint256"
        }
      ],
      "name": "Transfer",
      "type": "event"
    },
    {
      "anonymous": false,
      "inputs": [
        {
          "indexed": false,
          "internalType": "address",
          "name": "sender",
          "type": "address"
        },
        {
          "indexed": false,
          "internalType": "uint256",
          "name": "prize",
          "type": "uint256"
        }
      ],
      "name": "WinningMint",
      "type": "event"
    },
    {
      "inputs": [
        {
          "internalType": "address",
          "name": "",
          "type": "address"
        }
      ],
      "name": "addressMintedBalance",
      "outputs": [
        {
          "internalType": "uint256",
          "name": "",
          "type": "uint256"
        }
      ],
      "stateMutability": "view",
      "type": "function"
    },
    {
      "inputs": [
        {
          "internalType": "address",
          "name": "to",
          "type": "address"
        },
        {
          "internalType": "uint256",
          "name": "tokenId",
          "type": "uint256"
        }
      ],
      "name": "approve",
      "outputs": [],
      "stateMutability": "nonpayable",
      "type": "function"
    },
    {
      "inputs": [
        {
          "internalType": "address",
          "name": "owner",
          "type": "address"
        }
      ],
      "name": "balanceOf",
      "outputs": [
        {
          "internalType": "uint256",
          "name": "",
          "type": "uint256"
        }
      ],
      "stateMutability": "view",
      "type": "function"
    },
    {
      "inputs": [],
      "name": "baseExtension",
      "outputs": [
        {
          "internalType": "string",
          "name": "",
          "type": "string"
        }
      ],
      "stateMutability": "view",
      "type": "function"
    },
    {
      "inputs": [],
      "name": "baseURI",
      "outputs": [
        {
          "internalType": "string",
          "name": "",
          "type": "string"
        }
      ],
      "stateMutability": "view",
      "type": "function"
    },
    {
      "inputs": [],
      "name": "cost",
      "outputs": [
        {
          "internalType": "uint256",
          "name": "",
          "type": "uint256"
        }
      ],
      "stateMutability": "view",
      "type": "function"
    },
    {
      "inputs": [
        {
          "internalType": "uint256",
          "name": "tokenId",
          "type": "uint256"
        }
      ],
      "name": "getApproved",
      "outputs": [
        {
          "internalType": "address",
          "name": "",
          "type": "address"
        }
      ],
      "stateMutability": "view",
      "type": "function"
    },
    {
      "inputs": [
        {
          "internalType": "address",
          "name": "owner",
          "type": "address"
        },
        {
          "internalType": "address",
          "name": "operator",
          "type": "address"
        }
      ],
      "name": "isApprovedForAll",
      "outputs": [
        {
          "internalType": "bool",
          "name": "",
          "type": "bool"
        }
      ],
      "stateMutability": "view",
      "type": "function"
    },
    {
      "inputs": [
        {
          "internalType": "address",
          "name": "_user",
          "type": "address"
        }
      ],
      "name": "isWhitelisted",
      "outputs": [
        {
          "internalType": "bool",
          "name": "",
          "type": "bool"
        }
      ],
      "stateMutability": "view",
      "type": "function"
    },
    {
      "inputs": [],
      "name": "maxMintAmount",
      "outputs": [
        {
          "internalType": "uint256",
          "name": "",
          "type": "uint256"
        }
      ],
      "stateMutability": "view",
      "type": "function"
    },
    {
      "inputs": [],
      "name": "maxSupply",
      "outputs": [
        {
          "internalType": "uint256",
          "name": "",
          "type": "uint256"
        }
      ],
      "stateMutability": "view",
      "type": "function"
    },
    {
      "inputs": [
        {
          "internalType": "uint256",
          "name": "_mintAmount",
          "type": "uint256"
        },
        {
          "internalType": "uint256",
          "name": "_payment",
          "type": "uint256"
        }
      ],
      "name": "mint",
      "outputs": [],
      "stateMutability": "payable",
      "type": "function"
    },
    {
      "inputs": [],
      "name": "name",
      "outputs": [
        {
          "internalType": "string",
          "name": "",
          "type": "string"
        }
      ],
      "stateMutability": "view",
      "type": "function"
    },
    {
      "inputs": [],
      "name": "nftPerAddressLimit",
      "outputs": [
        {
          "internalType": "uint256",
          "name": "",
          "type": "uint256"
        }
      ],
      "stateMutability": "view",
      "type": "function"
    },
    {
      "inputs": [],
      "name": "notRevealedUri",
      "outputs": [
        {
          "internalType": "string",
          "name": "",
          "type": "string"
        }
      ],
      "stateMutability": "view",
      "type": "function"
    },
    {
      "inputs": [],
      "name": "onlyWhitelisted",
      "outputs": [
        {
          "internalType": "bool",
          "name": "",
          "type": "bool"
        }
      ],
      "stateMutability": "view",
      "type": "function"
    },
    {
      "inputs": [],
      "name": "owner",
      "outputs": [
        {
          "internalType": "address",
          "name": "",
          "type": "address"
        }
      ],
      "stateMutability": "view",
      "type": "function"
    },
    {
      "inputs": [
        {
          "internalType": "uint256",
          "name": "tokenId",
          "type": "uint256"
        }
      ],
      "name": "ownerOf",
      "outputs": [
        {
          "internalType": "address",
          "name": "",
          "type": "address"
        }
      ],
      "stateMutability": "view",
      "type": "function"
    },
    {
      "inputs": [
        {
          "internalType": "bool",
          "name": "_state",
          "type": "bool"
        }
      ],
      "name": "pause",
      "outputs": [],
      "stateMutability": "nonpayable",
      "type": "function"
    },
    {
      "inputs": [],
      "name": "paused",
      "outputs": [
        {
          "internalType": "bool",
          "name": "",
          "type": "bool"
        }
      ],
      "stateMutability": "view",
      "type": "function"
    },
    {
      "inputs": [],
      "name": "renounceOwnership",
      "outputs": [],
      "stateMutability": "nonpayable",
      "type": "function"
    },
    {
      "inputs": [],
      "name": "reveal",
      "outputs": [],
      "stateMutability": "nonpayable",
      "type": "function"
    },
    {
      "inputs": [],
      "name": "revealed",
      "outputs": [
        {
          "internalType": "bool",
          "name": "",
          "type": "bool"
        }
      ],
      "stateMutability": "view",
      "type": "function"
    },
    {
      "inputs": [
        {
          "internalType": "address",
          "name": "from",
          "type": "address"
        },
        {
          "internalType": "address",
          "name": "to",
          "type": "address"
        },
        {
          "internalType": "uint256",
          "name": "tokenId",
          "type": "uint256"
        }
      ],
      "name": "safeTransferFrom",
      "outputs": [],
      "stateMutability": "nonpayable",
      "type": "function"
    },
    {
      "inputs": [
        {
          "internalType": "address",
          "name": "from",
          "type": "address"
        },
        {
          "internalType": "address",
          "name": "to",
          "type": "address"
        },
        {
          "internalType": "uint256",
          "name": "tokenId",
          "type": "uint256"
        },
        {
          "internalType": "bytes",
          "name": "_data",
          "type": "bytes"
        }
      ],
      "name": "safeTransferFrom",
      "outputs": [],
      "stateMutability": "nonpayable",
      "type": "function"
    },
    {
      "inputs": [
        {
          "internalType": "address",
          "name": "operator",
          "type": "address"
        },
        {
          "internalType": "bool",
          "name": "approved",
          "type": "bool"
        }
      ],
      "name": "setApprovalForAll",
      "outputs": [],
      "stateMutability": "nonpayable",
      "type": "function"
    },
    {
      "inputs": [
        {
          "internalType": "string",
          "name": "_newBaseExtension",
          "type": "string"
        }
      ],
      "name": "setBaseExtension",
      "outputs": [],
      "stateMutability": "nonpayable",
      "type": "function"
    },
    {
      "inputs": [
        {
          "internalType": "string",
          "name": "_newBaseURI",
          "type": "string"
        }
      ],
      "name": "setBaseURI",
      "outputs": [],
      "stateMutability": "nonpayable",
      "type": "function"
    },
    {
      "inputs": [
        {
          "internalType": "uint256",
          "name": "_newCost",
          "type": "uint256"
        }
      ],
      "name": "setCost",
      "outputs": [],
      "stateMutability": "nonpayable",
      "type": "function"
    },
    {
      "inputs": [
        {
          "internalType": "uint256",
          "name": "_limit",
          "type": "uint256"
        }
      ],
      "name": "setNftPerAddressLimit",
      "outputs": [],
      "stateMutability": "nonpayable",
      "type": "function"
    },
    {
      "inputs": [
        {
          "internalType": "string",
          "name": "_notRevealedURI",
          "type": "string"
        }
      ],
      "name": "setNotRevealedURI",
      "outputs": [],
      "stateMutability": "nonpayable",
      "type": "function"
    },
    {
      "inputs": [
        {
          "internalType": "bool",
          "name": "_state",
          "type": "bool"
        }
      ],
      "name": "setOnlyWhitelisted",
      "outputs": [],
      "stateMutability": "nonpayable",
      "type": "function"
    },
    {
      "inputs": [
        {
          "internalType": "uint256",
          "name": "_newmaxMintAmount",
          "type": "uint256"
        }
      ],
      "name": "setmaxMintAmount",
      "outputs": [],
      "stateMutability": "nonpayable",
      "type": "function"
    },
    {
      "inputs": [
        {
          "internalType": "bytes4",
          "name": "interfaceId",
          "type": "bytes4"
        }
      ],
      "name": "supportsInterface",
      "outputs": [
        {
          "internalType": "bool",
          "name": "",
          "type": "bool"
        }
      ],
      "stateMutability": "view",
      "type": "function"
    },
    {
      "inputs": [],
      "name": "symbol",
      "outputs": [
        {
          "internalType": "string",
          "name": "",
          "type": "string"
        }
      ],
      "stateMutability": "view",
      "type": "function"
    },
    {
      "inputs": [
        {
          "internalType": "uint256",
          "name": "index",
          "type": "uint256"
        }
      ],
      "name": "tokenByIndex",
      "outputs": [
        {
          "internalType": "uint256",
          "name": "",
          "type": "uint256"
        }
      ],
      "stateMutability": "view",
      "type": "function"
    },
    {
      "inputs": [
        {
          "internalType": "address",
          "name": "owner",
          "type": "address"
        },
        {
          "internalType": "uint256",
          "name": "index",
          "type": "uint256"
        }
      ],
      "name": "tokenOfOwnerByIndex",
      "outputs": [
        {
          "internalType": "uint256",
          "name": "",
          "type": "uint256"
        }
      ],
      "stateMutability": "view",
      "type": "function"
    },
    {
      "inputs": [
        {
          "internalType": "uint256",
          "name": "tokenId",
          "type": "uint256"
        }
      ],
      "name": "tokenURI",
      "outputs": [
        {
          "internalType": "string",
          "name": "",
          "type": "string"
        }
      ],
      "stateMutability": "view",
      "type": "function"
    },
    {
      "inputs": [],
      "name": "totalSupply",
      "outputs": [
        {
          "internalType": "uint256",
          "name": "",
          "type": "uint256"
        }
      ],
      "stateMutability": "view",
      "type": "function"
    },
    {
      "inputs": [
        {
          "internalType": "address",
          "name": "from",
          "type": "address"
        },
        {
          "internalType": "address",
          "name": "to",
          "type": "address"
        },
        {
          "internalType": "uint256",
          "name": "tokenId",
          "type": "uint256"
        }
      ],
      "name": "transferFrom",
      "outputs": [],
      "stateMutability": "nonpayable",
      "type": "function"
    },
    {
      "inputs": [
        {
          "internalType": "address",
          "name": "newOwner",
          "type": "address"
        }
      ],
      "name": "transferOwnership",
      "outputs": [],
      "stateMutability": "nonpayable",
      "type": "function"
    },
    {
      "inputs": [
        {
          "internalType": "address",
          "name": "_owner",
          "type": "address"
        }
      ],
      "name": "walletOfOwner",
      "outputs": [
        {
          "internalType": "uint256[]",
          "name": "",
          "type": "uint256[]"
        }
      ],
      "stateMutability": "view",
      "type": "function"
    },
    {
      "inputs": [
        {
          "internalType": "address[]",
          "name": "_users",
          "type": "address[]"
        }
      ],
      "name": "whitelistUsers",
      "outputs": [],
      "stateMutability": "nonpayable",
      "type": "function"
    },
    {
      "inputs": [
        {
          "internalType": "uint256",
          "name": "",
          "type": "uint256"
        }
      ],
      "name": "whitelistedAddresses",
      "outputs": [
        {
          "internalType": "address",
          "name": "",
          "type": "address"
        }
      ],
      "stateMutability": "view",
      "type": "function"
    },
    {
      "inputs": [],
      "name": "withdraw",
      "outputs": [],
      "stateMutability": "payable",
      "type": "function"
    }
  ],
  "bytecode": "0x60806040526040518060400160405280600581526020017f2e6a736f6e000000000000000000000000000000000000000000000000000000815250600d908051906020019062000051929190620003ff565b50662386f26fc10000600f5560966010556014601155601460125566038d7ea4c680006013556000601560006101000a81548160ff0219169083151502179055506000601560016101000a81548160ff0219169083151502179055506001601560026101000a81548160ff02191690831515021790555060405162006183380380620061838339818101604052810190620000ed919062000538565b8484816000908051906020019062000107929190620003ff565b50806001908051906020019062000120929190620003ff565b5050506200014362000137620001b160201b60201c565b620001b960201b60201c565b62000154836200027f60201b60201c565b62000165826200032a60201b60201c565b80600b60006101000a81548173ffffffffffffffffffffffffffffffffffffffff021916908373ffffffffffffffffffffffffffffffffffffffff160217905550505050505062000812565b600033905090565b6000600a60009054906101000a900473ffffffffffffffffffffffffffffffffffffffff16905081600a60006101000a81548173ffffffffffffffffffffffffffffffffffffffff021916908373ffffffffffffffffffffffffffffffffffffffff1602179055508173ffffffffffffffffffffffffffffffffffffffff168173ffffffffffffffffffffffffffffffffffffffff167f8be0079c531659141344cd1fd0a4f28419497f9722a3daafe3b4186f6b6457e060405160405180910390a35050565b6200028f620001b160201b60201c565b73ffffffffffffffffffffffffffffffffffffffff16620002b5620003d560201b60201c565b73ffffffffffffffffffffffffffffffffffffffff16146200030e576040517f08c379a0000000000000000000000000000000000000000000000000000000008152600401620003059062000660565b60405180910390fd5b80600c908051906020019062000326929190620003ff565b5050565b6200033a620001b160201b60201c565b73ffffffffffffffffffffffffffffffffffffffff1662000360620003d560201b60201c565b73ffffffffffffffffffffffffffffffffffffffff1614620003b9576040517f08c379a0000000000000000000000000000000000000000000000000000000008152600401620003b09062000660565b60405180910390fd5b80600e9080519060200190620003d1929190620003ff565b5050565b6000600a60009054906101000a900473ffffffffffffffffffffffffffffffffffffffff16905090565b8280546200040d9062000764565b90600052602060002090601f0160209004810192826200043157600085556200047d565b82601f106200044c57805160ff19168380011785556200047d565b828001600101855582156200047d579182015b828111156200047c5782518255916020019190600101906200045f565b5b5090506200048c919062000490565b5090565b5b80821115620004ab57600081600090555060010162000491565b5090565b6000620004c6620004c084620006b6565b62000682565b905082815260208101848484011115620004df57600080fd5b620004ec8482856200072e565b509392505050565b6000815190506200050581620007f8565b92915050565b600082601f8301126200051d57600080fd5b81516200052f848260208601620004af565b91505092915050565b600080600080600060a086880312156200055157600080fd5b600086015167ffffffffffffffff8111156200056c57600080fd5b6200057a888289016200050b565b955050602086015167ffffffffffffffff8111156200059857600080fd5b620005a6888289016200050b565b945050604086015167ffffffffffffffff811115620005c457600080fd5b620005d2888289016200050b565b935050606086015167ffffffffffffffff811115620005f057600080fd5b620005fe888289016200050b565b92505060806200061188828901620004f4565b9150509295509295909350565b60006200062d602083620006e9565b91507f4f776e61626c653a2063616c6c6572206973206e6f7420746865206f776e65726000830152602082019050919050565b600060208201905081810360008301526200067b816200061e565b9050919050565b6000604051905081810181811067ffffffffffffffff82111715620006ac57620006ab620007c9565b5b8060405250919050565b600067ffffffffffffffff821115620006d457620006d3620007c9565b5b601f19601f8301169050602081019050919050565b600082825260208201905092915050565b600062000707826200070e565b9050919050565b600073ffffffffffffffffffffffffffffffffffffffff82169050919050565b60005b838110156200074e57808201518184015260208101905062000731565b838111156200075e576000848401525b50505050565b600060028204905060018216806200077d57607f821691505b602082108114156200079457620007936200079a565b5b50919050565b7f4e487b7100000000000000000000000000000000000000000000000000000000600052602260045260246000fd5b7f4e487b7100000000000000000000000000000000000000000000000000000000600052604160045260246000fd5b6200080381620006fa565b81146200080f57600080fd5b50565b61596180620008226000396000f3fe6080604052600436106102725760003560e01c80635c975abb1161014f578063b88d4fde116100c1578063d5abeb011161007a578063d5abeb011461095c578063da3ef23f14610987578063e985e9c5146109b0578063edec5f27146109ed578063f2c4ce1e14610a16578063f2fde38b14610a3f57610272565b8063b88d4fde1461083a578063ba4e5c4914610863578063ba7d2c76146108a0578063c6682862146108cb578063c87b56dd146108f6578063d0eb26b01461093357610272565b80637f00c7a6116101135780637f00c7a6146107505780638da5cb5b1461077957806395d89b41146107a45780639c70b512146107cf578063a22cb465146107fa578063a475b5dd1461082357610272565b80635c975abb146106695780636352211e146106945780636c0360eb146106d157806370a08231146106fc578063715018a61461073957610272565b806323b872dd116101e857806342842e0e116101ac57806342842e0e14610549578063438b63001461057257806344a0d68a146105af5780634f6ccce7146105d8578063518302271461061557806355f804b31461064057610272565b806323b872dd146104735780632f745c591461049c5780633af32abf146104d95780633c952764146105165780633ccfd60b1461053f57610272565b8063095ea7b31161023a578063095ea7b31461037057806313faede61461039957806318160ddd146103c457806318cae269146103ef5780631b2ef1ca1461042c578063239c70ae1461044857610272565b806301ffc9a71461027757806302329a29146102b457806306fdde03146102dd578063081812fc14610308578063081c8c4414610345575b600080fd5b34801561028357600080fd5b5061029e600480360381019061029991906141c4565b610a68565b6040516102ab9190615036565b60405180910390f35b3480156102c057600080fd5b506102db60048036038101906102d69190614172565b610ae2565b005b3480156102e957600080fd5b506102f2610b7b565b6040516102ff9190615051565b60405180910390f35b34801561031457600080fd5b5061032f600480360381019061032a9190614257565b610c0d565b60405161033c9190614f4d565b60405180910390f35b34801561035157600080fd5b5061035a610c92565b6040516103679190615051565b60405180910390f35b34801561037c57600080fd5b50610397600480360381019061039291906140f1565b610d20565b005b3480156103a557600080fd5b506103ae610e38565b6040516103bb9190615443565b60405180910390f35b3480156103d057600080fd5b506103d9610e3e565b6040516103e69190615443565b60405180910390f35b3480156103fb57600080fd5b5061041660048036038101906104119190613f86565b610e4b565b6040516104239190615443565b60405180910390f35b610446600480360381019061044191906142a9565b610e63565b005b34801561045457600080fd5b5061045d6113ef565b60405161046a9190615443565b60405180910390f35b34801561047f57600080fd5b5061049a60048036038101906104959190613feb565b6113f5565b005b3480156104a857600080fd5b506104c360048036038101906104be91906140f1565b611455565b6040516104d09190615443565b60405180910390f35b3480156104e557600080fd5b5061050060048036038101906104fb9190613f86565b6114fa565b60405161050d9190615036565b60405180910390f35b34801561052257600080fd5b5061053d60048036038101906105389190614172565b6115cf565b005b610547611668565b005b34801561055557600080fd5b50610570600480360381019061056b9190613feb565b61175d565b005b34801561057e57600080fd5b5061059960048036038101906105949190613f86565b61177d565b6040516105a69190615014565b60405180910390f35b3480156105bb57600080fd5b506105d660048036038101906105d19190614257565b611877565b005b3480156105e457600080fd5b506105ff60048036038101906105fa9190614257565b6118fd565b60405161060c9190615443565b60405180910390f35b34801561062157600080fd5b5061062a611994565b6040516106379190615036565b60405180910390f35b34801561064c57600080fd5b5061066760048036038101906106629190614216565b6119a7565b005b34801561067557600080fd5b5061067e611a3d565b60405161068b9190615036565b60405180910390f35b3480156106a057600080fd5b506106bb60048036038101906106b69190614257565b611a50565b6040516106c89190614f4d565b60405180910390f35b3480156106dd57600080fd5b506106e6611b02565b6040516106f39190615051565b60405180910390f35b34801561070857600080fd5b50610723600480360381019061071e9190613f86565b611b90565b6040516107309190615443565b60405180910390f35b34801561074557600080fd5b5061074e611c48565b005b34801561075c57600080fd5b5061077760048036038101906107729190614257565b611cd0565b005b34801561078557600080fd5b5061078e611d56565b60405161079b9190614f4d565b60405180910390f35b3480156107b057600080fd5b506107b9611d80565b6040516107c69190615051565b60405180910390f35b3480156107db57600080fd5b506107e4611e12565b6040516107f19190615036565b60405180910390f35b34801561080657600080fd5b50610821600480360381019061081c91906140b5565b611e25565b005b34801561082f57600080fd5b50610838611fa6565b005b34801561084657600080fd5b50610861600480360381019061085c919061403a565b61203f565b005b34801561086f57600080fd5b5061088a60048036038101906108859190614257565b6120a1565b6040516108979190614f4d565b60405180910390f35b3480156108ac57600080fd5b506108b56120e0565b6040516108c29190615443565b60405180910390f35b3480156108d757600080fd5b506108e06120e6565b6040516108ed9190615051565b60405180910390f35b34801561090257600080fd5b5061091d60048036038101906109189190614257565b612174565b60405161092a9190615051565b60405180910390f35b34801561093f57600080fd5b5061095a60048036038101906109559190614257565b6122cd565b005b34801561096857600080fd5b50610971612353565b60405161097e9190615443565b60405180910390f35b34801561099357600080fd5b506109ae60048036038101906109a99190614216565b612359565b005b3480156109bc57600080fd5b506109d760048036038101906109d29190613faf565b6123ef565b6040516109e49190615036565b60405180910390f35b3480156109f957600080fd5b50610a146004803603810190610a0f919061412d565b612483565b005b348015610a2257600080fd5b50610a3d6004803603810190610a389190614216565b612523565b005b348015610a4b57600080fd5b50610a666004803603810190610a619190613f86565b6125b9565b005b60007f780e9d63000000000000000000000000000000000000000000000000000000007bffffffffffffffffffffffffffffffffffffffffffffffffffffffff1916827bffffffffffffffffffffffffffffffffffffffffffffffffffffffff19161480610adb5750610ada826126b1565b5b9050919050565b610aea612793565b73ffffffffffffffffffffffffffffffffffffffff16610b08611d56565b73ffffffffffffffffffffffffffffffffffffffff1614610b5e576040517f08c379a0000000000000000000000000000000000000000000000000000000008152600401610b55906152a3565b60405180910390fd5b80601560006101000a81548160ff02191690831515021790555050565b606060008054610b8a90615756565b80601f0160208091040260200160405190810160405280929190818152602001828054610bb690615756565b8015610c035780601f10610bd857610100808354040283529160200191610c03565b820191906000526020600020905b815481529060010190602001808311610be657829003601f168201915b5050505050905090565b6000610c188261279b565b610c57576040517f08c379a0000000000000000000000000000000000000000000000000000000008152600401610c4e90615283565b60405180910390fd5b6004600083815260200190815260200160002060009054906101000a900473ffffffffffffffffffffffffffffffffffffffff169050919050565b600e8054610c9f90615756565b80601f0160208091040260200160405190810160405280929190818152602001828054610ccb90615756565b8015610d185780601f10610ced57610100808354040283529160200191610d18565b820191906000526020600020905b815481529060010190602001808311610cfb57829003601f168201915b505050505081565b6000610d2b82611a50565b90508073ffffffffffffffffffffffffffffffffffffffff168373ffffffffffffffffffffffffffffffffffffffff161415610d9c576040517f08c379a0000000000000000000000000000000000000000000000000000000008152600401610d9390615323565b60405180910390fd5b8073ffffffffffffffffffffffffffffffffffffffff16610dbb612793565b73ffffffffffffffffffffffffffffffffffffffff161480610dea5750610de981610de4612793565b6123ef565b5b610e29576040517f08c379a0000000000000000000000000000000000000000000000000000000008152600401610e20906151c3565b60405180910390fd5b610e338383612807565b505050565b600f5481565b6000600880549050905090565b60176020528060005260406000206000915090505481565b601560009054906101000a900460ff1615610eb3576040517f08c379a0000000000000000000000000000000000000000000000000000000008152600401610eaa906152c3565b60405180910390fd5b6000610ebd610e3e565b905060008311610f02576040517f08c379a0000000000000000000000000000000000000000000000000000000008152600401610ef990615423565b60405180910390fd5b601154831115610f47576040517f08c379a0000000000000000000000000000000000000000000000000000000008152600401610f3e90615243565b60405180910390fd5b6010548382610f56919061558b565b1115610f97576040517f08c379a0000000000000000000000000000000000000000000000000000000008152600401610f8e90615223565b60405180910390fd5b610f9f611d56565b73ffffffffffffffffffffffffffffffffffffffff163373ffffffffffffffffffffffffffffffffffffffff161461116b5760011515601560029054906101000a900460ff16151514156110cb57610ff6336114fa565b611035576040517f08c379a000000000000000000000000000000000000000000000000000000000815260040161102c90615403565b60405180910390fd5b6000601760003373ffffffffffffffffffffffffffffffffffffffff1673ffffffffffffffffffffffffffffffffffffffff1681526020019081526020016000205490506012548482611088919061558b565b11156110c9576040517f08c379a00000000000000000000000000000000000000000000000000000000081526004016110c090615123565b60405180910390fd5b505b82600f546110d99190615612565b82101561111b576040517f08c379a000000000000000000000000000000000000000000000000000000000815260040161111290615363565b60405180910390fd5b61116a333084600b60009054906101000a900473ffffffffffffffffffffffffffffffffffffffff1673ffffffffffffffffffffffffffffffffffffffff166128c0909392919063ffffffff16565b5b6000600190505b8381116113e957601760003373ffffffffffffffffffffffffffffffffffffffff1673ffffffffffffffffffffffffffffffffffffffff16815260200190815260200160002060008154809291906111c990615788565b91905055506111e33382846111de919061558b565b612949565b6000606460145442446111f6919061558b565b611200919061558b565b61120a91906157d1565b90508060148190555060328110156113d55761125b6040518060400160405280600781526020017f257320776f6e210000000000000000000000000000000000000000000000000081525033612967565b600b60009054906101000a900473ffffffffffffffffffffffffffffffffffffffff1673ffffffffffffffffffffffffffffffffffffffff166370a08231306040518263ffffffff1660e01b81526004016112b69190614f4d565b60206040518083038186803b1580156112ce57600080fd5b505afa1580156112e2573d6000803e3d6000fd5b505050506040513d601f19601f820116820180604052508101906113069190614280565b601354111561134a576040517f08c379a000000000000000000000000000000000000000000000000000000000815260040161134190615343565b60405180910390fd5b61139933601354600b60009054906101000a900473ffffffffffffffffffffffffffffffffffffffff1673ffffffffffffffffffffffffffffffffffffffff16612a039092919063ffffffff16565b7f2e008cac0ce8b90dd9e80248b5f8d05f95d5d25cc6787b754ba5dd09d12052d4336013546040516113cc929190614feb565b60405180910390a15b5080806113e190615788565b915050611172565b50505050565b60115481565b611406611400612793565b82612a89565b611445576040517f08c379a000000000000000000000000000000000000000000000000000000000815260040161143c90615383565b60405180910390fd5b611450838383612b67565b505050565b600061146083611b90565b82106114a1576040517f08c379a0000000000000000000000000000000000000000000000000000000008152600401611498906150a3565b60405180910390fd5b600660008473ffffffffffffffffffffffffffffffffffffffff1673ffffffffffffffffffffffffffffffffffffffff168152602001908152602001600020600083815260200190815260200160002054905092915050565b600080600090505b6016805490508110156115c4578273ffffffffffffffffffffffffffffffffffffffff1660168281548110611560577f4e487b7100000000000000000000000000000000000000000000000000000000600052603260045260246000fd5b9060005260206000200160009054906101000a900473ffffffffffffffffffffffffffffffffffffffff1673ffffffffffffffffffffffffffffffffffffffff1614156115b15760019150506115ca565b80806115bc90615788565b915050611502565b50600090505b919050565b6115d7612793565b73ffffffffffffffffffffffffffffffffffffffff166115f5611d56565b73ffffffffffffffffffffffffffffffffffffffff161461164b576040517f08c379a0000000000000000000000000000000000000000000000000000000008152600401611642906152a3565b60405180910390fd5b80601560026101000a81548160ff02191690831515021790555050565b611670612793565b73ffffffffffffffffffffffffffffffffffffffff1661168e611d56565b73ffffffffffffffffffffffffffffffffffffffff16146116e4576040517f08c379a00000000000000000000000000000000000000000000000000000000081526004016116db906152a3565b60405180910390fd5b60003373ffffffffffffffffffffffffffffffffffffffff164760405161170a90614f38565b60006040518083038185875af1925050503d8060008114611747576040519150601f19603f3d011682016040523d82523d6000602084013e61174c565b606091505b505090508061175a57600080fd5b50565b6117788383836040518060200160405280600081525061203f565b505050565b6060600061178a83611b90565b905060008167ffffffffffffffff8111156117ce577f4e487b7100000000000000000000000000000000000000000000000000000000600052604160045260246000fd5b6040519080825280602002602001820160405280156117fc5781602001602082028036833780820191505090505b50905060005b8281101561186c576118148582611455565b82828151811061184d577f4e487b7100000000000000000000000000000000000000000000000000000000600052603260045260246000fd5b602002602001018181525050808061186490615788565b915050611802565b508092505050919050565b61187f612793565b73ffffffffffffffffffffffffffffffffffffffff1661189d611d56565b73ffffffffffffffffffffffffffffffffffffffff16146118f3576040517f08c379a00000000000000000000000000000000000000000000000000000000081526004016118ea906152a3565b60405180910390fd5b80600f8190555050565b6000611907610e3e565b8210611948576040517f08c379a000000000000000000000000000000000000000000000000000000000815260040161193f906153c3565b60405180910390fd5b60088281548110611982577f4e487b7100000000000000000000000000000000000000000000000000000000600052603260045260246000fd5b90600052602060002001549050919050565b601560019054906101000a900460ff1681565b6119af612793565b73ffffffffffffffffffffffffffffffffffffffff166119cd611d56565b73ffffffffffffffffffffffffffffffffffffffff1614611a23576040517f08c379a0000000000000000000000000000000000000000000000000000000008152600401611a1a906152a3565b60405180910390fd5b80600c9080519060200190611a39929190613c75565b5050565b601560009054906101000a900460ff1681565b6000806002600084815260200190815260200160002060009054906101000a900473ffffffffffffffffffffffffffffffffffffffff169050600073ffffffffffffffffffffffffffffffffffffffff168173ffffffffffffffffffffffffffffffffffffffff161415611af9576040517f08c379a0000000000000000000000000000000000000000000000000000000008152600401611af090615203565b60405180910390fd5b80915050919050565b600c8054611b0f90615756565b80601f0160208091040260200160405190810160405280929190818152602001828054611b3b90615756565b8015611b885780601f10611b5d57610100808354040283529160200191611b88565b820191906000526020600020905b815481529060010190602001808311611b6b57829003601f168201915b505050505081565b60008073ffffffffffffffffffffffffffffffffffffffff168273ffffffffffffffffffffffffffffffffffffffff161415611c01576040517f08c379a0000000000000000000000000000000000000000000000000000000008152600401611bf8906151e3565b60405180910390fd5b600360008373ffffffffffffffffffffffffffffffffffffffff1673ffffffffffffffffffffffffffffffffffffffff168152602001908152602001600020549050919050565b611c50612793565b73ffffffffffffffffffffffffffffffffffffffff16611c6e611d56565b73ffffffffffffffffffffffffffffffffffffffff1614611cc4576040517f08c379a0000000000000000000000000000000000000000000000000000000008152600401611cbb906152a3565b60405180910390fd5b611cce6000612dc3565b565b611cd8612793565b73ffffffffffffffffffffffffffffffffffffffff16611cf6611d56565b73ffffffffffffffffffffffffffffffffffffffff1614611d4c576040517f08c379a0000000000000000000000000000000000000000000000000000000008152600401611d43906152a3565b60405180910390fd5b8060118190555050565b6000600a60009054906101000a900473ffffffffffffffffffffffffffffffffffffffff16905090565b606060018054611d8f90615756565b80601f0160208091040260200160405190810160405280929190818152602001828054611dbb90615756565b8015611e085780601f10611ddd57610100808354040283529160200191611e08565b820191906000526020600020905b815481529060010190602001808311611deb57829003601f168201915b5050505050905090565b601560029054906101000a900460ff1681565b611e2d612793565b73ffffffffffffffffffffffffffffffffffffffff168273ffffffffffffffffffffffffffffffffffffffff161415611e9b576040517f08c379a0000000000000000000000000000000000000000000000000000000008152600401611e9290615163565b60405180910390fd5b8060056000611ea8612793565b73ffffffffffffffffffffffffffffffffffffffff1673ffffffffffffffffffffffffffffffffffffffff16815260200190815260200160002060008473ffffffffffffffffffffffffffffffffffffffff1673ffffffffffffffffffffffffffffffffffffffff16815260200190815260200160002060006101000a81548160ff0219169083151502179055508173ffffffffffffffffffffffffffffffffffffffff16611f55612793565b73ffffffffffffffffffffffffffffffffffffffff167f17307eab39ab6107e8899845ad3d59bd9653f200f220920489ca2b5937696c3183604051611f9a9190615036565b60405180910390a35050565b611fae612793565b73ffffffffffffffffffffffffffffffffffffffff16611fcc611d56565b73ffffffffffffffffffffffffffffffffffffffff1614612022576040517f08c379a0000000000000000000000000000000000000000000000000000000008152600401612019906152a3565b60405180910390fd5b6001601560016101000a81548160ff021916908315150217905550565b61205061204a612793565b83612a89565b61208f576040517f08c379a000000000000000000000000000000000000000000000000000000000815260040161208690615383565b60405180910390fd5b61209b84848484612e89565b50505050565b601681815481106120b157600080fd5b906000526020600020016000915054906101000a900473ffffffffffffffffffffffffffffffffffffffff1681565b60125481565b600d80546120f390615756565b80601f016020809104026020016040519081016040528092919081815260200182805461211f90615756565b801561216c5780601f106121415761010080835404028352916020019161216c565b820191906000526020600020905b81548152906001019060200180831161214f57829003601f168201915b505050505081565b606061217f8261279b565b6121be576040517f08c379a00000000000000000000000000000000000000000000000000000000081526004016121b590615303565b60405180910390fd5b60001515601560019054906101000a900460ff161515141561226c57600e80546121e790615756565b80601f016020809104026020016040519081016040528092919081815260200182805461221390615756565b80156122605780601f1061223557610100808354040283529160200191612260565b820191906000526020600020905b81548152906001019060200180831161224357829003601f168201915b505050505090506122c8565b6000612276612ee5565b9050600081511161229657604051806020016040528060008152506122c4565b806122a084612f77565b600d6040516020016122b493929190614f07565b6040516020818303038152906040525b9150505b919050565b6122d5612793565b73ffffffffffffffffffffffffffffffffffffffff166122f3611d56565b73ffffffffffffffffffffffffffffffffffffffff1614612349576040517f08c379a0000000000000000000000000000000000000000000000000000000008152600401612340906152a3565b60405180910390fd5b8060128190555050565b60105481565b612361612793565b73ffffffffffffffffffffffffffffffffffffffff1661237f611d56565b73ffffffffffffffffffffffffffffffffffffffff16146123d5576040517f08c379a00000000000000000000000000000000000000000000000000000000081526004016123cc906152a3565b60405180910390fd5b80600d90805190602001906123eb929190613c75565b5050565b6000600560008473ffffffffffffffffffffffffffffffffffffffff1673ffffffffffffffffffffffffffffffffffffffff16815260200190815260200160002060008373ffffffffffffffffffffffffffffffffffffffff1673ffffffffffffffffffffffffffffffffffffffff16815260200190815260200160002060009054906101000a900460ff16905092915050565b61248b612793565b73ffffffffffffffffffffffffffffffffffffffff166124a9611d56565b73ffffffffffffffffffffffffffffffffffffffff16146124ff576040517f08c379a00000000000000000000000000000000000000000000000000000000081526004016124f6906152a3565b60405180910390fd5b6016600061250d9190613cfb565b81816016919061251e929190613d1c565b505050565b61252b612793565b73ffffffffffffffffffffffffffffffffffffffff16612549611d56565b73ffffffffffffffffffffffffffffffffffffffff161461259f576040517f08c379a0000000000000000000000000000000000000000000000000000000008152600401612596906152a3565b60405180910390fd5b80600e90805190602001906125b5929190613c75565b5050565b6125c1612793565b73ffffffffffffffffffffffffffffffffffffffff166125df611d56565b73ffffffffffffffffffffffffffffffffffffffff1614612635576040517f08c379a000000000000000000000000000000000000000000000000000000000815260040161262c906152a3565b60405180910390fd5b600073ffffffffffffffffffffffffffffffffffffffff168173ffffffffffffffffffffffffffffffffffffffff1614156126a5576040517f08c379a000000000000000000000000000000000000000000000000000000000815260040161269c906150e3565b60405180910390fd5b6126ae81612dc3565b50565b60007f80ac58cd000000000000000000000000000000000000000000000000000000007bffffffffffffffffffffffffffffffffffffffffffffffffffffffff1916827bffffffffffffffffffffffffffffffffffffffffffffffffffffffff1916148061277c57507f5b5e139f000000000000000000000000000000000000000000000000000000007bffffffffffffffffffffffffffffffffffffffffffffffffffffffff1916827bffffffffffffffffffffffffffffffffffffffffffffffffffffffff1916145b8061278c575061278b82613124565b5b9050919050565b600033905090565b60008073ffffffffffffffffffffffffffffffffffffffff166002600084815260200190815260200160002060009054906101000a900473ffffffffffffffffffffffffffffffffffffffff1673ffffffffffffffffffffffffffffffffffffffff1614159050919050565b816004600083815260200190815260200160002060006101000a81548173ffffffffffffffffffffffffffffffffffffffff021916908373ffffffffffffffffffffffffffffffffffffffff160217905550808273ffffffffffffffffffffffffffffffffffffffff1661287a83611a50565b73ffffffffffffffffffffffffffffffffffffffff167f8c5be1e5ebec7d5bd14f71427d1e84f3dd0314c0f7b2291e5b200ac8c7c3b92560405160405180910390a45050565b612943846323b872dd60e01b8585856040516024016128e193929190614f68565b604051602081830303815290604052907bffffffffffffffffffffffffffffffffffffffffffffffffffffffff19166020820180517bffffffffffffffffffffffffffffffffffffffffffffffffffffffff838183161783525050505061318e565b50505050565b612963828260405180602001604052806000815250613255565b5050565b6129ff828260405160240161297d929190615073565b6040516020818303038152906040527f319af333000000000000000000000000000000000000000000000000000000007bffffffffffffffffffffffffffffffffffffffffffffffffffffffff19166020820180517bffffffffffffffffffffffffffffffffffffffffffffffffffffffff83818316178352505050506132b0565b5050565b612a848363a9059cbb60e01b8484604051602401612a22929190614feb565b604051602081830303815290604052907bffffffffffffffffffffffffffffffffffffffffffffffffffffffff19166020820180517bffffffffffffffffffffffffffffffffffffffffffffffffffffffff838183161783525050505061318e565b505050565b6000612a948261279b565b612ad3576040517f08c379a0000000000000000000000000000000000000000000000000000000008152600401612aca906151a3565b60405180910390fd5b6000612ade83611a50565b90508073ffffffffffffffffffffffffffffffffffffffff168473ffffffffffffffffffffffffffffffffffffffff161480612b4d57508373ffffffffffffffffffffffffffffffffffffffff16612b3584610c0d565b73ffffffffffffffffffffffffffffffffffffffff16145b80612b5e5750612b5d81856123ef565b5b91505092915050565b8273ffffffffffffffffffffffffffffffffffffffff16612b8782611a50565b73ffffffffffffffffffffffffffffffffffffffff1614612bdd576040517f08c379a0000000000000000000000000000000000000000000000000000000008152600401612bd4906152e3565b60405180910390fd5b600073ffffffffffffffffffffffffffffffffffffffff168273ffffffffffffffffffffffffffffffffffffffff161415612c4d576040517f08c379a0000000000000000000000000000000000000000000000000000000008152600401612c4490615143565b60405180910390fd5b612c588383836132d9565b612c63600082612807565b6001600360008573ffffffffffffffffffffffffffffffffffffffff1673ffffffffffffffffffffffffffffffffffffffff1681526020019081526020016000206000828254612cb3919061566c565b925050819055506001600360008473ffffffffffffffffffffffffffffffffffffffff1673ffffffffffffffffffffffffffffffffffffffff1681526020019081526020016000206000828254612d0a919061558b565b92505081905550816002600083815260200190815260200160002060006101000a81548173ffffffffffffffffffffffffffffffffffffffff021916908373ffffffffffffffffffffffffffffffffffffffff160217905550808273ffffffffffffffffffffffffffffffffffffffff168473ffffffffffffffffffffffffffffffffffffffff167fddf252ad1be2c89b69c2b068fc378daa952ba7f163c4a11628f55a4df523b3ef60405160405180910390a4505050565b6000600a60009054906101000a900473ffffffffffffffffffffffffffffffffffffffff16905081600a60006101000a81548173ffffffffffffffffffffffffffffffffffffffff021916908373ffffffffffffffffffffffffffffffffffffffff1602179055508173ffffffffffffffffffffffffffffffffffffffff168173ffffffffffffffffffffffffffffffffffffffff167f8be0079c531659141344cd1fd0a4f28419497f9722a3daafe3b4186f6b6457e060405160405180910390a35050565b612e94848484612b67565b612ea0848484846133ed565b612edf576040517f08c379a0000000000000000000000000000000000000000000000000000000008152600401612ed6906150c3565b60405180910390fd5b50505050565b6060600c8054612ef490615756565b80601f0160208091040260200160405190810160405280929190818152602001828054612f2090615756565b8015612f6d5780601f10612f4257610100808354040283529160200191612f6d565b820191906000526020600020905b815481529060010190602001808311612f5057829003601f168201915b5050505050905090565b60606000821415612fbf576040518060400160405280600181526020017f3000000000000000000000000000000000000000000000000000000000000000815250905061311f565b600082905060005b60008214612ff1578080612fda90615788565b915050600a82612fea91906155e1565b9150612fc7565b60008167ffffffffffffffff811115613033577f4e487b7100000000000000000000000000000000000000000000000000000000600052604160045260246000fd5b6040519080825280601f01601f1916602001820160405280156130655781602001600182028036833780820191505090505b5090505b600085146131185760018261307e919061566c565b9150600a8561308d91906157d1565b6030613099919061558b565b60f81b8183815181106130d5577f4e487b7100000000000000000000000000000000000000000000000000000000600052603260045260246000fd5b60200101907effffffffffffffffffffffffffffffffffffffffffffffffffffffffffffff1916908160001a905350600a8561311191906155e1565b9450613069565b8093505050505b919050565b60007f01ffc9a7000000000000000000000000000000000000000000000000000000007bffffffffffffffffffffffffffffffffffffffffffffffffffffffff1916827bffffffffffffffffffffffffffffffffffffffffffffffffffffffff1916149050919050565b60006131f0826040518060400160405280602081526020017f5361666545524332303a206c6f772d6c6576656c2063616c6c206661696c65648152508573ffffffffffffffffffffffffffffffffffffffff166135849092919063ffffffff16565b90506000815111156132505780806020019051810190613210919061419b565b61324f576040517f08c379a0000000000000000000000000000000000000000000000000000000008152600401613246906153e3565b60405180910390fd5b5b505050565b61325f838361359c565b61326c60008484846133ed565b6132ab576040517f08c379a00000000000000000000000000000000000000000000000000000000081526004016132a2906150c3565b60405180910390fd5b505050565b60008151905060006a636f6e736f6c652e6c6f679050602083016000808483855afa5050505050565b6132e483838361376a565b600073ffffffffffffffffffffffffffffffffffffffff168373ffffffffffffffffffffffffffffffffffffffff161415613327576133228161376f565b613366565b8173ffffffffffffffffffffffffffffffffffffffff168373ffffffffffffffffffffffffffffffffffffffff16146133655761336483826137b8565b5b5b600073ffffffffffffffffffffffffffffffffffffffff168273ffffffffffffffffffffffffffffffffffffffff1614156133a9576133a481613925565b6133e8565b8273ffffffffffffffffffffffffffffffffffffffff168273ffffffffffffffffffffffffffffffffffffffff16146133e7576133e68282613a68565b5b5b505050565b600061340e8473ffffffffffffffffffffffffffffffffffffffff16613ae7565b15613577578373ffffffffffffffffffffffffffffffffffffffff1663150b7a02613437612793565b8786866040518563ffffffff1660e01b81526004016134599493929190614f9f565b602060405180830381600087803b15801561347357600080fd5b505af19250505080156134a457506040513d601f19601f820116820180604052508101906134a191906141ed565b60015b613527573d80600081146134d4576040519150601f19603f3d011682016040523d82523d6000602084013e6134d9565b606091505b5060008151141561351f576040517f08c379a0000000000000000000000000000000000000000000000000000000008152600401613516906150c3565b60405180910390fd5b805181602001fd5b63150b7a0260e01b7bffffffffffffffffffffffffffffffffffffffffffffffffffffffff1916817bffffffffffffffffffffffffffffffffffffffffffffffffffffffff19161491505061357c565b600190505b949350505050565b60606135938484600085613afa565b90509392505050565b600073ffffffffffffffffffffffffffffffffffffffff168273ffffffffffffffffffffffffffffffffffffffff16141561360c576040517f08c379a000000000000000000000000000000000000000000000000000000000815260040161360390615263565b60405180910390fd5b6136158161279b565b15613655576040517f08c379a000000000000000000000000000000000000000000000000000000000815260040161364c90615103565b60405180910390fd5b613661600083836132d9565b6001600360008473ffffffffffffffffffffffffffffffffffffffff1673ffffffffffffffffffffffffffffffffffffffff16815260200190815260200160002060008282546136b1919061558b565b92505081905550816002600083815260200190815260200160002060006101000a81548173ffffffffffffffffffffffffffffffffffffffff021916908373ffffffffffffffffffffffffffffffffffffffff160217905550808273ffffffffffffffffffffffffffffffffffffffff16600073ffffffffffffffffffffffffffffffffffffffff167fddf252ad1be2c89b69c2b068fc378daa952ba7f163c4a11628f55a4df523b3ef60405160405180910390a45050565b505050565b6008805490506009600083815260200190815260200160002081905550600881908060018154018082558091505060019003906000526020600020016000909190919091505550565b600060016137c584611b90565b6137cf919061566c565b90506000600760008481526020019081526020016000205490508181146138b4576000600660008673ffffffffffffffffffffffffffffffffffffffff1673ffffffffffffffffffffffffffffffffffffffff168152602001908152602001600020600084815260200190815260200160002054905080600660008773ffffffffffffffffffffffffffffffffffffffff1673ffffffffffffffffffffffffffffffffffffffff168152602001908152602001600020600084815260200190815260200160002081905550816007600083815260200190815260200160002081905550505b6007600084815260200190815260200160002060009055600660008573ffffffffffffffffffffffffffffffffffffffff1673ffffffffffffffffffffffffffffffffffffffff16815260200190815260200160002060008381526020019081526020016000206000905550505050565b60006001600880549050613939919061566c565b905060006009600084815260200190815260200160002054905060006008838154811061398f577f4e487b7100000000000000000000000000000000000000000000000000000000600052603260045260246000fd5b9060005260206000200154905080600883815481106139d7577f4e487b7100000000000000000000000000000000000000000000000000000000600052603260045260246000fd5b906000526020600020018190555081600960008381526020019081526020016000208190555060096000858152602001908152602001600020600090556008805480613a4c577f4e487b7100000000000000000000000000000000000000000000000000000000600052603160045260246000fd5b6001900381819060005260206000200160009055905550505050565b6000613a7383611b90565b905081600660008573ffffffffffffffffffffffffffffffffffffffff1673ffffffffffffffffffffffffffffffffffffffff168152602001908152602001600020600083815260200190815260200160002081905550806007600084815260200190815260200160002081905550505050565b600080823b905060008111915050919050565b606082471015613b3f576040517f08c379a0000000000000000000000000000000000000000000000000000000008152600401613b3690615183565b60405180910390fd5b613b4885613ae7565b613b87576040517f08c379a0000000000000000000000000000000000000000000000000000000008152600401613b7e906153a3565b60405180910390fd5b6000808673ffffffffffffffffffffffffffffffffffffffff168587604051613bb09190614ef0565b60006040518083038185875af1925050503d8060008114613bed576040519150601f19603f3d011682016040523d82523d6000602084013e613bf2565b606091505b5091509150613c02828286613c0e565b92505050949350505050565b60608315613c1e57829050613c6e565b600083511115613c315782518084602001fd5b816040517f08c379a0000000000000000000000000000000000000000000000000000000008152600401613c659190615051565b60405180910390fd5b9392505050565b828054613c8190615756565b90600052602060002090601f016020900481019282613ca35760008555613cea565b82601f10613cbc57805160ff1916838001178555613cea565b82800160010185558215613cea579182015b82811115613ce9578251825591602001919060010190613cce565b5b509050613cf79190613dbc565b5090565b5080546000825590600052602060002090810190613d199190613dbc565b50565b828054828255906000526020600020908101928215613dab579160200282015b82811115613daa57823573ffffffffffffffffffffffffffffffffffffffff168260006101000a81548173ffffffffffffffffffffffffffffffffffffffff021916908373ffffffffffffffffffffffffffffffffffffffff16021790555091602001919060010190613d3c565b5b509050613db89190613dbc565b5090565b5b80821115613dd5576000816000905550600101613dbd565b5090565b6000613dec613de78461548f565b61545e565b905082815260208101848484011115613e0457600080fd5b613e0f848285615714565b509392505050565b6000613e2a613e25846154bf565b61545e565b905082815260208101848484011115613e4257600080fd5b613e4d848285615714565b509392505050565b600081359050613e64816158cf565b92915050565b60008083601f840112613e7c57600080fd5b8235905067ffffffffffffffff811115613e9557600080fd5b602083019150836020820283011115613ead57600080fd5b9250929050565b600081359050613ec3816158e6565b92915050565b600081519050613ed8816158e6565b92915050565b600081359050613eed816158fd565b92915050565b600081519050613f02816158fd565b92915050565b600082601f830112613f1957600080fd5b8135613f29848260208601613dd9565b91505092915050565b600082601f830112613f4357600080fd5b8135613f53848260208601613e17565b91505092915050565b600081359050613f6b81615914565b92915050565b600081519050613f8081615914565b92915050565b600060208284031215613f9857600080fd5b6000613fa684828501613e55565b91505092915050565b60008060408385031215613fc257600080fd5b6000613fd085828601613e55565b9250506020613fe185828601613e55565b9150509250929050565b60008060006060848603121561400057600080fd5b600061400e86828701613e55565b935050602061401f86828701613e55565b925050604061403086828701613f5c565b9150509250925092565b6000806000806080858703121561405057600080fd5b600061405e87828801613e55565b945050602061406f87828801613e55565b935050604061408087828801613f5c565b925050606085013567ffffffffffffffff81111561409d57600080fd5b6140a987828801613f08565b91505092959194509250565b600080604083850312156140c857600080fd5b60006140d685828601613e55565b92505060206140e785828601613eb4565b9150509250929050565b6000806040838503121561410457600080fd5b600061411285828601613e55565b925050602061412385828601613f5c565b9150509250929050565b6000806020838503121561414057600080fd5b600083013567ffffffffffffffff81111561415a57600080fd5b61416685828601613e6a565b92509250509250929050565b60006020828403121561418457600080fd5b600061419284828501613eb4565b91505092915050565b6000602082840312156141ad57600080fd5b60006141bb84828501613ec9565b91505092915050565b6000602082840312156141d657600080fd5b60006141e484828501613ede565b91505092915050565b6000602082840312156141ff57600080fd5b600061420d84828501613ef3565b91505092915050565b60006020828403121561422857600080fd5b600082013567ffffffffffffffff81111561424257600080fd5b61424e84828501613f32565b91505092915050565b60006020828403121561426957600080fd5b600061427784828501613f5c565b91505092915050565b60006020828403121561429257600080fd5b60006142a084828501613f71565b91505092915050565b600080604083850312156142bc57600080fd5b60006142ca85828601613f5c565b92505060206142db85828601613f5c565b9150509250929050565b60006142f18383614ed2565b60208301905092915050565b614306816156a0565b82525050565b600061431782615514565b6143218185615542565b935061432c836154ef565b8060005b8381101561435d57815161434488826142e5565b975061434f83615535565b925050600181019050614330565b5085935050505092915050565b614373816156b2565b82525050565b60006143848261551f565b61438e8185615553565b935061439e818560208601615723565b6143a7816158be565b840191505092915050565b60006143bd8261551f565b6143c78185615564565b93506143d7818560208601615723565b80840191505092915050565b60006143ee8261552a565b6143f8818561556f565b9350614408818560208601615723565b614411816158be565b840191505092915050565b60006144278261552a565b6144318185615580565b9350614441818560208601615723565b80840191505092915050565b6000815461445a81615756565b6144648186615580565b9450600182166000811461447f5760018114614490576144c3565b60ff198316865281860193506144c3565b614499856154ff565b60005b838110156144bb5781548189015260018201915060208101905061449c565b838801955050505b50505092915050565b60006144d9602b8361556f565b91507f455243373231456e756d657261626c653a206f776e657220696e646578206f7560008301527f74206f6620626f756e64730000000000000000000000000000000000000000006020830152604082019050919050565b600061453f60328361556f565b91507f4552433732313a207472616e7366657220746f206e6f6e20455243373231526560008301527f63656976657220696d706c656d656e74657200000000000000000000000000006020830152604082019050919050565b60006145a560268361556f565b91507f4f776e61626c653a206e6577206f776e657220697320746865207a65726f206160008301527f64647265737300000000000000000000000000000000000000000000000000006020830152604082019050919050565b600061460b601c8361556f565b91507f4552433732313a20746f6b656e20616c7265616479206d696e746564000000006000830152602082019050919050565b600061464b601c8361556f565b91507f6d6178204e4654207065722061646472657373206578636565646564000000006000830152602082019050919050565b600061468b60248361556f565b91507f4552433732313a207472616e7366657220746f20746865207a65726f2061646460008301527f72657373000000000000000000000000000000000000000000000000000000006020830152604082019050919050565b60006146f160198361556f565b91507f4552433732313a20617070726f766520746f2063616c6c6572000000000000006000830152602082019050919050565b600061473160268361556f565b91507f416464726573733a20696e73756666696369656e742062616c616e636520666f60008301527f722063616c6c00000000000000000000000000000000000000000000000000006020830152604082019050919050565b6000614797602c8361556f565b91507f4552433732313a206f70657261746f7220717565727920666f72206e6f6e657860008301527f697374656e7420746f6b656e00000000000000000000000000000000000000006020830152604082019050919050565b60006147fd60388361556f565b91507f4552433732313a20617070726f76652063616c6c6572206973206e6f74206f7760008301527f6e6572206e6f7220617070726f76656420666f7220616c6c00000000000000006020830152604082019050919050565b6000614863602a8361556f565b91507f4552433732313a2062616c616e636520717565727920666f7220746865207a6560008301527f726f2061646472657373000000000000000000000000000000000000000000006020830152604082019050919050565b60006148c960298361556f565b91507f4552433732313a206f776e657220717565727920666f72206e6f6e657869737460008301527f656e7420746f6b656e00000000000000000000000000000000000000000000006020830152604082019050919050565b600061492f60168361556f565b91507f6d6178204e4654206c696d6974206578636565646564000000000000000000006000830152602082019050919050565b600061496f60248361556f565b91507f6d6178206d696e7420616d6f756e74207065722073657373696f6e206578636560008301527f65646564000000000000000000000000000000000000000000000000000000006020830152604082019050919050565b60006149d560208361556f565b91507f4552433732313a206d696e7420746f20746865207a65726f20616464726573736000830152602082019050919050565b6000614a15602c8361556f565b91507f4552433732313a20617070726f76656420717565727920666f72206e6f6e657860008301527f697374656e7420746f6b656e00000000000000000000000000000000000000006020830152604082019050919050565b6000614a7b60208361556f565b91507f4f776e61626c653a2063616c6c6572206973206e6f7420746865206f776e65726000830152602082019050919050565b6000614abb60168361556f565b91507f74686520636f6e747261637420697320706175736564000000000000000000006000830152602082019050919050565b6000614afb60298361556f565b91507f4552433732313a207472616e73666572206f6620746f6b656e2074686174206960008301527f73206e6f74206f776e00000000000000000000000000000000000000000000006020830152604082019050919050565b6000614b61602f8361556f565b91507f4552433732314d657461646174613a2055524920717565727920666f72206e6f60008301527f6e6578697374656e7420746f6b656e00000000000000000000000000000000006020830152604082019050919050565b6000614bc760218361556f565b91507f4552433732313a20617070726f76616c20746f2063757272656e74206f776e6560008301527f72000000000000000000000000000000000000000000000000000000000000006020830152604082019050919050565b6000614c2d60358361556f565b91507f547279696e6720746f207769746864726177206d6f7265206d6f6e657920746860008301527f616e207468657920636f6e7472616374206861732e00000000000000000000006020830152604082019050919050565b6000614c93600083615564565b9150600082019050919050565b6000614cad60128361556f565b91507f696e73756666696369656e742066756e647300000000000000000000000000006000830152602082019050919050565b6000614ced60318361556f565b91507f4552433732313a207472616e736665722063616c6c6572206973206e6f74206f60008301527f776e6572206e6f7220617070726f7665640000000000000000000000000000006020830152604082019050919050565b6000614d53601d8361556f565b91507f416464726573733a2063616c6c20746f206e6f6e2d636f6e74726163740000006000830152602082019050919050565b6000614d93602c8361556f565b91507f455243373231456e756d657261626c653a20676c6f62616c20696e646578206f60008301527f7574206f6620626f756e647300000000000000000000000000000000000000006020830152604082019050919050565b6000614df9602a8361556f565b91507f5361666545524332303a204552433230206f7065726174696f6e20646964206e60008301527f6f742073756363656564000000000000000000000000000000000000000000006020830152604082019050919050565b6000614e5f60178361556f565b91507f75736572206973206e6f742077686974656c69737465640000000000000000006000830152602082019050919050565b6000614e9f601b8361556f565b91507f6e65656420746f206d696e74206174206c656173742031204e465400000000006000830152602082019050919050565b614edb8161570a565b82525050565b614eea8161570a565b82525050565b6000614efc82846143b2565b915081905092915050565b6000614f13828661441c565b9150614f1f828561441c565b9150614f2b828461444d565b9150819050949350505050565b6000614f4382614c86565b9150819050919050565b6000602082019050614f6260008301846142fd565b92915050565b6000606082019050614f7d60008301866142fd565b614f8a60208301856142fd565b614f976040830184614ee1565b949350505050565b6000608082019050614fb460008301876142fd565b614fc160208301866142fd565b614fce6040830185614ee1565b8181036060830152614fe08184614379565b905095945050505050565b600060408201905061500060008301856142fd565b61500d6020830184614ee1565b9392505050565b6000602082019050818103600083015261502e818461430c565b905092915050565b600060208201905061504b600083018461436a565b92915050565b6000602082019050818103600083015261506b81846143e3565b905092915050565b6000604082019050818103600083015261508d81856143e3565b905061509c60208301846142fd565b9392505050565b600060208201905081810360008301526150bc816144cc565b9050919050565b600060208201905081810360008301526150dc81614532565b9050919050565b600060208201905081810360008301526150fc81614598565b9050919050565b6000602082019050818103600083015261511c816145fe565b9050919050565b6000602082019050818103600083015261513c8161463e565b9050919050565b6000602082019050818103600083015261515c8161467e565b9050919050565b6000602082019050818103600083015261517c816146e4565b9050919050565b6000602082019050818103600083015261519c81614724565b9050919050565b600060208201905081810360008301526151bc8161478a565b9050919050565b600060208201905081810360008301526151dc816147f0565b9050919050565b600060208201905081810360008301526151fc81614856565b9050919050565b6000602082019050818103600083015261521c816148bc565b9050919050565b6000602082019050818103600083015261523c81614922565b9050919050565b6000602082019050818103600083015261525c81614962565b9050919050565b6000602082019050818103600083015261527c816149c8565b9050919050565b6000602082019050818103600083015261529c81614a08565b9050919050565b600060208201905081810360008301526152bc81614a6e565b9050919050565b600060208201905081810360008301526152dc81614aae565b9050919050565b600060208201905081810360008301526152fc81614aee565b9050919050565b6000602082019050818103600083015261531c81614b54565b9050919050565b6000602082019050818103600083015261533c81614bba565b9050919050565b6000602082019050818103600083015261535c81614c20565b9050919050565b6000602082019050818103600083015261537c81614ca0565b9050919050565b6000602082019050818103600083015261539c81614ce0565b9050919050565b600060208201905081810360008301526153bc81614d46565b9050919050565b600060208201905081810360008301526153dc81614d86565b9050919050565b600060208201905081810360008301526153fc81614dec565b9050919050565b6000602082019050818103600083015261541c81614e52565b9050919050565b6000602082019050818103600083015261543c81614e92565b9050919050565b60006020820190506154586000830184614ee1565b92915050565b6000604051905081810181811067ffffffffffffffff821117156154855761548461588f565b5b8060405250919050565b600067ffffffffffffffff8211156154aa576154a961588f565b5b601f19601f8301169050602081019050919050565b600067ffffffffffffffff8211156154da576154d961588f565b5b601f19601f8301169050602081019050919050565b6000819050602082019050919050565b60008190508160005260206000209050919050565b600081519050919050565b600081519050919050565b600081519050919050565b6000602082019050919050565b600082825260208201905092915050565b600082825260208201905092915050565b600081905092915050565b600082825260208201905092915050565b600081905092915050565b60006155968261570a565b91506155a18361570a565b9250827fffffffffffffffffffffffffffffffffffffffffffffffffffffffffffffffff038211156155d6576155d5615802565b5b828201905092915050565b60006155ec8261570a565b91506155f78361570a565b92508261560757615606615831565b5b828204905092915050565b600061561d8261570a565b91506156288361570a565b9250817fffffffffffffffffffffffffffffffffffffffffffffffffffffffffffffffff048311821515161561566157615660615802565b5b828202905092915050565b60006156778261570a565b91506156828361570a565b92508282101561569557615694615802565b5b828203905092915050565b60006156ab826156ea565b9050919050565b60008115159050919050565b60007fffffffff0000000000000000000000000000000000000000000000000000000082169050919050565b600073ffffffffffffffffffffffffffffffffffffffff82169050919050565b6000819050919050565b82818337600083830152505050565b60005b83811015615741578082015181840152602081019050615726565b83811115615750576000848401525b50505050565b6000600282049050600182168061576e57607f821691505b6020821081141561578257615781615860565b5b50919050565b60006157938261570a565b91507fffffffffffffffffffffffffffffffffffffffffffffffffffffffffffffffff8214156157c6576157c5615802565b5b600182019050919050565b60006157dc8261570a565b91506157e78361570a565b9250826157f7576157f6615831565b5b828206905092915050565b7f4e487b7100000000000000000000000000000000000000000000000000000000600052601160045260246000fd5b7f4e487b7100000000000000000000000000000000000000000000000000000000600052601260045260246000fd5b7f4e487b7100000000000000000000000000000000000000000000000000000000600052602260045260246000fd5b7f4e487b7100000000000000000000000000000000000000000000000000000000600052604160045260246000fd5b6000601f19601f8301169050919050565b6158d8816156a0565b81146158e357600080fd5b50565b6158ef816156b2565b81146158fa57600080fd5b50565b615906816156be565b811461591157600080fd5b50565b61591d8161570a565b811461592857600080fd5b5056fea264697066735822122049391717dc84b7430aa8d4c510be08d96474dfeddae3c59dff2a5f2db30a733564736f6c63430008000033",
  "linkReferences": {},
  "deployedLinkReferences": {}
}